{
  "abi": [
    {
      "inputs": [],
      "name": "dividendFlag",
      "outputs": [
        {
          "internalType": "uint256",
          "name": "",
          "type": "uint256"
        }
      ],
      "stateMutability": "view",
      "type": "function"
    },
    {
      "inputs": [],
      "name": "tradeFlag",
      "outputs": [
        {
          "internalType": "uint256",
          "name": "",
          "type": "uint256"
        }
      ],
      "stateMutability": "view",
      "type": "function"
    }
  ],
  "bytecode": {
    "object": "0x608060405260016000556001600255348015601957600080fd5b50608f806100286000396000f3fe6080604052348015600f57600080fd5b506004361060325760003560e01c8063745b07c8146037578063c43982cc146051575b600080fd5b603f60025481565b60405190815260200160405180910390f35b603f6000548156fea2646970667358221220ae0933bcf8b2188c12727667fc6da68cb4dd3dcfcd25466d5c9658f5803c652c64736f6c63430008130033",
    "linkReferences": {}
  },
  "methodIdentifiers": {
    "dividendFlag()": "745b07c8",
    "tradeFlag()": "c43982cc"
  },
  "id": 17
}