{
  "abi": [
    {
      "inputs": [],
      "name": "basicFlag",
      "outputs": [
        {
          "internalType": "uint256",
          "name": "",
          "type": "uint256"
        }
      ],
      "stateMutability": "view",
      "type": "function"
    },
    {
      "inputs": [],
      "name": "dividendFlag",
      "outputs": [
        {
          "internalType": "uint256",
          "name": "",
          "type": "uint256"
        }
      ],
      "stateMutability": "view",
      "type": "function"
    },
    {
      "inputs": [],
      "name": "tradeFlag",
      "outputs": [
        {
          "internalType": "uint256",
          "name": "",
          "type": "uint256"
        }
      ],
      "stateMutability": "view",
      "type": "function"
    }
  ],
  "bytecode": {
    "object": "0x6080604052600160005560006001556001600255348015601e57600080fd5b5060a18061002d6000396000f3fe6080604052348015600f57600080fd5b5060043610603c5760003560e01c80632c01c922146041578063745b07c814605b578063c43982cc146063575b600080fd5b604960015481565b60405190815260200160405180910390f35b604960025481565b60496000548156fea2646970667358221220d5e4adcd4496125eca9827fd351d8209b71f6f9edf46032b699faa39204da7f364736f6c63430008120033",
    "linkReferences": {}
  },
  "methodIdentifiers": {
    "basicFlag()": "2c01c922",
    "dividendFlag()": "745b07c8",
    "tradeFlag()": "c43982cc"
  },
  "storageLayout": {
    "storage": [
      {
        "astId": 28394,
        "contract": "src/Gas.sol:Constants",
        "label": "tradeFlag",
        "offset": 0,
        "slot": "0",
        "type": "t_uint256"
      },
      {
        "astId": 28397,
        "contract": "src/Gas.sol:Constants",
        "label": "basicFlag",
        "offset": 0,
        "slot": "1",
        "type": "t_uint256"
      },
      {
        "astId": 28400,
        "contract": "src/Gas.sol:Constants",
        "label": "dividendFlag",
        "offset": 0,
        "slot": "2",
        "type": "t_uint256"
      }
    ],
    "types": {
      "t_uint256": {
        "encoding": "inplace",
        "label": "uint256",
        "numberOfBytes": "32"
      }
    }
  },
  "id": 17
}