{
  "abi": [
    {
      "inputs": [
        {
          "internalType": "address[]",
          "name": "_admins",
          "type": "address[]"
        },
        {
          "internalType": "uint256",
          "name": "_totalSupply",
          "type": "uint256"
        }
      ],
      "stateMutability": "payable",
      "type": "constructor"
    },
    {
      "inputs": [],
      "name": "NotAdmin",
      "type": "error"
    },
    {
      "inputs": [],
      "name": "NotOwner",
      "type": "error"
    },
    {
      "inputs": [],
      "name": "NotSender",
      "type": "error"
    },
    {
      "anonymous": false,
      "inputs": [
        {
          "indexed": false,
          "internalType": "address",
          "name": "userAddress",
          "type": "address"
        },
        {
          "indexed": false,
          "internalType": "uint256",
          "name": "tier",
          "type": "uint256"
        }
      ],
      "name": "AddedToWhitelist",
      "type": "event"
    },
    {
      "anonymous": false,
      "inputs": [
        {
          "indexed": true,
          "internalType": "address",
          "name": "previousOwner",
          "type": "address"
        },
        {
          "indexed": true,
          "internalType": "address",
          "name": "newOwner",
          "type": "address"
        }
      ],
      "name": "OwnershipTransferred",
      "type": "event"
    },
    {
      "anonymous": false,
      "inputs": [
        {
          "indexed": false,
          "internalType": "address",
          "name": "admin",
          "type": "address"
        },
        {
          "indexed": false,
          "internalType": "uint256",
          "name": "ID",
          "type": "uint256"
        },
        {
          "indexed": false,
          "internalType": "uint256",
          "name": "amount",
          "type": "uint256"
        },
        {
          "indexed": false,
          "internalType": "string",
          "name": "recipient",
          "type": "string"
        }
      ],
      "name": "PaymentUpdated",
      "type": "event"
    },
    {
      "anonymous": false,
      "inputs": [
        {
          "indexed": false,
          "internalType": "address",
          "name": "recipient",
          "type": "address"
        },
        {
          "indexed": false,
          "internalType": "uint256",
          "name": "amount",
          "type": "uint256"
        }
      ],
      "name": "Transfer",
      "type": "event"
    },
    {
      "anonymous": false,
      "inputs": [
        {
          "indexed": true,
          "internalType": "address",
          "name": "",
          "type": "address"
        }
      ],
      "name": "WhiteListTransfer",
      "type": "event"
    },
    {
      "anonymous": false,
      "inputs": [
        {
          "indexed": true,
          "internalType": "address",
          "name": "",
          "type": "address"
        },
        {
          "indexed": true,
          "internalType": "uint256",
          "name": "",
          "type": "uint256"
        }
      ],
      "name": "supplyChanged",
      "type": "event"
    },
    {
      "stateMutability": "payable",
      "type": "fallback"
    },
    {
      "inputs": [
        {
          "internalType": "address",
          "name": "_updateAddress",
          "type": "address"
        },
        {
          "internalType": "bool",
          "name": "_tradeMode",
          "type": "bool"
        }
      ],
      "name": "addHistory",
      "outputs": [
        {
          "internalType": "bool",
          "name": "status_",
          "type": "bool"
        },
        {
          "internalType": "bool",
          "name": "tradeMode_",
          "type": "bool"
        }
      ],
      "stateMutability": "payable",
      "type": "function"
    },
    {
      "inputs": [
        {
          "internalType": "address",
          "name": "_userAddrs",
          "type": "address"
        },
        {
          "internalType": "uint256",
          "name": "_tier",
          "type": "uint256"
        }
      ],
      "name": "addToWhitelist",
      "outputs": [],
      "stateMutability": "payable",
      "type": "function"
    },
    {
      "inputs": [
        {
          "internalType": "uint256",
          "name": "",
          "type": "uint256"
        }
      ],
      "name": "administrators",
      "outputs": [
        {
          "internalType": "address",
          "name": "",
          "type": "address"
        }
      ],
      "stateMutability": "view",
      "type": "function"
    },
    {
      "inputs": [
        {
          "internalType": "address",
          "name": "_user",
          "type": "address"
        }
      ],
      "name": "balanceOf",
      "outputs": [
        {
          "internalType": "uint256",
          "name": "balance_",
          "type": "uint256"
        }
      ],
      "stateMutability": "view",
      "type": "function"
    },
    {
      "inputs": [
        {
          "internalType": "address",
          "name": "",
          "type": "address"
        }
      ],
      "name": "balances",
      "outputs": [
        {
          "internalType": "uint256",
          "name": "",
          "type": "uint256"
        }
      ],
      "stateMutability": "view",
      "type": "function"
    },
    {
      "inputs": [
        {
          "internalType": "address",
          "name": "_user",
          "type": "address"
        }
      ],
      "name": "checkForAdmin",
      "outputs": [
        {
          "internalType": "bool",
          "name": "admin_",
          "type": "bool"
        }
      ],
      "stateMutability": "view",
      "type": "function"
    },
    {
      "inputs": [],
      "name": "dividendFlag",
      "outputs": [
        {
          "internalType": "uint256",
          "name": "",
          "type": "uint256"
        }
      ],
      "stateMutability": "view",
      "type": "function"
    },
    {
      "inputs": [],
      "name": "getPaymentHistory",
      "outputs": [
        {
          "components": [
            {
              "internalType": "uint256",
              "name": "lastUpdate",
              "type": "uint256"
            },
            {
              "internalType": "address",
              "name": "updatedBy",
              "type": "address"
            },
            {
              "internalType": "uint256",
              "name": "blockNumber",
              "type": "uint256"
            }
          ],
          "internalType": "struct GasContract.History[]",
          "name": "paymentHistory_",
          "type": "tuple[]"
        }
      ],
      "stateMutability": "payable",
      "type": "function"
    },
    {
      "inputs": [
        {
          "internalType": "address",
          "name": "sender",
          "type": "address"
        }
      ],
      "name": "getPaymentStatus",
      "outputs": [
        {
          "internalType": "bool",
          "name": "",
          "type": "bool"
        },
        {
          "internalType": "uint256",
          "name": "",
          "type": "uint256"
        }
      ],
      "stateMutability": "view",
      "type": "function"
    },
    {
      "inputs": [
        {
          "internalType": "address",
          "name": "_user",
          "type": "address"
        }
      ],
      "name": "getPayments",
      "outputs": [
        {
          "components": [
            {
              "internalType": "enum GasContract.PaymentType",
              "name": "paymentType",
              "type": "uint8"
            },
            {
              "internalType": "uint256",
              "name": "paymentID",
              "type": "uint256"
            },
            {
              "internalType": "bool",
              "name": "adminUpdated",
              "type": "bool"
            },
            {
              "internalType": "string",
              "name": "recipientName",
              "type": "string"
            },
            {
              "internalType": "address",
              "name": "recipient",
              "type": "address"
            },
            {
              "internalType": "address",
              "name": "admin",
              "type": "address"
            },
            {
              "internalType": "uint256",
              "name": "amount",
              "type": "uint256"
            }
          ],
          "internalType": "struct GasContract.Payment[]",
          "name": "payments_",
          "type": "tuple[]"
        }
      ],
      "stateMutability": "view",
      "type": "function"
    },
    {
      "inputs": [],
      "name": "getTradingMode",
      "outputs": [
        {
          "internalType": "bool",
          "name": "mode_",
          "type": "bool"
        }
      ],
      "stateMutability": "view",
      "type": "function"
    },
    {
      "inputs": [],
      "name": "owner",
      "outputs": [
        {
          "internalType": "address",
          "name": "",
          "type": "address"
        }
      ],
      "stateMutability": "view",
      "type": "function"
    },
    {
      "inputs": [],
      "name": "renounceOwnership",
      "outputs": [],
      "stateMutability": "nonpayable",
      "type": "function"
    },
    {
      "inputs": [],
      "name": "tradeFlag",
      "outputs": [
        {
          "internalType": "uint256",
          "name": "",
          "type": "uint256"
        }
      ],
      "stateMutability": "view",
      "type": "function"
    },
    {
      "inputs": [
        {
          "internalType": "address",
          "name": "_recipient",
          "type": "address"
        },
        {
          "internalType": "uint256",
          "name": "_amount",
          "type": "uint256"
        },
        {
          "internalType": "string",
          "name": "_name",
          "type": "string"
        }
      ],
      "name": "transfer",
      "outputs": [
        {
          "internalType": "bool",
          "name": "status_",
          "type": "bool"
        }
      ],
      "stateMutability": "payable",
      "type": "function"
    },
    {
      "inputs": [
        {
          "internalType": "address",
          "name": "newOwner",
          "type": "address"
        }
      ],
      "name": "transferOwnership",
      "outputs": [],
      "stateMutability": "nonpayable",
      "type": "function"
    },
    {
      "inputs": [
        {
          "internalType": "address",
          "name": "_user",
          "type": "address"
        },
        {
          "internalType": "uint256",
          "name": "_ID",
          "type": "uint256"
        },
        {
          "internalType": "uint256",
          "name": "_amount",
          "type": "uint256"
        },
        {
          "internalType": "enum GasContract.PaymentType",
          "name": "_type",
          "type": "uint8"
        }
      ],
      "name": "updatePayment",
      "outputs": [],
      "stateMutability": "payable",
      "type": "function"
    },
    {
      "inputs": [
        {
          "internalType": "address",
          "name": "_recipient",
          "type": "address"
        },
        {
          "internalType": "uint256",
          "name": "_amount",
          "type": "uint256"
        }
      ],
      "name": "whiteTransfer",
      "outputs": [],
      "stateMutability": "payable",
      "type": "function"
    },
    {
      "inputs": [
        {
          "internalType": "address",
          "name": "",
          "type": "address"
        }
      ],
      "name": "whitelist",
      "outputs": [
        {
          "internalType": "uint256",
          "name": "",
          "type": "uint256"
        }
      ],
      "stateMutability": "view",
      "type": "function"
    },
    {
      "stateMutability": "payable",
      "type": "receive"
    }
  ],
  "bytecode": {
    "object": "0x60a0604052600180556001600355600c6007556001601155604051620020113803806200201183398101604081905262000039916200031f565b62000044336200029c565b600480546001600160a01b03191633179055608081905260005b6005811015620002935760006001600160a01b0316838281518110620000885762000088620003f9565b60200260200101516001600160a01b0316146200028057828181518110620000b457620000b4620003f9565b6020026020010151600b8260058110620000d257620000d2620003f9565b0180546001600160a01b0319166001600160a01b0392831617905560045484519116908490839081106200010a576200010a620003f9565b60200260200101516001600160a01b03160362000145576080516004546001600160a01b031660009081526006602052604090205562000178565b600660008483815181106200015e576200015e620003f9565b6020908102919091018101516001600160a01b0316825201525b60045483516001600160a01b03909116908490839081106200019e576200019e620003f9565b60200260200101516001600160a01b031603620001ff57608051838281518110620001cd57620001cd620003f9565b60200260200101516001600160a01b031660008051602062001ff183398151915260405160405180910390a362000280565b60045483516001600160a01b0390911690849083908110620002255762000225620003f9565b60200260200101516001600160a01b03161462000280576000838281518110620002535762000253620003f9565b60200260200101516001600160a01b031660008051602062001ff183398151915260405160405180910390a35b6200028b816200040f565b90506200005e565b50505062000437565b600080546001600160a01b038381166001600160a01b0319831681178455604051919092169283917f8be0079c531659141344cd1fd0a4f28419497f9722a3daafe3b4186f6b6457e09190a35050565b634e487b7160e01b600052604160045260246000fd5b80516001600160a01b03811681146200031a57600080fd5b919050565b600080604083850312156200033357600080fd5b82516001600160401b03808211156200034b57600080fd5b818501915085601f8301126200036057600080fd5b8151602082821115620003775762000377620002ec565b8160051b604051601f19603f830116810181811086821117156200039f576200039f620002ec565b604052928352818301935084810182019289841115620003be57600080fd5b948201945b83861015620003e757620003d78662000302565b85529482019493820193620003c3565b97909101519698969750505050505050565b634e487b7160e01b600052603260045260246000fd5b6000600182016200043057634e487b7160e01b600052601160045260246000fd5b5060010190565b608051611ba16200045060003960005050611ba16000f3fe6080604052600436106101185760003560e01c80638da5cb5b116100a0578063b651bb6111610064578063b651bb61146103ad578063c43982cc146103c2578063d89d1510146103d8578063ea28d320146103f8578063f2fde38b1461040b5761014b565b80638da5cb5b146102ef5780638efcf5c0146103215780639a9f83831461034b5780639b19251a14610360578063b52d15e21461038d5761014b565b806356b8c724116100e757806356b8c7241461020e57806370a0823114610231578063715018a614610267578063745b07c81461027c578063888b2284146102925761014b565b80631d6a171114610177578063214405fc146101ad57806327e235e3146101c05780634e86eb16146101fb5761014b565b3661014b5760405133903480156108fc02916000818181858888f19350505050158015610149573d6000803e3d6000fd5b005b60405133903480156108fc02916000818181858888f19350505050158015610149573d6000803e3d6000fd5b34801561018357600080fd5b506101976101923660046115de565b61042b565b6040516101a4919061165c565b60405180910390f35b6101496101bb36600461173f565b6105bd565b3480156101cc57600080fd5b506101ed6101db3660046115de565b60066020526000908152604090205481565b6040519081526020016101a4565b610149610209366004611769565b61080d565b61022161021c3660046117b5565b610d8c565b60405190151581526020016101a4565b34801561023d57600080fd5b506101ed61024c3660046115de565b6001600160a01b031660009081526006602052604090205490565b34801561027357600080fd5b50610149611078565b34801561028857600080fd5b506101ed60035481565b34801561029e57600080fd5b506102d86102ad3660046115de565b6001600160a01b03166000908152601360205260409020600281015490546201000090910460ff1691565b6040805192151583526020830191909152016101a4565b3480156102fb57600080fd5b506000546001600160a01b03165b6040516001600160a01b0390911681526020016101a4565b61033461032f36600461183c565b61108c565b6040805192151583529015156020830152016101a4565b34801561035757600080fd5b5061022161120b565b34801561036c57600080fd5b506101ed61037b3660046115de565b600a6020526000908152604090205481565b34801561039957600080fd5b506102216103a83660046115de565b61122f565b6103b5611287565b6040516101a49190611878565b3480156103ce57600080fd5b506101ed60015481565b3480156103e457600080fd5b506103096103f33660046118da565b611309565b61014961040636600461173f565b611329565b34801561041757600080fd5b506101496104263660046115de565b611539565b60606001600160a01b03821661044057600080fd5b6001600160a01b038216600090815260096020908152604080832080548251818502810185019093528083529193909284015b828210156105b2576000848152602090206040805160e08101909152600784029091018054829060ff1660048111156104ae576104ae611600565b60048111156104bf576104bf611600565b815260018201546020820152600282015460ff16151560408201526003820180546060909201916104ef906118f3565b80601f016020809104026020016040519081016040528092919081815260200182805461051b906118f3565b80156105685780601f1061053d57610100808354040283529160200191610568565b820191906000526020600020905b81548152906001019060200180831161054b57829003601f168201915b505050918352505060048201546001600160a01b03908116602080840191909152600584015490911660408301526006909201546060909101529082526001929092019101610473565b505050509050919050565b336105c78161122f565b156107cc576105d58161122f565b6105f257604051637bfa4b9f60e01b815260040160405180910390fd5b60ff82106105ff57600080fd5b6001600160a01b0383166000908152600a602052604090208290556003821115610671576001600160a01b0383166000908152600a60205260408120805484929061064b908490611943565b90915550506001600160a01b0383166000908152600a6020526040902060039055610726565b816001036106c7576001600160a01b0383166000908152600a6020526040812080548492906106a1908490611943565b90915550506001600160a01b0383166000908152600a6020526040902060019055610726565b6000821180156106d75750600382105b15610726576001600160a01b0383166000908152600a602052604081208054849290610704908490611943565b90915550506001600160a01b0383166000908152600a60205260409020600290555b6011546001819003610752576001600160a01b0384166000908152601260205260409020819055610784565b8060000361077f5760016011556001600160a01b0384166000908152601260205260409020819055610784565b600080fd5b604080516001600160a01b0386168152602081018590527f62c1e066774519db9fe35767c15fc33df2f016675b7cc0c330ed185f286a2d52910160405180910390a150505050565b6004546001600160a01b03908116908216036107ef5760ff82106105ff57600080fd5b604051637bfa4b9f60e01b815260040160405180910390fd5b505050565b336108178161122f565b15610adc576108258161122f565b61084257604051637bfa4b9f60e01b815260040160405180910390fd5b6000841161084f57600080fd5b6000831161085c57600080fd5b6001600160a01b03851661086f57600080fd5b3360005b6001600160a01b038716600090815260096020526040902054811015610ad5576001600160a01b03871660009081526009602052604090208054879190839081106108c0576108c061195c565b90600052602060002090600702016001015403610ac5576001600160a01b0387166000908152600960205260409020805460019190839081106109055761090561195c565b906000526020600020906007020160020160006101000a81548160ff0219169083151502179055508660096000896001600160a01b03166001600160a01b0316815260200190815260200160002082815481106109645761096461195c565b6000918252602080832060079290920290910160050180546001600160a01b0319166001600160a01b0394851617905591891681526009909152604090208054859190839081106109b7576109b761195c565b60009182526020909120600790910201805460ff191660018360048111156109e1576109e1611600565b02179055506001600160a01b0387166000908152600960205260409020805486919083908110610a1357610a1361195c565b9060005260206000209060070201600601819055506000610a3261120b565b9050610a3e888261108c565b50507ff41efc8c6b66b2a03b14fd69b985ad19a0b9245f24936163018e9ad06d4c143e838888600960008d6001600160a01b03166001600160a01b031681526020019081526020016000208681548110610a9a57610a9a61195c565b9060005260206000209060070201600301604051610abb9493929190611972565b60405180910390a1505b610ace81611a1b565b9050610873565b5050610d85565b6004546001600160a01b03908116908216036107ef5760008411610aff57600080fd5b60008311610b0c57600080fd5b6001600160a01b038516610b1f57600080fd5b3360005b6001600160a01b038716600090815260096020526040902054811015610ad5576001600160a01b0387166000908152600960205260409020805487919083908110610b7057610b7061195c565b90600052602060002090600702016001015403610d75576001600160a01b038716600090815260096020526040902080546001919083908110610bb557610bb561195c565b906000526020600020906007020160020160006101000a81548160ff0219169083151502179055508660096000896001600160a01b03166001600160a01b031681526020019081526020016000208281548110610c1457610c1461195c565b6000918252602080832060079290920290910160050180546001600160a01b0319166001600160a01b039485161790559189168152600990915260409020805485919083908110610c6757610c6761195c565b60009182526020909120600790910201805460ff19166001836004811115610c9157610c91611600565b02179055506001600160a01b0387166000908152600960205260409020805486919083908110610cc357610cc361195c565b9060005260206000209060070201600601819055506000610ce261120b565b9050610cee888261108c565b50507ff41efc8c6b66b2a03b14fd69b985ad19a0b9245f24936163018e9ad06d4c143e838888600960008d6001600160a01b03166001600160a01b031681526020019081526020016000208681548110610d4a57610d4a61195c565b9060005260206000209060070201600301604051610d6b9493929190611972565b60405180910390a1505b610d7e81611a1b565b9050610b23565b5050505050565b33600081815260066020526040812054909190851115610dab57600080fd5b60098310610db857600080fd5b6001600160a01b03811660009081526006602052604081208054879290610de0908490611943565b90915550506001600160a01b03861660009081526006602052604081208054879290610e0d908490611a34565b9091555050604080516001600160a01b0388168152602081018790527f69ca02dd4edd7bf0a4abb9ed3b7af3f14778db5d61921c7dc7cd545266326de2910160405180910390a16040805160e0810182526000602080830182905282840182905260608084015260a0830191909152600182526001600160a01b038916608083015260c082018890528251601f870182900482028101820190935285835290919086908690819084018382808284376000920182905250606086019490945250506005805490929150610edf90611a1b565b91829055506020808301919091526001600160a01b03831660009081526009825260408120805460018181018355918352929091208351600790930201805484939192839160ff191690836004811115610f3b57610f3b611600565b021790555060208201516001820155604082015160028201805460ff191691151591909117905560608201516003820190610f769082611aab565b5060808201516004820180546001600160a01b039283166001600160a01b03199182161790915560a084015160058401805491909316911617905560c09091015160069091015560075460009067ffffffffffffffff811115610fdb57610fdb611a47565b604051908082528060200260200182016040528015611004578160200160208202803683370190505b50905060005b6007548110156110485760018282815181106110285761102861195c565b9115156020928302919091019091015261104181611a1b565b905061100a565b508060008151811061105c5761105c61195c565b6020026020010151151560011515149350505050949350505050565b611080611560565b61108a6000611577565b565b60408051606081018252439181019182524281526001600160a01b038481166020830190815260108054600181018255600091825284517f1b6847dc741a1b0cd08d278845f9d819d87b734759afb55fe2de5cb82a9ae67260039092029182015591517f1b6847dc741a1b0cd08d278845f9d819d87b734759afb55fe2de5cb82a9ae673830180546001600160a01b031916919094161790925592517f1b6847dc741a1b0cd08d278845f9d819d87b734759afb55fe2de5cb82a9ae67490930192909255600754829190829067ffffffffffffffff81111561117057611170611a47565b604051908082528060200260200182016040528015611199578160200160208202803683370190505b50905060005b6007548110156111dd5760018282815181106111bd576111bd61195c565b911515602092830291909101909101526111d681611a1b565b905061119f565b50806000815181106111f1576111f161195c565b602090810291909101015115156001149694955050505050565b6000806001546001148061122157506003546001145b1561122a575060015b919050565b60008060005b600581101561128057836001600160a01b0316600b826005811061125b5761125b61195c565b01546001600160a01b03160361127057600191505b61127981611a1b565b9050611235565b5092915050565b60606010805480602002602001604051908101604052809291908181526020016000905b828210156113005760008481526020908190206040805160608101825260038602909201805483526001808201546001600160a01b0316848601526002909101549183019190915290835290920191016112ab565b50505050905090565b600b816005811061131957600080fd5b01546001600160a01b0316905081565b336000818152600a602052604090205481908061134557600080fd5b6004811061135257600080fd5b6040805160c08101825285815260006020808301828152838501838152606085018481526001608087018181523360a08901818152818952601388528a892099518a559551928901929092559251600290970180549251935194516001600160a01b03166301000000026301000000600160b81b031995151562010000029590951662010000600160b81b031960ff9586166101000261ffff1990951699909516989098179290921792909216959095179190911790935560069052919091205485111561141f57600080fd5b6003851161142c57600080fd5b6001600160a01b03811660009081526006602052604081208054879290611454908490611943565b90915550506001600160a01b03861660009081526006602052604081208054879290611481908490611a34565b90915550506001600160a01b0381166000908152600a6020908152604080832054600690925282208054919290916114ba908490611a34565b90915550506001600160a01b038082166000908152600a6020908152604080832054938a1683526006909152812080549091906114f8908490611943565b90915550506040516001600160a01b038716907f98eaee7299e9cbfa56cf530fd3a0c6dfa0ccddf4f837b8f025651ad9594647b390600090a2505050505050565b611541611560565b6001600160a01b03811661155457600080fd5b61155d81611577565b50565b6000546001600160a01b0316331461108a57600080fd5b600080546001600160a01b038381166001600160a01b0319831681178455604051919092169283917f8be0079c531659141344cd1fd0a4f28419497f9722a3daafe3b4186f6b6457e09190a35050565b80356001600160a01b038116811461122a57600080fd5b6000602082840312156115f057600080fd5b6115f9826115c7565b9392505050565b634e487b7160e01b600052602160045260246000fd5b6000815180845260005b8181101561163c57602081850181015186830182015201611620565b506000602082860101526020601f19601f83011685010191505092915050565b602080825282518282018190526000919060409081850190600581811b8701840188860187805b8581101561172f57603f198b8503018752825160e081518781106116b557634e487b7160e01b85526021600452602485fd5b8652818b01518b8701528982015115158a8701526060808301518188018390526116e183890182611616565b925050506080808301516116ff828901826001600160a01b03169052565b505060a0828101516001600160a01b03169087015260c09182015191909501529588019591880191600101611683565b50919a9950505050505050505050565b6000806040838503121561175257600080fd5b61175b836115c7565b946020939093013593505050565b6000806000806080858703121561177f57600080fd5b611788856115c7565b935060208501359250604085013591506060850135600581106117aa57600080fd5b939692955090935050565b600080600080606085870312156117cb57600080fd5b6117d4856115c7565b935060208501359250604085013567ffffffffffffffff808211156117f857600080fd5b818701915087601f83011261180c57600080fd5b81358181111561181b57600080fd5b88602082850101111561182d57600080fd5b95989497505060200194505050565b6000806040838503121561184f57600080fd5b611858836115c7565b91506020830135801515811461186d57600080fd5b809150509250929050565b602080825282518282018190526000919060409081850190868401855b828110156118cd57815180518552868101516001600160a01b0316878601528501518585015260609093019290850190600101611895565b5091979650505050505050565b6000602082840312156118ec57600080fd5b5035919050565b600181811c9082168061190757607f821691505b60208210810361192757634e487b7160e01b600052602260045260246000fd5b50919050565b634e487b7160e01b600052601160045260246000fd5b818103818111156119565761195661192d565b92915050565b634e487b7160e01b600052603260045260246000fd5b60018060a01b038516815260006020858184015284604084015260806060840152600084546119a0816118f3565b80608087015260a06001808416600081146119c257600181146119dc57611a0a565b60ff1985168984015283151560051b890183019550611a0a565b896000528660002060005b85811015611a025781548b82018601529083019088016119e7565b8a0184019650505b50939b9a5050505050505050505050565b600060018201611a2d57611a2d61192d565b5060010190565b808201808211156119565761195661192d565b634e487b7160e01b600052604160045260246000fd5b601f82111561080857600081815260208120601f850160051c81016020861015611a845750805b601f850160051c820191505b81811015611aa357828155600101611a90565b505050505050565b815167ffffffffffffffff811115611ac557611ac5611a47565b611ad981611ad384546118f3565b84611a5d565b602080601f831160018114611b0e5760008415611af65750858301515b600019600386901b1c1916600185901b178555611aa3565b600085815260208120601f198616915b82811015611b3d57888601518255948401946001909101908401611b1e565b5085821015611b5b5787850151600019600388901b60f8161c191681555b5050505050600190811b0190555056fea26469706673582212201bb5771d53724a04f4dd46c1c7c41dec179cfbccf2e4acdd5589995386dfe04764736f6c63430008130033fbd610cf0373947747ba15effd5e459c81db984f8723671458c0e8624428ab04",
    "linkReferences": {}
  },
  "methodIdentifiers": {
    "addHistory(address,bool)": "8efcf5c0",
    "addToWhitelist(address,uint256)": "214405fc",
    "administrators(uint256)": "d89d1510",
    "balanceOf(address)": "70a08231",
    "balances(address)": "27e235e3",
    "checkForAdmin(address)": "b52d15e2",
    "dividendFlag()": "745b07c8",
    "getPaymentHistory()": "b651bb61",
    "getPaymentStatus(address)": "888b2284",
    "getPayments(address)": "1d6a1711",
    "getTradingMode()": "9a9f8383",
    "owner()": "8da5cb5b",
    "renounceOwnership()": "715018a6",
    "tradeFlag()": "c43982cc",
    "transfer(address,uint256,string)": "56b8c724",
    "transferOwnership(address)": "f2fde38b",
    "updatePayment(address,uint256,uint256,uint8)": "4e86eb16",
    "whiteTransfer(address,uint256)": "ea28d320",
    "whitelist(address)": "9b19251a"
  },
  "id": 17
}