{
  "abi": [
    {
      "inputs": [
        {
          "internalType": "address[]",
          "name": "_admins",
          "type": "address[]"
        },
        {
          "internalType": "uint256",
          "name": "_totalSupply",
          "type": "uint256"
        }
      ],
      "stateMutability": "nonpayable",
      "type": "constructor"
    },
    {
      "anonymous": false,
      "inputs": [
        {
          "indexed": false,
          "internalType": "address",
          "name": "userAddress",
          "type": "address"
        },
        {
          "indexed": false,
          "internalType": "uint256",
          "name": "tier",
          "type": "uint256"
        }
      ],
      "name": "AddedToWhitelist",
      "type": "event"
    },
    {
      "anonymous": false,
      "inputs": [
        {
          "indexed": true,
          "internalType": "address",
          "name": "previousOwner",
          "type": "address"
        },
        {
          "indexed": true,
          "internalType": "address",
          "name": "newOwner",
          "type": "address"
        }
      ],
      "name": "OwnershipTransferred",
      "type": "event"
    },
    {
      "anonymous": false,
      "inputs": [
        {
          "indexed": false,
          "internalType": "address",
          "name": "admin",
          "type": "address"
        },
        {
          "indexed": false,
          "internalType": "uint256",
          "name": "ID",
          "type": "uint256"
        },
        {
          "indexed": false,
          "internalType": "uint256",
          "name": "amount",
          "type": "uint256"
        },
        {
          "indexed": false,
          "internalType": "string",
          "name": "recipient",
          "type": "string"
        }
      ],
      "name": "PaymentUpdated",
      "type": "event"
    },
    {
      "anonymous": false,
      "inputs": [
        {
          "indexed": false,
          "internalType": "address",
          "name": "recipient",
          "type": "address"
        },
        {
          "indexed": false,
          "internalType": "uint256",
          "name": "amount",
          "type": "uint256"
        }
      ],
      "name": "Transfer",
      "type": "event"
    },
    {
      "anonymous": false,
      "inputs": [
        {
          "indexed": true,
          "internalType": "address",
          "name": "",
          "type": "address"
        }
      ],
      "name": "WhiteListTransfer",
      "type": "event"
    },
    {
      "anonymous": false,
      "inputs": [
        {
          "indexed": true,
          "internalType": "address",
          "name": "",
          "type": "address"
        },
        {
          "indexed": true,
          "internalType": "uint256",
          "name": "",
          "type": "uint256"
        }
      ],
      "name": "supplyChanged",
      "type": "event"
    },
    {
      "stateMutability": "payable",
      "type": "fallback"
    },
    {
      "inputs": [
        {
          "internalType": "address",
          "name": "_updateAddress",
          "type": "address"
        },
        {
          "internalType": "bool",
          "name": "_tradeMode",
          "type": "bool"
        }
      ],
      "name": "addHistory",
      "outputs": [
        {
          "internalType": "bool",
          "name": "status_",
          "type": "bool"
        },
        {
          "internalType": "bool",
          "name": "tradeMode_",
          "type": "bool"
        }
      ],
      "stateMutability": "nonpayable",
      "type": "function"
    },
    {
      "inputs": [
        {
          "internalType": "address",
          "name": "_userAddrs",
          "type": "address"
        },
        {
          "internalType": "uint256",
          "name": "_tier",
          "type": "uint256"
        }
      ],
      "name": "addToWhitelist",
      "outputs": [],
      "stateMutability": "nonpayable",
      "type": "function"
    },
    {
      "inputs": [
        {
          "internalType": "uint256",
          "name": "",
          "type": "uint256"
        }
      ],
      "name": "administrators",
      "outputs": [
        {
          "internalType": "address",
          "name": "",
          "type": "address"
        }
      ],
      "stateMutability": "view",
      "type": "function"
    },
    {
      "inputs": [
        {
          "internalType": "address",
          "name": "_user",
          "type": "address"
        }
      ],
      "name": "balanceOf",
      "outputs": [
        {
          "internalType": "uint256",
          "name": "balance_",
          "type": "uint256"
        }
      ],
      "stateMutability": "view",
      "type": "function"
    },
    {
      "inputs": [
        {
          "internalType": "address",
          "name": "",
          "type": "address"
        }
      ],
      "name": "balances",
      "outputs": [
        {
          "internalType": "uint256",
          "name": "",
          "type": "uint256"
        }
      ],
      "stateMutability": "view",
      "type": "function"
    },
    {
      "inputs": [],
      "name": "basicFlag",
      "outputs": [
        {
          "internalType": "uint256",
          "name": "",
          "type": "uint256"
        }
      ],
      "stateMutability": "view",
      "type": "function"
    },
    {
      "inputs": [
        {
          "internalType": "address",
          "name": "_user",
          "type": "address"
        }
      ],
      "name": "checkForAdmin",
      "outputs": [
        {
          "internalType": "bool",
          "name": "admin_",
          "type": "bool"
        }
      ],
      "stateMutability": "view",
      "type": "function"
    },
    {
      "inputs": [],
      "name": "contractOwner",
      "outputs": [
        {
          "internalType": "address",
          "name": "",
          "type": "address"
        }
      ],
      "stateMutability": "view",
      "type": "function"
    },
    {
      "inputs": [],
      "name": "dividendFlag",
      "outputs": [
        {
          "internalType": "uint256",
          "name": "",
          "type": "uint256"
        }
      ],
      "stateMutability": "view",
      "type": "function"
    },
    {
      "inputs": [],
      "name": "getPaymentHistory",
      "outputs": [
        {
          "components": [
            {
              "internalType": "uint256",
              "name": "lastUpdate",
              "type": "uint256"
            },
            {
              "internalType": "address",
              "name": "updatedBy",
              "type": "address"
            },
            {
              "internalType": "uint256",
              "name": "blockNumber",
              "type": "uint256"
            }
          ],
          "internalType": "struct GasContract.History[]",
          "name": "paymentHistory_",
          "type": "tuple[]"
        }
      ],
      "stateMutability": "payable",
      "type": "function"
    },
    {
      "inputs": [
        {
          "internalType": "address",
          "name": "sender",
          "type": "address"
        }
      ],
      "name": "getPaymentStatus",
      "outputs": [
        {
          "internalType": "bool",
          "name": "",
          "type": "bool"
        },
        {
          "internalType": "uint256",
          "name": "",
          "type": "uint256"
        }
      ],
      "stateMutability": "nonpayable",
      "type": "function"
    },
    {
      "inputs": [
        {
          "internalType": "address",
          "name": "_user",
          "type": "address"
        }
      ],
      "name": "getPayments",
      "outputs": [
        {
          "components": [
            {
              "internalType": "enum GasContract.PaymentType",
              "name": "paymentType",
              "type": "uint8"
            },
            {
              "internalType": "uint256",
              "name": "paymentID",
              "type": "uint256"
            },
            {
              "internalType": "bool",
              "name": "adminUpdated",
              "type": "bool"
            },
            {
              "internalType": "string",
              "name": "recipientName",
              "type": "string"
            },
            {
              "internalType": "address",
              "name": "recipient",
              "type": "address"
            },
            {
              "internalType": "address",
              "name": "admin",
              "type": "address"
            },
            {
              "internalType": "uint256",
              "name": "amount",
              "type": "uint256"
            }
          ],
          "internalType": "struct GasContract.Payment[]",
          "name": "payments_",
          "type": "tuple[]"
        }
      ],
      "stateMutability": "view",
      "type": "function"
    },
    {
      "inputs": [],
      "name": "getTradingMode",
      "outputs": [
        {
          "internalType": "bool",
          "name": "mode_",
          "type": "bool"
        }
      ],
      "stateMutability": "view",
      "type": "function"
    },
    {
      "inputs": [
        {
          "internalType": "address",
          "name": "",
          "type": "address"
        }
      ],
      "name": "isOddWhitelistUser",
      "outputs": [
        {
          "internalType": "uint256",
          "name": "",
          "type": "uint256"
        }
      ],
      "stateMutability": "view",
      "type": "function"
    },
    {
      "inputs": [],
      "name": "isReady",
      "outputs": [
        {
          "internalType": "bool",
          "name": "",
          "type": "bool"
        }
      ],
      "stateMutability": "view",
      "type": "function"
    },
    {
      "inputs": [],
      "name": "owner",
      "outputs": [
        {
          "internalType": "address",
          "name": "",
          "type": "address"
        }
      ],
      "stateMutability": "view",
      "type": "function"
    },
    {
      "inputs": [],
      "name": "paymentCounter",
      "outputs": [
        {
          "internalType": "uint256",
          "name": "",
          "type": "uint256"
        }
      ],
      "stateMutability": "view",
      "type": "function"
    },
    {
      "inputs": [
        {
          "internalType": "uint256",
          "name": "",
          "type": "uint256"
        }
      ],
      "name": "paymentHistory",
      "outputs": [
        {
          "internalType": "uint256",
          "name": "lastUpdate",
          "type": "uint256"
        },
        {
          "internalType": "address",
          "name": "updatedBy",
          "type": "address"
        },
        {
          "internalType": "uint256",
          "name": "blockNumber",
          "type": "uint256"
        }
      ],
      "stateMutability": "view",
      "type": "function"
    },
    {
      "inputs": [
        {
          "internalType": "address",
          "name": "",
          "type": "address"
        },
        {
          "internalType": "uint256",
          "name": "",
          "type": "uint256"
        }
      ],
      "name": "payments",
      "outputs": [
        {
          "internalType": "enum GasContract.PaymentType",
          "name": "paymentType",
          "type": "uint8"
        },
        {
          "internalType": "uint256",
          "name": "paymentID",
          "type": "uint256"
        },
        {
          "internalType": "bool",
          "name": "adminUpdated",
          "type": "bool"
        },
        {
          "internalType": "string",
          "name": "recipientName",
          "type": "string"
        },
        {
          "internalType": "address",
          "name": "recipient",
          "type": "address"
        },
        {
          "internalType": "address",
          "name": "admin",
          "type": "address"
        },
        {
          "internalType": "uint256",
          "name": "amount",
          "type": "uint256"
        }
      ],
      "stateMutability": "view",
      "type": "function"
    },
    {
      "inputs": [],
      "name": "renounceOwnership",
      "outputs": [],
      "stateMutability": "nonpayable",
      "type": "function"
    },
    {
      "inputs": [],
      "name": "totalSupply",
      "outputs": [
        {
          "internalType": "uint256",
          "name": "",
          "type": "uint256"
        }
      ],
      "stateMutability": "view",
      "type": "function"
    },
    {
      "inputs": [],
      "name": "tradeFlag",
      "outputs": [
        {
          "internalType": "uint256",
          "name": "",
          "type": "uint256"
        }
      ],
      "stateMutability": "view",
      "type": "function"
    },
    {
      "inputs": [],
      "name": "tradeMode",
      "outputs": [
        {
          "internalType": "uint256",
          "name": "",
          "type": "uint256"
        }
      ],
      "stateMutability": "view",
      "type": "function"
    },
    {
      "inputs": [],
      "name": "tradePercent",
      "outputs": [
        {
          "internalType": "uint256",
          "name": "",
          "type": "uint256"
        }
      ],
      "stateMutability": "view",
      "type": "function"
    },
    {
      "inputs": [
        {
          "internalType": "address",
          "name": "_recipient",
          "type": "address"
        },
        {
          "internalType": "uint256",
          "name": "_amount",
          "type": "uint256"
        },
        {
          "internalType": "string",
          "name": "_name",
          "type": "string"
        }
      ],
      "name": "transfer",
      "outputs": [
        {
          "internalType": "bool",
          "name": "status_",
          "type": "bool"
        }
      ],
      "stateMutability": "nonpayable",
      "type": "function"
    },
    {
      "inputs": [
        {
          "internalType": "address",
          "name": "newOwner",
          "type": "address"
        }
      ],
      "name": "transferOwnership",
      "outputs": [],
      "stateMutability": "nonpayable",
      "type": "function"
    },
    {
      "inputs": [
        {
          "internalType": "address",
          "name": "_user",
          "type": "address"
        },
        {
          "internalType": "uint256",
          "name": "_ID",
          "type": "uint256"
        },
        {
          "internalType": "uint256",
          "name": "_amount",
          "type": "uint256"
        },
        {
          "internalType": "enum GasContract.PaymentType",
          "name": "_type",
          "type": "uint8"
        }
      ],
      "name": "updatePayment",
      "outputs": [],
      "stateMutability": "nonpayable",
      "type": "function"
    },
    {
      "inputs": [
        {
          "internalType": "address",
          "name": "",
          "type": "address"
        }
      ],
      "name": "whiteListStruct",
      "outputs": [
        {
          "internalType": "uint256",
          "name": "amount",
          "type": "uint256"
        },
        {
          "internalType": "uint256",
          "name": "valueA",
          "type": "uint256"
        },
        {
          "internalType": "uint256",
          "name": "bigValue",
          "type": "uint256"
        },
        {
          "internalType": "uint256",
          "name": "valueB",
          "type": "uint256"
        },
        {
          "internalType": "bool",
          "name": "paymentStatus",
          "type": "bool"
        },
        {
          "internalType": "address",
          "name": "sender",
          "type": "address"
        }
      ],
      "stateMutability": "view",
      "type": "function"
    },
    {
      "inputs": [
        {
          "internalType": "address",
          "name": "_recipient",
          "type": "address"
        },
        {
          "internalType": "uint256",
          "name": "_amount",
          "type": "uint256"
        }
      ],
      "name": "whiteTransfer",
      "outputs": [],
      "stateMutability": "nonpayable",
      "type": "function"
    },
    {
      "inputs": [
        {
          "internalType": "address",
          "name": "",
          "type": "address"
        }
      ],
      "name": "whitelist",
      "outputs": [
        {
          "internalType": "uint256",
          "name": "",
          "type": "uint256"
        }
      ],
      "stateMutability": "view",
      "type": "function"
    },
    {
      "stateMutability": "payable",
      "type": "receive"
    }
  ],
  "bytecode": {
    "object": "0x6080604052600180805560006002819055600382905560048190556005819055600c6007556009556011805460ff191690556013553480156200004157600080fd5b5060405162003056380380620030568339810160408190526200006491620003c6565b620000786200007262000355565b62000359565b600880546001600160a01b03191633179055600481905560005b60058110156200034c5760006001600160a01b0316838281518110620000c857634e487b7160e01b600052603260045260246000fd5b60200260200101516001600160a01b03161462000337578281815181106200010057634e487b7160e01b600052603260045260246000fd5b6020026020010151600c82600581106200012a57634e487b7160e01b600052603260045260246000fd5b0180546001600160a01b0319166001600160a01b0392831617905560085484519116908490839081106200016e57634e487b7160e01b600052603260045260246000fd5b60200260200101516001600160a01b03161415620001aa576004546008546001600160a01b0316600090815260066020526040902055620001fe565b600060066000858481518110620001d157634e487b7160e01b600052603260045260246000fd5b60200260200101516001600160a01b03166001600160a01b03168152602001908152602001600020819055505b60085483516001600160a01b03909116908490839081106200023057634e487b7160e01b600052603260045260246000fd5b60200260200101516001600160a01b031614156200029e576004548382815181106200026c57634e487b7160e01b600052603260045260246000fd5b60200260200101516001600160a01b03166000805160206200303683398151915260405160405180910390a362000337565b60085483516001600160a01b0390911690849083908110620002d057634e487b7160e01b600052603260045260246000fd5b60200260200101516001600160a01b031614620003375760008382815181106200030a57634e487b7160e01b600052603260045260246000fd5b60200260200101516001600160a01b03166000805160206200303683398151915260405160405180910390a35b8062000343816200049c565b91505062000092565b505050620004da565b3390565b600080546001600160a01b038381166001600160a01b0319831681178455604051919092169283917f8be0079c531659141344cd1fd0a4f28419497f9722a3daafe3b4186f6b6457e09190a35050565b80516001600160a01b0381168114620003c157600080fd5b919050565b60008060408385031215620003d9578182fd5b82516001600160401b0380821115620003f0578384fd5b818501915085601f83011262000404578384fd5b81516020828211156200041b576200041b620004c4565b808202604051828282010181811086821117156200043d576200043d620004c4565b604052838152828101945085830182870184018b10156200045c578889fd5b8896505b8487101562000489576200047481620003a9565b86526001969096019594830194830162000460565b5097909101519698969750505050505050565b6000600019821415620004bd57634e487b7160e01b81526011600452602481fd5b5060010190565b634e487b7160e01b600052604160045260246000fd5b612b4c80620004ea6000396000f3fe6080604052600436106101d15760003560e01c80638efcf5c0116100f7578063b52d15e211610095578063ce606ee011610064578063ce606ee01461057c578063d89d151014610591578063ea28d320146105b1578063f2fde38b146105d157610205565b8063b52d15e21461051d578063b651bb611461053d578063c43982cc14610552578063cbd5d73f1461056757610205565b8063a094a031116100d1578063a094a03114610486578063a30da0691461049b578063a5e047b8146104bb578063ab63385c146104ea57610205565b80638efcf5c0146104235780639a9f8383146104515780639b19251a1461046657610205565b80635de458131161016f578063745b07c81161013e578063745b07c8146103a957806376840b60146103be578063888b2284146103d35780638da5cb5b1461040157610205565b80635de458131461032d5780636fd47b441461035f57806370a0823114610374578063715018a61461039457610205565b806327e235e3116101ab57806327e235e3146102ab5780632c01c922146102cb5780634e86eb16146102e057806356b8c7241461030057610205565b806318160ddd146102315780631d6a17111461025c578063214405fc1461028957610205565b366102055760405133903480156108fc02916000818181858888f19350505050158015610202573d6000803e3d6000fd5b50005b60405133903480156108fc02916000818181858888f19350505050158015610202573d6000803e3d6000fd5b34801561023d57600080fd5b506102466105f1565b6040516102539190612a14565b60405180910390f35b34801561026857600080fd5b5061027c610277366004611d81565b6105f7565b60405161025391906120b0565b34801561029557600080fd5b506102a96102a4366004611ddc565b6107c2565b005b3480156102b757600080fd5b506102466102c6366004611d81565b610a42565b3480156102d757600080fd5b50610246610a54565b3480156102ec57600080fd5b506102a96102fb366004611e87565b610a5a565b34801561030c57600080fd5b5061032061031b366004611e05565b611114565b6040516102539190612171565b34801561033957600080fd5b5061034d610348366004611d81565b61144f565b60405161025396959493929190612a3c565b34801561036b57600080fd5b50610246611491565b34801561038057600080fd5b5061024661038f366004611d81565b611497565b3480156103a057600080fd5b506102a96114b2565b3480156103b557600080fd5b506102466114c6565b3480156103ca57600080fd5b506102466114cc565b3480156103df57600080fd5b506103f36103ee366004611d81565b6114d2565b60405161025392919061218e565b34801561040d57600080fd5b506104166114f8565b6040516102539190611f56565b34801561042f57600080fd5b5061044361043e366004611da2565b611507565b60405161025392919061217c565b34801561045d57600080fd5b506103206116af565b34801561047257600080fd5b50610246610481366004611d81565b6116dc565b34801561049257600080fd5b506103206116ee565b3480156104a757600080fd5b506102466104b6366004611d81565b6116f7565b3480156104c757600080fd5b506104db6104d6366004611ed1565b611709565b60405161025393929190612a1d565b3480156104f657600080fd5b5061050a610505366004611ddc565b611748565b604051610253979695949392919061219e565b34801561052957600080fd5b50610320610538366004611d81565b611840565b6105456118a8565b604051610253919061204e565b34801561055e57600080fd5b5061024661192a565b34801561057357600080fd5b50610246611930565b34801561058857600080fd5b50610416611936565b34801561059d57600080fd5b506104166105ac366004611ed1565b611945565b3480156105bd57600080fd5b506102a96105cc366004611ddc565b611965565b3480156105dd57600080fd5b506102a96105ec366004611d81565b611b9d565b60045481565b60606001600160a01b0382166106285760405162461bcd60e51b815260040161061f906129a1565b60405180910390fd5b6001600160a01b0382166000908152600a6020908152604080832080548251818502810185019093528083529193909284015b828210156107b6576000848152602090206040805160e08101909152600784029091018054829060ff1660048111156106a457634e487b7160e01b600052602160045260246000fd5b60048111156106c357634e487b7160e01b600052602160045260246000fd5b815260018201546020820152600282015460ff16151560408201526003820180546060909201916106f390612aaa565b80601f016020809104026020016040519081016040528092919081815260200182805461071f90612aaa565b801561076c5780601f106107415761010080835404028352916020019161076c565b820191906000526020600020905b81548152906001019060200180831161074f57829003601f168201915b505050918352505060048201546001600160a01b0390811660208084019190915260058401549091166040830152600690920154606090910152908252600192909201910161065b565b5050505090505b919050565b336107cc81611840565b156109ef576107da81611840565b6107f65760405162461bcd60e51b815260040161061f906128e3565b60ff82106108165760405162461bcd60e51b815260040161061f906123f7565b6001600160a01b0383166000908152600b602052604090208290556003821115610888576001600160a01b0383166000908152600b602052604081208054849290610862908490612a93565b90915550506001600160a01b0383166000908152600b602052604090206003905561093e565b81600114156108df576001600160a01b0383166000908152600b6020526040812080548492906108b9908490612a93565b90915550506001600160a01b0383166000908152600b602052604090206001905561093e565b6000821180156108ef5750600382105b1561093e576001600160a01b0383166000908152600b60205260408120805484929061091c908490612a93565b90915550506001600160a01b0383166000908152600b60205260409020600290555b601354600181141561096e57600060138190556001600160a01b03851681526014602052604090208190556109b0565b806109985760016013556001600160a01b03841660009081526014602052604090208190556109b0565b60405162461bcd60e51b815260040161061f9061255b565b7f62c1e066774519db9fe35767c15fc33df2f016675b7cc0c330ed185f286a2d5284846040516109e1929190611f6a565b60405180910390a150610a3d565b6008546001600160a01b0382811691161415610a255760ff82106108165760405162461bcd60e51b815260040161061f906123f7565b60405162461bcd60e51b815260040161061f90612717565b505050565b60066020526000908152604090205481565b60025481565b33610a6481611840565b15610dc657610a7281611840565b610a8e5760405162461bcd60e51b815260040161061f906128e3565b60008411610aae5760405162461bcd60e51b815260040161061f90612238565b60008311610ace5760405162461bcd60e51b815260040161061f90612616565b6001600160a01b038516610af45760405162461bcd60e51b815260040161061f9061282b565b3360005b6001600160a01b0387166000908152600a6020526040902054811015610dbf576001600160a01b0387166000908152600a60205260409020805487919083908110610b5357634e487b7160e01b600052603260045260246000fd5b9060005260206000209060070201600101541415610dad576001600160a01b0387166000908152600a6020526040902080546001919083908110610ba757634e487b7160e01b600052603260045260246000fd5b906000526020600020906007020160020160006101000a81548160ff02191690831515021790555086600a6000896001600160a01b03166001600160a01b031681526020019081526020016000208281548110610c1457634e487b7160e01b600052603260045260246000fd5b6000918252602080832060079290920290910160050180546001600160a01b0319166001600160a01b039485161790559189168152600a90915260409020805485919083908110610c7557634e487b7160e01b600052603260045260246000fd5b60009182526020909120600790910201805460ff19166001836004811115610cad57634e487b7160e01b600052602160045260246000fd5b02179055506001600160a01b0387166000908152600a60205260409020805486919083908110610ced57634e487b7160e01b600052603260045260246000fd5b9060005260206000209060070201600601819055506000610d0c6116af565b9050610d188882611507565b50507ff41efc8c6b66b2a03b14fd69b985ad19a0b9245f24936163018e9ad06d4c143e838888600a60008d6001600160a01b03166001600160a01b031681526020019081526020016000208681548110610d8257634e487b7160e01b600052603260045260246000fd5b9060005260206000209060070201600301604051610da39493929190611f83565b60405180910390a1505b80610db781612ae5565b915050610af8565b505061110d565b6008546001600160a01b0382811691161415610a255760008411610dfc5760405162461bcd60e51b815260040161061f90612238565b60008311610e1c5760405162461bcd60e51b815260040161061f90612616565b6001600160a01b038516610e425760405162461bcd60e51b815260040161061f9061282b565b3360005b6001600160a01b0387166000908152600a6020526040902054811015610dbf576001600160a01b0387166000908152600a60205260409020805487919083908110610ea157634e487b7160e01b600052603260045260246000fd5b90600052602060002090600702016001015414156110fb576001600160a01b0387166000908152600a6020526040902080546001919083908110610ef557634e487b7160e01b600052603260045260246000fd5b906000526020600020906007020160020160006101000a81548160ff02191690831515021790555086600a6000896001600160a01b03166001600160a01b031681526020019081526020016000208281548110610f6257634e487b7160e01b600052603260045260246000fd5b6000918252602080832060079290920290910160050180546001600160a01b0319166001600160a01b039485161790559189168152600a90915260409020805485919083908110610fc357634e487b7160e01b600052603260045260246000fd5b60009182526020909120600790910201805460ff19166001836004811115610ffb57634e487b7160e01b600052602160045260246000fd5b02179055506001600160a01b0387166000908152600a6020526040902080548691908390811061103b57634e487b7160e01b600052603260045260246000fd5b906000526020600020906007020160060181905550600061105a6116af565b90506110668882611507565b50507ff41efc8c6b66b2a03b14fd69b985ad19a0b9245f24936163018e9ad06d4c143e838888600a60008d6001600160a01b03166001600160a01b0316815260200190815260200160002086815481106110d057634e487b7160e01b600052603260045260246000fd5b90600052602060002090600702016003016040516110f19493929190611f83565b60405180910390a1505b8061110581612ae5565b915050610e46565b5050505050565b336000818152600660205260408120549091908511156111465760405162461bcd60e51b815260040161061f90612470565b600983106111665760405162461bcd60e51b815260040161061f90612682565b6001600160a01b0381166000908152600660205260408120805487929061118e908490612a93565b90915550506001600160a01b038616600090815260066020526040812080548792906111bb908490612a7b565b90915550506040517f69ca02dd4edd7bf0a4abb9ed3b7af3f14778db5d61921c7dc7cd545266326de2906111f29088908890611f6a565b60405180910390a1611202611c6a565b600060a082018190526040820152600181819052506001600160a01b038716608082015260c08101869052604080516020601f8701819004810282018101909252858152908690869081908401838280828437600092018290525060608601949094525050600580549092915061127890612ae5565b91829055506020808301919091526001600160a01b0383166000908152600a825260408120805460018181018355918352929091208351600790930201805484939192839160ff1916908360048111156112e257634e487b7160e01b600052602160045260246000fd5b02179055506020828101516001830155604083015160028301805460ff1916911515919091179055606083015180516113219260038501920190611ca7565b5060808201516004820180546001600160a01b039283166001600160a01b03199182161790915560a084015160058401805491909316911617905560c09091015160069091015560075460009067ffffffffffffffff81111561139457634e487b7160e01b600052604160045260246000fd5b6040519080825280602002602001820160405280156113bd578160200160208202803683370190505b50905060005b6007548110156114115760018282815181106113ef57634e487b7160e01b600052603260045260246000fd5b911515602092830291909101909101528061140981612ae5565b9150506113c3565b508060008151811061143357634e487b7160e01b600052603260045260246000fd5b6020026020010151151560011515149350505050949350505050565b601560205260009081526040902080546001820154600283015460038401546004909401549293919290919060ff81169061010090046001600160a01b031686565b60095481565b6001600160a01b031660009081526006602052604090205490565b6114ba611bd7565b6114c46000611c16565b565b60035481565b60055481565b6001600160a01b031660009081526015602052604090206004810154905460ff90911691565b6000546001600160a01b031690565b600080611512611d2b565b43604082019081524282526001600160a01b038681166020840190815260128054600181018255600091825285517fbb8a6a4669ba250d26cd7a459eca9d215f8307e33aebe50379bc5a3617ec344460039092029182015591517fbb8a6a4669ba250d26cd7a459eca9d215f8307e33aebe50379bc5a3617ec3445830180546001600160a01b031916919094161790925591517fbb8a6a4669ba250d26cd7a459eca9d215f8307e33aebe50379bc5a3617ec34469092019190915560075467ffffffffffffffff8111156115f657634e487b7160e01b600052604160045260246000fd5b60405190808252806020026020018201604052801561161f578160200160208202803683370190505b50905060005b60075481101561167357600182828151811061165157634e487b7160e01b600052603260045260246000fd5b911515602092830291909101909101528061166b81612ae5565b915050611625565b508060008151811061169557634e487b7160e01b600052603260045260246000fd5b602090810291909101015115156001149694955050505050565b60018054600091829114806116c657506003546001145b156116d3575060016116d7565b5060005b905090565b600b6020526000908152604090205481565b60115460ff1681565b60146020526000908152604090205481565b6012818154811061171957600080fd5b60009182526020909120600390910201805460018201546002909201549092506001600160a01b039091169083565b600a602052816000526040600020818154811061176457600080fd5b6000918252602090912060079091020180546001820154600283015460038401805460ff9485169750929550921692919061179e90612aaa565b80601f01602080910402602001604051908101604052809291908181526020018280546117ca90612aaa565b80156118175780601f106117ec57610100808354040283529160200191611817565b820191906000526020600020905b8154815290600101906020018083116117fa57829003601f168201915b505050506004830154600584015460069094015492936001600160a01b03918216939116915087565b600080805b60058110156118a157836001600160a01b0316600c826005811061187957634e487b7160e01b600052603260045260246000fd5b01546001600160a01b0316141561188f57600191505b8061189981612ae5565b915050611845565b5092915050565b60606012805480602002602001604051908101604052809291908181526020016000905b828210156119215760008481526020908190206040805160608101825260038602909201805483526001808201546001600160a01b0316848601526002909101549183019190915290835290920191016118cc565b50505050905090565b60015481565b60075481565b6008546001600160a01b031681565b600c816005811061195557600080fd5b01546001600160a01b0316905081565b336000818152600b60205260409020548190806119945760405162461bcd60e51b815260040161061f906124d8565b600481106119b45760405162461bcd60e51b815260040161061f906122a0565b6040805160c08101825285815260006020808301828152838501838152606085018481526001608087018181523360a08901818152818952601588528a892099518a55955192890192909255925160028801559051600387015590516004909501805492516001600160a01b031661010002610100600160a81b031996151560ff19909416939093179590951691909117909355600690529190912054851115611a705760405162461bcd60e51b815260040161061f90612933565b60038511611a905760405162461bcd60e51b815260040161061f906125a0565b6001600160a01b03811660009081526006602052604081208054879290611ab8908490612a93565b90915550506001600160a01b03861660009081526006602052604081208054879290611ae5908490612a7b565b90915550506001600160a01b0381166000908152600b602090815260408083205460069092528220805491929091611b1e908490612a7b565b90915550506001600160a01b038082166000908152600b6020908152604080832054938a168352600690915281208054909190611b5c908490612a93565b90915550506040516001600160a01b038716907f98eaee7299e9cbfa56cf530fd3a0c6dfa0ccddf4f837b8f025651ad9594647b390600090a2505050505050565b611ba5611bd7565b6001600160a01b038116611bcb5760405162461bcd60e51b815260040161061f906121f2565b611bd481611c16565b50565b611bdf611c66565b6001600160a01b0316611bf06114f8565b6001600160a01b0316146114c45760405162461bcd60e51b815260040161061f906128ae565b600080546001600160a01b038381166001600160a01b0319831681178455604051919092169283917f8be0079c531659141344cd1fd0a4f28419497f9722a3daafe3b4186f6b6457e09190a35050565b3390565b6040805160e081019091528060008152600060208201819052604082018190526060808301526080820181905260a0820181905260c09091015290565b828054611cb390612aaa565b90600052602060002090601f016020900481019282611cd55760008555611d1b565b82601f10611cee57805160ff1916838001178555611d1b565b82800160010185558215611d1b579182015b82811115611d1b578251825591602001919060010190611d00565b50611d27929150611d55565b5090565b60405180606001604052806000815260200160006001600160a01b03168152602001600081525090565b5b80821115611d275760008155600101611d56565b80356001600160a01b03811681146107bd57600080fd5b600060208284031215611d92578081fd5b611d9b82611d6a565b9392505050565b60008060408385031215611db4578081fd5b611dbd83611d6a565b915060208301358015158114611dd1578182fd5b809150509250929050565b60008060408385031215611dee578182fd5b611df783611d6a565b946020939093013593505050565b60008060008060608587031215611e1a578182fd5b611e2385611d6a565b935060208501359250604085013567ffffffffffffffff80821115611e46578384fd5b818701915087601f830112611e59578384fd5b813581811115611e67578485fd5b886020828501011115611e78578485fd5b95989497505060200194505050565b60008060008060808587031215611e9c578384fd5b611ea585611d6a565b93506020850135925060408501359150606085013560058110611ec6578182fd5b939692955090935050565b600060208284031215611ee2578081fd5b5035919050565b60058110611f0757634e487b7160e01b600052602160045260246000fd5b9052565b60008151808452815b81811015611f3057602081850181015186830182015201611f14565b81811115611f415782602083870101525b50601f01601f19169290920160200192915050565b6001600160a01b0391909116815260200190565b6001600160a01b03929092168252602082015260400190565b6001600160a01b038516815260208082018590526040820184905260806060830152825460009190829060028104600182811680611fc257607f831692505b858310811415611fe057634e487b7160e01b87526022600452602487fd5b611fed8360808a01612a14565b81801561200157600181146120125761203c565b60ff1986168252878201965061203c565b61201b8b612a6f565b895b868110156120365781548482015290850190890161201d565b83019750505b50949c9b505050505050505050505050565b602080825282518282018190526000919060409081850190868401855b828110156120a357815180518552868101516001600160a01b031687860152850151858501526060909301929085019060010161206b565b5091979650505050505050565b60208082528251828201819052600091906040908185019080840286018301878501865b8381101561216357603f19898403018552815160e06120f4858351611ee9565b888201518986015287820151151588860152606080830151828288015261211d83880182611f0b565b6080858101516001600160a01b03908116918a019190915260a0808701519091169089015260c094850151949097019390935250505093860193908601906001016120d4565b509098975050505050505050565b901515815260200190565b91151582521515602082015260400190565b9115158252602082015260400190565b60006121aa828a611ee9565b876020830152861515604083015260e060608301526121cc60e0830187611f0b565b6001600160a01b0395861660808401529390941660a082015260c0015295945050505050565b60208082526026908201527f4f776e61626c653a206e6577206f776e657220697320746865207a65726f206160408201526564647265737360d01b606082015260800190565b60208082526042908201527f47617320436f6e7472616374202d20557064617465205061796d656e7420667560408201527f6e6374696f6e202d204944206d7573742062652067726561746572207468616e606082015261020360f41b608082015260a00190565b6020808252610108908201527f47617320436f6e747261637420436865636b496657686974654c69737465642060408201527f6d6f646966696572203a207265766572742068617070656e656420626563617560608201527f73652074686520757365722773207469657220697320696e636f72726563742c60808201527f2069742063616e6e6f74206265206f766572203420617320746865206f6e6c7960a08201527f20746965722077652068617665206172653a20312c20322c20333b207468657260c08201527f666f7265203420697320616e20696e76616c6964207469657220666f7220746860e08201527f6520776869746c697374206f66207468697320636f6e74726163742e206d616b6101008201527f65207375726520776869746c6973742074696572732077657265207365742063610120820152676f72726563746c7960c01b6101408201526101600190565b60208082526053908201527f47617320436f6e7472616374202d20616464546f57686974656c69737420667560408201527f6e6374696f6e202d202074696572206c6576656c2073686f756c64206e6f742060608201527262652067726561746572207468616e2032353560681b608082015260a00190565b60208082526042908201527f47617320436f6e7472616374202d205472616e736665722066756e6374696f6e60408201527f202d2053656e6465722068617320696e73756666696369656e742042616c616e606082015261636560f01b608082015260a00190565b6020808252605e908201527f47617320436f6e747261637420436865636b496657686974654c69737465642060408201527f6d6f646966696572203a207265766572742068617070656e656420626563617560608201527f7365207468652075736572206973206e6f742077686974656c69737465640000608082015260a00190565b60208082526025908201527f436f6e7472616374206861636b65642c20696d706f7369626c652c2063616c6c60408201526402068656c760dc1b606082015260800190565b60208082526050908201527f47617320436f6e7472616374202d2077686974655472616e736665727320667560408201527f6e6374696f6e202d20616d6f756e7420746f2073656e64206861766520746f2060608201526f626520626967676572207468616e203360801b608082015260a00190565b60208082526046908201527f47617320436f6e7472616374202d20557064617465205061796d656e7420667560408201527f6e6374696f6e202d20416d6f756e74206d75737420626520677265617465722060608201526507468616e20360d41b608082015260a00190565b60208082526069908201527f47617320436f6e7472616374202d205472616e736665722066756e6374696f6e60408201527f202d202054686520726563697069656e74206e616d6520697320746f6f206c6f60608201527f6e672c2074686572652069732061206d6178206c656e677468206f662038206360808201526868617261637465727360b81b60a082015260c00190565b602080825260d4908201527f4572726f7220696e2047617320636f6e7472616374202d206f6e6c7941646d6960408201527f6e4f724f776e6572206d6f646966696572203a2072657665727420686170706560608201527f6e6564206265636175736520746865206f726967696e61746f72206f6620746860808201527f65207472616e73616374696f6e20776173206e6f74207468652061646d696e2c60a08201527f20616e6420667572746865726d6f7265206865207761736e277420746865206f60c08201527f776e6572206f662074686520636f6e74726163742c20736f2068652063616e6e60e08201527337ba10393ab7103a3434b990333ab731ba34b7b760611b6101008201526101200190565b60208082526059908201527f47617320436f6e7472616374202d20557064617465205061796d656e7420667560408201527f6e6374696f6e202d2041646d696e6973747261746f72206d757374206861766560608201527f20612076616c6964206e6f6e207a65726f206164647265737300000000000000608082015260a00190565b6020808252818101527f4f776e61626c653a2063616c6c6572206973206e6f7420746865206f776e6572604082015260600190565b60208082526030908201527f47617320436f6e7472616374204f6e6c792041646d696e20436865636b2d202060408201526f21b0b63632b9103737ba1030b236b4b760811b606082015260800190565b60208082526048908201527f47617320436f6e7472616374202d2077686974655472616e736665727320667560408201527f6e6374696f6e202d2053656e6465722068617320696e73756666696369656e746060820152672042616c616e636560c01b608082015260a00190565b6020808252604d908201527f47617320436f6e7472616374202d206765745061796d656e74732066756e637460408201527f696f6e202d2055736572206d757374206861766520612076616c6964206e6f6e60608201526c207a65726f206164647265737360981b608082015260a00190565b90815260200190565b9283526001600160a01b03919091166020830152604082015260600190565b958652602086019490945260408501929092526060840152151560808301526001600160a01b031660a082015260c00190565b60009081526020902090565b60008219821115612a8e57612a8e612b00565b500190565b600082821015612aa557612aa5612b00565b500390565b600281046001821680612abe57607f821691505b60208210811415612adf57634e487b7160e01b600052602260045260246000fd5b50919050565b6000600019821415612af957612af9612b00565b5060010190565b634e487b7160e01b600052601160045260246000fdfea2646970667358221220353d101cbf2d564d6c4ecfeaad827599f578095551a0fb193b8533b06a658ee764736f6c63430008000033fbd610cf0373947747ba15effd5e459c81db984f8723671458c0e8624428ab04",
    "linkReferences": {}
  },
  "methodIdentifiers": {
    "addHistory(address,bool)": "8efcf5c0",
    "addToWhitelist(address,uint256)": "214405fc",
    "administrators(uint256)": "d89d1510",
    "balanceOf(address)": "70a08231",
    "balances(address)": "27e235e3",
    "basicFlag()": "2c01c922",
    "checkForAdmin(address)": "b52d15e2",
    "contractOwner()": "ce606ee0",
    "dividendFlag()": "745b07c8",
    "getPaymentHistory()": "b651bb61",
    "getPaymentStatus(address)": "888b2284",
    "getPayments(address)": "1d6a1711",
    "getTradingMode()": "9a9f8383",
    "isOddWhitelistUser(address)": "a30da069",
    "isReady()": "a094a031",
    "owner()": "8da5cb5b",
    "paymentCounter()": "76840b60",
    "paymentHistory(uint256)": "a5e047b8",
    "payments(address,uint256)": "ab63385c",
    "renounceOwnership()": "715018a6",
    "totalSupply()": "18160ddd",
    "tradeFlag()": "c43982cc",
    "tradeMode()": "6fd47b44",
    "tradePercent()": "cbd5d73f",
    "transfer(address,uint256,string)": "56b8c724",
    "transferOwnership(address)": "f2fde38b",
    "updatePayment(address,uint256,uint256,uint8)": "4e86eb16",
    "whiteListStruct(address)": "5de45813",
    "whiteTransfer(address,uint256)": "ea28d320",
    "whitelist(address)": "9b19251a"
  },
  "id": 17
}