{
  "abi": [
    {
      "inputs": [
        {
          "internalType": "address[]",
          "name": "_admins",
          "type": "address[]"
        },
        {
          "internalType": "uint256",
          "name": "_totalSupply",
          "type": "uint256"
        }
      ],
      "stateMutability": "nonpayable",
      "type": "constructor"
    },
    {
      "anonymous": false,
      "inputs": [
        {
          "indexed": true,
          "internalType": "address",
          "name": "userAddress",
          "type": "address"
        },
        {
          "indexed": true,
          "internalType": "uint256",
          "name": "tier",
          "type": "uint256"
        }
      ],
      "name": "AddedToWhitelist",
      "type": "event"
    },
    {
      "anonymous": false,
      "inputs": [
        {
          "indexed": true,
          "internalType": "address",
          "name": "",
          "type": "address"
        }
      ],
      "name": "WhiteListTransfer",
      "type": "event"
    },
    {
      "inputs": [
        {
          "internalType": "address",
          "name": "_userAddrs",
          "type": "address"
        },
        {
          "internalType": "uint256",
          "name": "_tier",
          "type": "uint256"
        }
      ],
      "name": "addToWhitelist",
      "outputs": [],
      "stateMutability": "nonpayable",
      "type": "function"
    },
    {
      "inputs": [
        {
          "internalType": "uint256",
          "name": "",
          "type": "uint256"
        }
      ],
      "name": "administrators",
      "outputs": [
        {
          "internalType": "address",
          "name": "",
          "type": "address"
        }
      ],
      "stateMutability": "view",
      "type": "function"
    },
    {
      "inputs": [
        {
          "internalType": "address",
          "name": "_user",
          "type": "address"
        }
      ],
      "name": "balanceOf",
      "outputs": [
        {
          "internalType": "uint256",
          "name": "balance_",
          "type": "uint256"
        }
      ],
      "stateMutability": "view",
      "type": "function"
    },
    {
      "inputs": [
        {
          "internalType": "address",
          "name": "",
          "type": "address"
        }
      ],
      "name": "balances",
      "outputs": [
        {
          "internalType": "uint256",
          "name": "",
          "type": "uint256"
        }
      ],
      "stateMutability": "view",
      "type": "function"
    },
    {
      "inputs": [
        {
          "internalType": "address",
          "name": "sender",
          "type": "address"
        }
      ],
      "name": "getPaymentStatus",
      "outputs": [
        {
          "internalType": "bool",
          "name": "_paymentStatus",
          "type": "bool"
        },
        {
          "internalType": "uint256",
          "name": "_amount",
          "type": "uint256"
        }
      ],
      "stateMutability": "view",
      "type": "function"
    },
    {
      "inputs": [
        {
          "internalType": "address",
          "name": "_recipient",
          "type": "address"
        },
        {
          "internalType": "uint256",
          "name": "_amount",
          "type": "uint256"
        },
        {
          "internalType": "string",
          "name": "_name",
          "type": "string"
        }
      ],
      "name": "transfer",
      "outputs": [],
      "stateMutability": "nonpayable",
      "type": "function"
    },
    {
      "inputs": [
        {
          "internalType": "address",
          "name": "_recipient",
          "type": "address"
        },
        {
          "internalType": "uint256",
          "name": "_amount",
          "type": "uint256"
        }
      ],
      "name": "whiteTransfer",
      "outputs": [],
      "stateMutability": "nonpayable",
      "type": "function"
    },
    {
      "inputs": [
        {
          "internalType": "address",
          "name": "",
          "type": "address"
        }
      ],
      "name": "whitelist",
      "outputs": [
        {
          "internalType": "uint256",
          "name": "",
          "type": "uint256"
        }
      ],
      "stateMutability": "view",
      "type": "function"
    }
  ],
  "bytecode": {
    "object": "0x60a06040526000805460ff1916600117905534801561001d57600080fd5b5060405161077838038061077883398101604081905261003c91610145565b60008054610100600160a81b031916336101000217815560808290525b600581101561010b5782818151811061007457610074610211565b60200260200101516004826005811061008f5761008f610211565b0180546001600160a01b0319166001600160a01b039283161790556000548451610100909104909116908490839081106100cb576100cb610211565b60200260200101516001600160a01b031603610103576080516000805461010090046001600160a01b03168152600160205260409020555b600101610059565b505050610227565b634e487b7160e01b600052604160045260246000fd5b80516001600160a01b038116811461014057600080fd5b919050565b6000806040838503121561015857600080fd5b82516001600160401b038082111561016f57600080fd5b818501915085601f83011261018357600080fd5b815160208282111561019757610197610113565b8160051b604051601f19603f830116810181811086821117156101bc576101bc610113565b6040529283528183019350848101820192898411156101da57600080fd5b948201945b838610156101ff576101f086610129565b855294820194938201936101df565b97909101519698969750505050505050565b634e487b7160e01b600052603260045260246000fd5b60805161053961023f600039600050506105396000f3fe608060405234801561001057600080fd5b50600436106100885760003560e01c8063888b22841161005b578063888b2284146101115780639b19251a1461015c578063d89d15101461017c578063ea28d320146101a757600080fd5b8063214405fc1461008d57806327e235e3146100a257806356b8c724146100d557806370a08231146100e8575b600080fd5b6100a061009b3660046103d5565b6101ba565b005b6100c26100b03660046103ff565b60016020526000908152604090205481565b6040519081526020015b60405180910390f35b6100a06100e3366004610421565b610246565b6100c26100f63660046103ff565b6001600160a01b031660009081526001602052604090205490565b61014561011f3660046103ff565b6001600160a01b031660009081526003602052604090206001810154905460ff90911691565b6040805192151583526020830191909152016100cc565b6100c261016a3660046103ff565b60026020526000908152604090205481565b61018f61018a3660046104a8565b6102b9565b6040516001600160a01b0390911681526020016100cc565b6100a06101b53660046103d5565b6102d9565b60005461010090046001600160a01b031633146101d657600080fd5b60ff81106101e357600080fd5b60005460ff166001146101f75760016101fa565b60005b6000805460ff191660ff9290921691909117815560405182916001600160a01b038516917f62c1e066774519db9fe35767c15fc33df2f016675b7cc0c330ed185f286a2d529190a35050565b3360009081526001602052604090205483111561026257600080fd5b33600090815260016020526040812080548592906102819084906104d7565b90915550506001600160a01b038416600090815260016020526040812080548592906102ae9084906104f0565b909155505050505050565b600481600581106102c957600080fd5b01546001600160a01b0316905081565b6040805180820182528281526001602080830182815233600090815260038352858120945185559051938301805460ff19169415159490941790935552205481118015906103275750600381115b61033057600080fd5b336000908152600160205260408120805483929061034f9084906104d7565b90915550506001600160a01b0382166000908152600160205260408120805483929061037c9084906104f0565b90915550506040516001600160a01b038316907f98eaee7299e9cbfa56cf530fd3a0c6dfa0ccddf4f837b8f025651ad9594647b390600090a25050565b80356001600160a01b03811681146103d057600080fd5b919050565b600080604083850312156103e857600080fd5b6103f1836103b9565b946020939093013593505050565b60006020828403121561041157600080fd5b61041a826103b9565b9392505050565b6000806000806060858703121561043757600080fd5b610440856103b9565b935060208501359250604085013567ffffffffffffffff8082111561046457600080fd5b818701915087601f83011261047857600080fd5b81358181111561048757600080fd5b88602082850101111561049957600080fd5b95989497505060200194505050565b6000602082840312156104ba57600080fd5b5035919050565b634e487b7160e01b600052601160045260246000fd5b818103818111156104ea576104ea6104c1565b92915050565b808201808211156104ea576104ea6104c156fea264697066735822122017961bde51731620ba6941a8403fe786c0b7f4702337972a44d1e8bab3a51dca64736f6c63430008150033",
    "linkReferences": {}
  },
  "methodIdentifiers": {
    "addToWhitelist(address,uint256)": "214405fc",
    "administrators(uint256)": "d89d1510",
    "balanceOf(address)": "70a08231",
    "balances(address)": "27e235e3",
    "getPaymentStatus(address)": "888b2284",
    "transfer(address,uint256,string)": "56b8c724",
    "whiteTransfer(address,uint256)": "ea28d320",
    "whitelist(address)": "9b19251a"
  },
  "id": 17
}