{
  "abi": [
    {
      "inputs": [
        {
          "internalType": "address[]",
          "name": "_admins",
          "type": "address[]"
        },
        {
          "internalType": "uint256",
          "name": "_totalSupply",
          "type": "uint256"
        }
      ],
      "stateMutability": "nonpayable",
      "type": "constructor"
    },
    {
      "anonymous": false,
      "inputs": [
        {
          "indexed": false,
          "internalType": "address",
          "name": "userAddress",
          "type": "address"
        },
        {
          "indexed": false,
          "internalType": "uint256",
          "name": "tier",
          "type": "uint256"
        }
      ],
      "name": "AddedToWhitelist",
      "type": "event"
    },
    {
      "anonymous": false,
      "inputs": [
        {
          "indexed": true,
          "internalType": "address",
          "name": "recipient",
          "type": "address"
        },
        {
          "indexed": true,
          "internalType": "uint256",
          "name": "amount",
          "type": "uint256"
        }
      ],
      "name": "Transfer",
      "type": "event"
    },
    {
      "anonymous": false,
      "inputs": [
        {
          "indexed": true,
          "internalType": "address",
          "name": "",
          "type": "address"
        }
      ],
      "name": "WhiteListTransfer",
      "type": "event"
    },
    {
      "anonymous": false,
      "inputs": [
        {
          "indexed": true,
          "internalType": "address",
          "name": "",
          "type": "address"
        },
        {
          "indexed": true,
          "internalType": "uint256",
          "name": "",
          "type": "uint256"
        }
      ],
      "name": "supplyChanged",
      "type": "event"
    },
    {
      "inputs": [
        {
          "internalType": "address",
          "name": "_userAddrs",
          "type": "address"
        },
        {
          "internalType": "uint256",
          "name": "_tier",
          "type": "uint256"
        }
      ],
      "name": "addToWhitelist",
      "outputs": [],
      "stateMutability": "nonpayable",
      "type": "function"
    },
    {
      "inputs": [
        {
          "internalType": "uint256",
          "name": "",
          "type": "uint256"
        }
      ],
      "name": "administrators",
      "outputs": [
        {
          "internalType": "address",
          "name": "",
          "type": "address"
        }
      ],
      "stateMutability": "view",
      "type": "function"
    },
    {
      "inputs": [
        {
          "internalType": "address",
          "name": "_user",
          "type": "address"
        }
      ],
      "name": "balanceOf",
      "outputs": [
        {
          "internalType": "uint256",
          "name": "",
          "type": "uint256"
        }
      ],
      "stateMutability": "view",
      "type": "function"
    },
    {
      "inputs": [
        {
          "internalType": "address",
          "name": "",
          "type": "address"
        }
      ],
      "name": "balances",
      "outputs": [
        {
          "internalType": "uint256",
          "name": "",
          "type": "uint256"
        }
      ],
      "stateMutability": "view",
      "type": "function"
    },
    {
      "inputs": [
        {
          "internalType": "address",
          "name": "sender",
          "type": "address"
        }
      ],
      "name": "getPaymentStatus",
      "outputs": [
        {
          "internalType": "bool",
          "name": "",
          "type": "bool"
        },
        {
          "internalType": "uint256",
          "name": "",
          "type": "uint256"
        }
      ],
      "stateMutability": "view",
      "type": "function"
    },
    {
      "inputs": [
        {
          "internalType": "address",
          "name": "_recipient",
          "type": "address"
        },
        {
          "internalType": "uint256",
          "name": "_amount",
          "type": "uint256"
        },
        {
          "internalType": "string",
          "name": "_name",
          "type": "string"
        }
      ],
      "name": "transfer",
      "outputs": [
        {
          "internalType": "bool",
          "name": "status_",
          "type": "bool"
        }
      ],
      "stateMutability": "nonpayable",
      "type": "function"
    },
    {
      "inputs": [
        {
          "internalType": "address",
          "name": "_recipient",
          "type": "address"
        },
        {
          "internalType": "uint256",
          "name": "_amount",
          "type": "uint256"
        }
      ],
      "name": "whiteTransfer",
      "outputs": [],
      "stateMutability": "nonpayable",
      "type": "function"
    },
    {
      "inputs": [
        {
          "internalType": "address",
          "name": "",
          "type": "address"
        }
      ],
      "name": "whitelist",
      "outputs": [
        {
          "internalType": "uint256",
          "name": "",
          "type": "uint256"
        }
      ],
      "stateMutability": "view",
      "type": "function"
    }
  ],
  "bytecode": {
    "object": "0x60806040526000805560006001553480156200001a57600080fd5b5060405162000f4a38038062000f4a8339810160408190526200003d9162000214565b600c80546001600160a01b0319163390811782556000838155908152600260205260408082208490559154915183926001600160a01b03169160008051602062000f2a83398151915291a360005b8251811015620001ee5760006001600160a01b0316838281518110620000b557620000b56200031f565b60200260200101516001600160a01b031614620001d957828181518110620000e157620000e16200031f565b602002602001015160078260058110620000ff57620000ff6200031f565b0180546001600160a01b0319166001600160a01b03928316179055600c5484519116908490839081106200013757620001376200031f565b60200260200101516001600160a01b031614620001d9576000600260008584815181106200016957620001696200031f565b60200260200101516001600160a01b03166001600160a01b03168152602001908152602001600020819055506000838281518110620001ac57620001ac6200031f565b60200260200101516001600160a01b031660008051602062000f2a83398151915260405160405180910390a35b80620001e581620002f5565b9150506200008b565b5050506200034b565b80516001600160a01b03811681146200020f57600080fd5b919050565b600080604083850312156200022857600080fd5b82516001600160401b03808211156200024057600080fd5b818501915085601f8301126200025557600080fd5b81516020828211156200026c576200026c62000335565b8160051b604051601f19603f8301168101818110868211171562000294576200029462000335565b604052838152828101945085830182870184018b1015620002b457600080fd5b600096505b84871015620002e257620002cd81620001f7565b865260019690960195948301948301620002b9565b5097909101519698969750505050505050565b60006000198214156200031857634e487b7160e01b600052601160045260246000fd5b5060010190565b634e487b7160e01b600052603260045260246000fd5b634e487b7160e01b600052604160045260246000fd5b610bcf806200035b6000396000f3fe608060405234801561001057600080fd5b50600436106100885760003560e01c8063888b22841161005b578063888b2284146101215780639b19251a14610172578063d89d151014610192578063ea28d320146101bd57600080fd5b8063214405fc1461008d57806327e235e3146100a257806356b8c724146100d557806370a08231146100f8575b600080fd5b6100a061009b366004610949565b6101d0565b005b6100c26100b0366004610927565b60026020526000908152604090205481565b6040519081526020015b60405180910390f35b6100e86100e3366004610973565b61034c565b60405190151581526020016100cc565b6100c2610106366004610927565b6001600160a01b031660009081526002602052604090205490565b61015b61012f366004610927565b6001600160a01b0316600090815260066020526040902060028101549054600160c01b90910460ff1691565b6040805192151583526020830191909152016100cc565b6100c2610180366004610927565b60036020526000908152604090205481565b6101a56101a0366004610a3e565b6105fa565b6040516001600160a01b0390911681526020016100cc565b6100a06101cb366004610949565b61061a565b600c546001600160a01b03163314156102b05760ff811061020c5760405162461bcd60e51b815260040161020390610a57565b60405180910390fd5b80600381111561021e57506003610248565b816001141561022f57506001610248565b60008211801561023f5750600382105b15610248575060025b6001600160a01b0383166000818152600360209081526040808320859055600482528083208390558051938452908301859052805191927f62c1e066774519db9fe35767c15fc33df2f016675b7cc0c330ed185f286a2d52929081900390910190a150505050565b6102b9336108a7565b156102de5760ff811061020c5760405162461bcd60e51b815260040161020390610a57565b60405162461bcd60e51b815260206004820152603c60248201527f746865206f726967696e61746f72206f6620746865207472616e73616374696f60448201527f6e20776173206e6f74207468652061646d696e206f72206f776e6572000000006064820152608401610203565b336000908152600260205260408120548311156103ab5760405162461bcd60e51b815260206004820152601f60248201527f53656e6465722068617320696e73756666696369656e742042616c616e6365006044820152606401610203565b600982511061040b5760405162461bcd60e51b815260206004820152602660248201527f4d6178206c656e677468206f6620726563697069656e74206e616d65206973206044820152651c1031b430b960d11b6064820152608401610203565b336000908152600260205260408120805485929061042a908490610ab8565b90915550506001600160a01b03841660009081526002602052604081208054859290610457908490610aa0565b909155505060405183906001600160a01b038616907f69ca02dd4edd7bf0a4abb9ed3b7af3f14778db5d61921c7dc7cd545266326de290600090a36040805160e08101825260008082529181018290526080810182905260c0810191909152600160a08201526001600160a01b0385166060820152602081018490526104dc83610acf565b6001600160c01b0319166040820152600180546000906104fb90610b06565b918290555081523360009081526005602090815260408083208054600181810183559185529383902085516004958602909101908155928501519083015583015160028201805460608601516001600160a01b0390811668010000000000000000026001600160e01b031990921660c09490941c939093171790556080840151600383018054919092166001600160a01b031982168117835560a086015186959093926001600160a81b03191690911790600160a01b9084908111156105c3576105c3610b57565b021790555060c0919091015160039091018054911515600160a81b0260ff60a81b1990921691909117905550600190509392505050565b6007816005811061060a57600080fd5b01546001600160a01b0316905081565b3360009081526003602052604090205480158015906106395750600481105b1561085f576040805160c08101825283815260006020808301828152338486018181526060860185815260808701868152600160a0890181815294885260068752898820985189559451948801949094559051600296870180549251945193511515600160c01b0260ff60c01b1961ffff958616600160b01b021662ffffff60b01b1996909516600160a01b026001600160b01b03199094166001600160a01b0393909316929092179290921793909316919091179190911790559190915220548211156107495760405162461bcd60e51b815260206004820152601f60248201527f53656e6465722068617320696e73756666696369656e742042616c616e6365006044820152606401610203565b600382116107a95760405162461bcd60e51b815260206004820152602760248201527f416d6f756e7420746f2073656e64206861766520746f20626520626967676572604482015266207468616e203360c81b6064820152608401610203565b3360009081526003602090815260408083205460029092529091205481906107d2908590610ab8565b6107dc9190610aa0565b33600090815260026020526040808220929092556001600160a01b03861681522054819061080b908590610aa0565b6108159190610ab8565b6001600160a01b03851660008181526002602052604080822093909355915190917f98eaee7299e9cbfa56cf530fd3a0c6dfa0ccddf4f837b8f025651ad9594647b391a250505050565b60405162461bcd60e51b815260206004820152601760248201527f55736572206973206e6f742077686974656c69737465640000000000000000006044820152606401610203565b600080805b60058160ff16101561090457836001600160a01b031660078260ff16600581106108d8576108d8610b6d565b01546001600160a01b031614156108f25760019150610904565b806108fc81610b21565b9150506108ac565b5092915050565b80356001600160a01b038116811461092257600080fd5b919050565b60006020828403121561093957600080fd5b6109428261090b565b9392505050565b6000806040838503121561095c57600080fd5b6109658361090b565b946020939093013593505050565b60008060006060848603121561098857600080fd5b6109918461090b565b925060208401359150604084013567ffffffffffffffff808211156109b557600080fd5b818601915086601f8301126109c957600080fd5b8135818111156109db576109db610b83565b604051601f8201601f19908116603f01168101908382118183101715610a0357610a03610b83565b81604052828152896020848701011115610a1c57600080fd5b8260208601602083013760006020848301015280955050505050509250925092565b600060208284031215610a5057600080fd5b5035919050565b60208082526029908201527f54696572206c6576656c2073686f756c64206e6f742062652067726561746572604082015268207468616e2032353560b81b606082015260800190565b60008219821115610ab357610ab3610b41565b500190565b600082821015610aca57610aca610b41565b500390565b805160208201516001600160c01b03198082169291906008831015610afe5780818460080360031b1b83161693505b505050919050565b6000600019821415610b1a57610b1a610b41565b5060010190565b600060ff821660ff811415610b3857610b38610b41565b60010192915050565b634e487b7160e01b600052601160045260246000fd5b634e487b7160e01b600052602160045260246000fd5b634e487b7160e01b600052603260045260246000fd5b634e487b7160e01b600052604160045260246000fdfea2646970667358221220450e66d84c3d18c2d4085db1198d5312374ddd2cca44804b490845284745b7fc64736f6c63430008070033fbd610cf0373947747ba15effd5e459c81db984f8723671458c0e8624428ab04",
    "linkReferences": {}
  },
  "methodIdentifiers": {
    "addToWhitelist(address,uint256)": "214405fc",
    "administrators(uint256)": "d89d1510",
    "balanceOf(address)": "70a08231",
    "balances(address)": "27e235e3",
    "getPaymentStatus(address)": "888b2284",
    "transfer(address,uint256,string)": "56b8c724",
    "whiteTransfer(address,uint256)": "ea28d320",
    "whitelist(address)": "9b19251a"
  },
  "id": 17
}