{
  "abi": [
    {
      "inputs": [
        {
          "internalType": "address[]",
          "name": "_admins",
          "type": "address[]"
        },
        {
          "internalType": "uint256",
          "name": "_totalSupply",
          "type": "uint256"
        }
      ],
      "stateMutability": "payable",
      "type": "constructor"
    },
    {
      "anonymous": false,
      "inputs": [
        {
          "indexed": false,
          "internalType": "address",
          "name": "userAddress",
          "type": "address"
        },
        {
          "indexed": false,
          "internalType": "uint256",
          "name": "tier",
          "type": "uint256"
        }
      ],
      "name": "AddedToWhitelist",
      "type": "event"
    },
    {
      "anonymous": false,
      "inputs": [
        {
          "indexed": false,
          "internalType": "address",
          "name": "recipient",
          "type": "address"
        },
        {
          "indexed": false,
          "internalType": "uint256",
          "name": "amount",
          "type": "uint256"
        }
      ],
      "name": "Transfer",
      "type": "event"
    },
    {
      "anonymous": false,
      "inputs": [
        {
          "indexed": true,
          "internalType": "address",
          "name": "",
          "type": "address"
        }
      ],
      "name": "WhiteListTransfer",
      "type": "event"
    },
    {
      "anonymous": false,
      "inputs": [
        {
          "indexed": true,
          "internalType": "address",
          "name": "",
          "type": "address"
        },
        {
          "indexed": true,
          "internalType": "uint256",
          "name": "",
          "type": "uint256"
        }
      ],
      "name": "supplyChanged",
      "type": "event"
    },
    {
      "inputs": [
        {
          "internalType": "address",
          "name": "_userAddrs",
          "type": "address"
        },
        {
          "internalType": "uint256",
          "name": "_tier",
          "type": "uint256"
        }
      ],
      "name": "addToWhitelist",
      "outputs": [],
      "stateMutability": "payable",
      "type": "function"
    },
    {
      "inputs": [
        {
          "internalType": "uint256",
          "name": "",
          "type": "uint256"
        }
      ],
      "name": "administrators",
      "outputs": [
        {
          "internalType": "address",
          "name": "",
          "type": "address"
        }
      ],
      "stateMutability": "view",
      "type": "function"
    },
    {
      "inputs": [
        {
          "internalType": "address",
          "name": "_user",
          "type": "address"
        }
      ],
      "name": "balanceOf",
      "outputs": [
        {
          "internalType": "uint256",
          "name": "balance_",
          "type": "uint256"
        }
      ],
      "stateMutability": "view",
      "type": "function"
    },
    {
      "inputs": [
        {
          "internalType": "address",
          "name": "",
          "type": "address"
        }
      ],
      "name": "balances",
      "outputs": [
        {
          "internalType": "uint256",
          "name": "",
          "type": "uint256"
        }
      ],
      "stateMutability": "view",
      "type": "function"
    },
    {
      "inputs": [
        {
          "internalType": "address",
          "name": "_user",
          "type": "address"
        }
      ],
      "name": "checkForAdmin",
      "outputs": [
        {
          "internalType": "bool",
          "name": "admin_",
          "type": "bool"
        }
      ],
      "stateMutability": "view",
      "type": "function"
    },
    {
      "inputs": [],
      "name": "dividendFlag",
      "outputs": [
        {
          "internalType": "uint256",
          "name": "",
          "type": "uint256"
        }
      ],
      "stateMutability": "view",
      "type": "function"
    },
    {
      "inputs": [
        {
          "internalType": "address",
          "name": "sender",
          "type": "address"
        }
      ],
      "name": "getPaymentStatus",
      "outputs": [
        {
          "internalType": "bool",
          "name": "",
          "type": "bool"
        },
        {
          "internalType": "uint256",
          "name": "",
          "type": "uint256"
        }
      ],
      "stateMutability": "view",
      "type": "function"
    },
    {
      "inputs": [],
      "name": "owner",
      "outputs": [
        {
          "internalType": "address",
          "name": "",
          "type": "address"
        }
      ],
      "stateMutability": "view",
      "type": "function"
    },
    {
      "inputs": [],
      "name": "tradeFlag",
      "outputs": [
        {
          "internalType": "uint256",
          "name": "",
          "type": "uint256"
        }
      ],
      "stateMutability": "view",
      "type": "function"
    },
    {
      "inputs": [
        {
          "internalType": "address",
          "name": "_recipient",
          "type": "address"
        },
        {
          "internalType": "uint256",
          "name": "_amount",
          "type": "uint256"
        },
        {
          "internalType": "string",
          "name": "_name",
          "type": "string"
        }
      ],
      "name": "transfer",
      "outputs": [
        {
          "internalType": "bool",
          "name": "status_",
          "type": "bool"
        }
      ],
      "stateMutability": "payable",
      "type": "function"
    },
    {
      "inputs": [
        {
          "internalType": "address",
          "name": "newOwner",
          "type": "address"
        }
      ],
      "name": "transferOwnership",
      "outputs": [],
      "stateMutability": "nonpayable",
      "type": "function"
    },
    {
      "inputs": [
        {
          "internalType": "address",
          "name": "_recipient",
          "type": "address"
        },
        {
          "internalType": "uint256",
          "name": "_amount",
          "type": "uint256"
        }
      ],
      "name": "whiteTransfer",
      "outputs": [],
      "stateMutability": "payable",
      "type": "function"
    },
    {
      "inputs": [
        {
          "internalType": "address",
          "name": "",
          "type": "address"
        }
      ],
      "name": "whitelist",
      "outputs": [
        {
          "internalType": "uint256",
          "name": "",
          "type": "uint256"
        }
      ],
      "stateMutability": "view",
      "type": "function"
    }
  ],
  "bytecode": {
    "object": "0x60a0604052600180556001600355600c6007556001601155604051620011cd380380620011cd8339810160408190526200003991620002d6565b600080546001600160a01b03191633179055600480546001600160a01b03191633179055608081905260005b60058110156200029a5760006001600160a01b03168382815181106200008f576200008f620003b0565b60200260200101516001600160a01b0316146200028757828181518110620000bb57620000bb620003b0565b6020026020010151600b8260058110620000d957620000d9620003b0565b0180546001600160a01b0319166001600160a01b039283161790556004548451911690849083908110620001115762000111620003b0565b60200260200101516001600160a01b0316036200014c576080516004546001600160a01b03166000908152600660205260409020556200017f565b60066000848381518110620001655762000165620003b0565b6020908102919091018101516001600160a01b0316825201525b60045483516001600160a01b0390911690849083908110620001a557620001a5620003b0565b60200260200101516001600160a01b0316036200020657608051838281518110620001d457620001d4620003b0565b60200260200101516001600160a01b0316600080516020620011ad83398151915260405160405180910390a362000287565b60045483516001600160a01b03909116908490839081106200022c576200022c620003b0565b60200260200101516001600160a01b031614620002875760008382815181106200025a576200025a620003b0565b60200260200101516001600160a01b0316600080516020620011ad83398151915260405160405180910390a35b6200029281620003c6565b905062000065565b505050620003ee565b634e487b7160e01b600052604160045260246000fd5b80516001600160a01b0381168114620002d157600080fd5b919050565b60008060408385031215620002ea57600080fd5b82516001600160401b03808211156200030257600080fd5b818501915085601f8301126200031757600080fd5b81516020828211156200032e576200032e620002a3565b8160051b604051601f19603f83011681018181108682111715620003565762000356620002a3565b6040529283528183019350848101820192898411156200037557600080fd5b948201945b838610156200039e576200038e86620002b9565b855294820194938201936200037a565b97909101519698969750505050505050565b634e487b7160e01b600052603260045260246000fd5b600060018201620003e757634e487b7160e01b600052601160045260246000fd5b5060010190565b608051610da66200040760003960005050610da66000f3fe6080604052600436106100c25760003560e01c80638da5cb5b1161007f578063c43982cc11610059578063c43982cc14610267578063d89d15101461027d578063ea28d3201461029d578063f2fde38b146102b057600080fd5b80638da5cb5b146101e85780639b19251a1461021a578063b52d15e21461024757600080fd5b8063214405fc146100c757806327e235e3146100dc57806356b8c7241461011c57806370a082311461013f578063745b07c814610175578063888b22841461018b575b600080fd5b6100da6100d5366004610a9f565b6102d0565b005b3480156100e857600080fd5b506101096100f7366004610ac9565b60066020526000908152604090205481565b6040519081526020015b60405180910390f35b61012f61012a366004610aeb565b6104bd565b6040519015158152602001610113565b34801561014b57600080fd5b5061010961015a366004610ac9565b6001600160a01b031660009081526006602052604090205490565b34801561018157600080fd5b5061010960035481565b34801561019757600080fd5b506101d16101a6366004610ac9565b6001600160a01b03166000908152601360205260409020600281015490546201000090910460ff1691565b604080519215158352602083019190915201610113565b3480156101f457600080fd5b506000546001600160a01b03165b6040516001600160a01b039091168152602001610113565b34801561022657600080fd5b50610109610235366004610ac9565b600a6020526000908152604090205481565b34801561025357600080fd5b5061012f610262366004610ac9565b6107a9565b34801561027357600080fd5b5061010960015481565b34801561028957600080fd5b50610202610298366004610b72565b610801565b6100da6102ab366004610a9f565b610821565b3480156102bc57600080fd5b506100da6102cb366004610ac9565b610a31565b336102da816107a9565b15610495576102e8816107a9565b6102f157600080fd5b60ff82106102fe57600080fd5b6001600160a01b0383166000908152600a602052604090208290556003821115610370576001600160a01b0383166000908152600a60205260408120805484929061034a908490610ba1565b90915550506001600160a01b0383166000908152600a6020526040902060039055610425565b816001036103c6576001600160a01b0383166000908152600a6020526040812080548492906103a0908490610ba1565b90915550506001600160a01b0383166000908152600a6020526040902060019055610425565b6000821180156103d65750600382105b15610425576001600160a01b0383166000908152600a602052604081208054849290610403908490610ba1565b90915550506001600160a01b0383166000908152600a60205260409020600290555b601154600181900361044d576001600160a01b03841660009081526012602052604090208190555b604080516001600160a01b0386168152602081018590527f62c1e066774519db9fe35767c15fc33df2f016675b7cc0c330ed185f286a2d52910160405180910390a150505050565b6004546001600160a01b03908116908216036100c25760ff82106102fe57600080fd5b505050565b336000818152600660205260408120549091908511156104dc57600080fd5b600983106104e957600080fd5b6001600160a01b03811660009081526006602052604081208054879290610511908490610ba1565b90915550506001600160a01b0386166000908152600660205260408120805487929061053e908490610bba565b9091555050604080516001600160a01b0388168152602081018790527f69ca02dd4edd7bf0a4abb9ed3b7af3f14778db5d61921c7dc7cd545266326de2910160405180910390a16040805160e0810182526000602080830182905282840182905260608084015260a0830191909152600182526001600160a01b038916608083015260c082018890528251601f87018290048202810182019093528583529091908690869081908401838280828437600092018290525060608601949094525050600580549092915061061090610be3565b91829055506020808301919091526001600160a01b03831660009081526009825260408120805460018181018355918352929091208351600790930201805484939192839160ff19169083600481111561066c5761066c610bcd565b021790555060208201516001820155604082015160028201805460ff1916911515919091179055606082015160038201906106a79082610c9a565b5060808201516004820180546001600160a01b039283166001600160a01b03199182161790915560a084015160058401805491909316911617905560c09091015160069091015560075460009067ffffffffffffffff81111561070c5761070c610bfc565b604051908082528060200260200182016040528015610735578160200160208202803683370190505b50905060005b60075481101561077957600182828151811061075957610759610d5a565b9115156020928302919091019091015261077281610be3565b905061073b565b508060008151811061078d5761078d610d5a565b6020026020010151151560011515149350505050949350505050565b60008060005b60058110156107fa57836001600160a01b0316600b82600581106107d5576107d5610d5a565b01546001600160a01b0316036107ea57600191505b6107f381610be3565b90506107af565b5092915050565b600b816005811061081157600080fd5b01546001600160a01b0316905081565b336000818152600a602052604090205481908061083d57600080fd5b6004811061084a57600080fd5b6040805160c08101825285815260006020808301828152838501838152606085018481526001608087018181523360a08901818152818952601388528a892099518a559551928901929092559251600290970180549251935194516001600160a01b03166301000000026301000000600160b81b031995151562010000029590951662010000600160b81b031960ff9586166101000261ffff1990951699909516989098179290921792909216959095179190911790935560069052919091205485111561091757600080fd5b6003851161092457600080fd5b6001600160a01b0381166000908152600660205260408120805487929061094c908490610ba1565b90915550506001600160a01b03861660009081526006602052604081208054879290610979908490610bba565b90915550506001600160a01b0381166000908152600a6020908152604080832054600690925282208054919290916109b2908490610bba565b90915550506001600160a01b038082166000908152600a6020908152604080832054938a1683526006909152812080549091906109f0908490610ba1565b90915550506040516001600160a01b038716907f98eaee7299e9cbfa56cf530fd3a0c6dfa0ccddf4f837b8f025651ad9594647b390600090a2505050505050565b610a39610a6a565b6001600160a01b038116610a4c57600080fd5b600080546001600160a01b0319166001600160a01b03831617905550565b6000546001600160a01b03163314610a8157600080fd5b565b80356001600160a01b0381168114610a9a57600080fd5b919050565b60008060408385031215610ab257600080fd5b610abb83610a83565b946020939093013593505050565b600060208284031215610adb57600080fd5b610ae482610a83565b9392505050565b60008060008060608587031215610b0157600080fd5b610b0a85610a83565b935060208501359250604085013567ffffffffffffffff80821115610b2e57600080fd5b818701915087601f830112610b4257600080fd5b813581811115610b5157600080fd5b886020828501011115610b6357600080fd5b95989497505060200194505050565b600060208284031215610b8457600080fd5b5035919050565b634e487b7160e01b600052601160045260246000fd5b81810381811115610bb457610bb4610b8b565b92915050565b80820180821115610bb457610bb4610b8b565b634e487b7160e01b600052602160045260246000fd5b600060018201610bf557610bf5610b8b565b5060010190565b634e487b7160e01b600052604160045260246000fd5b600181811c90821680610c2657607f821691505b602082108103610c4657634e487b7160e01b600052602260045260246000fd5b50919050565b601f8211156104b857600081815260208120601f850160051c81016020861015610c735750805b601f850160051c820191505b81811015610c9257828155600101610c7f565b505050505050565b815167ffffffffffffffff811115610cb457610cb4610bfc565b610cc881610cc28454610c12565b84610c4c565b602080601f831160018114610cfd5760008415610ce55750858301515b600019600386901b1c1916600185901b178555610c92565b600085815260208120601f198616915b82811015610d2c57888601518255948401946001909101908401610d0d565b5085821015610d4a5787850151600019600388901b60f8161c191681555b5050505050600190811b01905550565b634e487b7160e01b600052603260045260246000fdfea2646970667358221220890973fda6f1e8d6e7989bd513f6fab5dbe816102dacb40151ea2aa01293d93164736f6c63430008130033fbd610cf0373947747ba15effd5e459c81db984f8723671458c0e8624428ab04",
    "linkReferences": {}
  },
  "methodIdentifiers": {
    "addToWhitelist(address,uint256)": "214405fc",
    "administrators(uint256)": "d89d1510",
    "balanceOf(address)": "70a08231",
    "balances(address)": "27e235e3",
    "checkForAdmin(address)": "b52d15e2",
    "dividendFlag()": "745b07c8",
    "getPaymentStatus(address)": "888b2284",
    "owner()": "8da5cb5b",
    "tradeFlag()": "c43982cc",
    "transfer(address,uint256,string)": "56b8c724",
    "transferOwnership(address)": "f2fde38b",
    "whiteTransfer(address,uint256)": "ea28d320",
    "whitelist(address)": "9b19251a"
  },
  "id": 17
}