{
  "abi": [
    {
      "inputs": [
        {
          "internalType": "address[]",
          "name": "_admins",
          "type": "address[]"
        },
        {
          "internalType": "uint256",
          "name": "_totalSupply",
          "type": "uint256"
        }
      ],
      "stateMutability": "payable",
      "type": "constructor"
    },
    {
      "anonymous": false,
      "inputs": [
        {
          "indexed": false,
          "internalType": "address",
          "name": "userAddress",
          "type": "address"
        },
        {
          "indexed": false,
          "internalType": "uint256",
          "name": "tier",
          "type": "uint256"
        }
      ],
      "name": "AddedToWhitelist",
      "type": "event"
    },
    {
      "anonymous": false,
      "inputs": [
        {
          "indexed": true,
          "internalType": "address",
          "name": "previousOwner",
          "type": "address"
        },
        {
          "indexed": true,
          "internalType": "address",
          "name": "newOwner",
          "type": "address"
        }
      ],
      "name": "OwnershipTransferred",
      "type": "event"
    },
    {
      "anonymous": false,
      "inputs": [
        {
          "indexed": false,
          "internalType": "address",
          "name": "admin",
          "type": "address"
        },
        {
          "indexed": false,
          "internalType": "uint256",
          "name": "ID",
          "type": "uint256"
        },
        {
          "indexed": false,
          "internalType": "uint256",
          "name": "amount",
          "type": "uint256"
        },
        {
          "indexed": false,
          "internalType": "string",
          "name": "recipient",
          "type": "string"
        }
      ],
      "name": "PaymentUpdated",
      "type": "event"
    },
    {
      "anonymous": false,
      "inputs": [
        {
          "indexed": false,
          "internalType": "address",
          "name": "recipient",
          "type": "address"
        },
        {
          "indexed": false,
          "internalType": "uint256",
          "name": "amount",
          "type": "uint256"
        }
      ],
      "name": "Transfer",
      "type": "event"
    },
    {
      "anonymous": false,
      "inputs": [
        {
          "indexed": true,
          "internalType": "address",
          "name": "",
          "type": "address"
        }
      ],
      "name": "WhiteListTransfer",
      "type": "event"
    },
    {
      "anonymous": false,
      "inputs": [
        {
          "indexed": true,
          "internalType": "address",
          "name": "",
          "type": "address"
        },
        {
          "indexed": true,
          "internalType": "uint256",
          "name": "",
          "type": "uint256"
        }
      ],
      "name": "supplyChanged",
      "type": "event"
    },
    {
      "stateMutability": "payable",
      "type": "fallback"
    },
    {
      "inputs": [
        {
          "internalType": "address",
          "name": "_updateAddress",
          "type": "address"
        },
        {
          "internalType": "bool",
          "name": "_tradeMode",
          "type": "bool"
        }
      ],
      "name": "addHistory",
      "outputs": [
        {
          "internalType": "bool",
          "name": "status_",
          "type": "bool"
        },
        {
          "internalType": "bool",
          "name": "tradeMode_",
          "type": "bool"
        }
      ],
      "stateMutability": "payable",
      "type": "function"
    },
    {
      "inputs": [
        {
          "internalType": "address",
          "name": "_userAddrs",
          "type": "address"
        },
        {
          "internalType": "uint256",
          "name": "_tier",
          "type": "uint256"
        }
      ],
      "name": "addToWhitelist",
      "outputs": [],
      "stateMutability": "payable",
      "type": "function"
    },
    {
      "inputs": [
        {
          "internalType": "uint256",
          "name": "",
          "type": "uint256"
        }
      ],
      "name": "administrators",
      "outputs": [
        {
          "internalType": "address",
          "name": "",
          "type": "address"
        }
      ],
      "stateMutability": "view",
      "type": "function"
    },
    {
      "inputs": [
        {
          "internalType": "address",
          "name": "_user",
          "type": "address"
        }
      ],
      "name": "balanceOf",
      "outputs": [
        {
          "internalType": "uint256",
          "name": "balance_",
          "type": "uint256"
        }
      ],
      "stateMutability": "view",
      "type": "function"
    },
    {
      "inputs": [
        {
          "internalType": "address",
          "name": "",
          "type": "address"
        }
      ],
      "name": "balances",
      "outputs": [
        {
          "internalType": "uint256",
          "name": "",
          "type": "uint256"
        }
      ],
      "stateMutability": "view",
      "type": "function"
    },
    {
      "inputs": [
        {
          "internalType": "address",
          "name": "_user",
          "type": "address"
        }
      ],
      "name": "checkForAdmin",
      "outputs": [
        {
          "internalType": "bool",
          "name": "admin_",
          "type": "bool"
        }
      ],
      "stateMutability": "view",
      "type": "function"
    },
    {
      "inputs": [],
      "name": "dividendFlag",
      "outputs": [
        {
          "internalType": "uint256",
          "name": "",
          "type": "uint256"
        }
      ],
      "stateMutability": "view",
      "type": "function"
    },
    {
      "inputs": [],
      "name": "getPaymentHistory",
      "outputs": [
        {
          "components": [
            {
              "internalType": "uint256",
              "name": "lastUpdate",
              "type": "uint256"
            },
            {
              "internalType": "address",
              "name": "updatedBy",
              "type": "address"
            },
            {
              "internalType": "uint256",
              "name": "blockNumber",
              "type": "uint256"
            }
          ],
          "internalType": "struct GasContract.History[]",
          "name": "paymentHistory_",
          "type": "tuple[]"
        }
      ],
      "stateMutability": "payable",
      "type": "function"
    },
    {
      "inputs": [
        {
          "internalType": "address",
          "name": "sender",
          "type": "address"
        }
      ],
      "name": "getPaymentStatus",
      "outputs": [
        {
          "internalType": "bool",
          "name": "",
          "type": "bool"
        },
        {
          "internalType": "uint256",
          "name": "",
          "type": "uint256"
        }
      ],
      "stateMutability": "view",
      "type": "function"
    },
    {
      "inputs": [
        {
          "internalType": "address",
          "name": "_user",
          "type": "address"
        }
      ],
      "name": "getPayments",
      "outputs": [
        {
          "components": [
            {
              "internalType": "enum GasContract.PaymentType",
              "name": "paymentType",
              "type": "uint8"
            },
            {
              "internalType": "uint256",
              "name": "paymentID",
              "type": "uint256"
            },
            {
              "internalType": "bool",
              "name": "adminUpdated",
              "type": "bool"
            },
            {
              "internalType": "string",
              "name": "recipientName",
              "type": "string"
            },
            {
              "internalType": "address",
              "name": "recipient",
              "type": "address"
            },
            {
              "internalType": "address",
              "name": "admin",
              "type": "address"
            },
            {
              "internalType": "uint256",
              "name": "amount",
              "type": "uint256"
            }
          ],
          "internalType": "struct GasContract.Payment[]",
          "name": "payments_",
          "type": "tuple[]"
        }
      ],
      "stateMutability": "view",
      "type": "function"
    },
    {
      "inputs": [],
      "name": "getTradingMode",
      "outputs": [
        {
          "internalType": "bool",
          "name": "mode_",
          "type": "bool"
        }
      ],
      "stateMutability": "view",
      "type": "function"
    },
    {
      "inputs": [],
      "name": "owner",
      "outputs": [
        {
          "internalType": "address",
          "name": "",
          "type": "address"
        }
      ],
      "stateMutability": "view",
      "type": "function"
    },
    {
      "inputs": [],
      "name": "renounceOwnership",
      "outputs": [],
      "stateMutability": "nonpayable",
      "type": "function"
    },
    {
      "inputs": [],
      "name": "tradeFlag",
      "outputs": [
        {
          "internalType": "uint256",
          "name": "",
          "type": "uint256"
        }
      ],
      "stateMutability": "view",
      "type": "function"
    },
    {
      "inputs": [
        {
          "internalType": "address",
          "name": "_recipient",
          "type": "address"
        },
        {
          "internalType": "uint256",
          "name": "_amount",
          "type": "uint256"
        },
        {
          "internalType": "string",
          "name": "_name",
          "type": "string"
        }
      ],
      "name": "transfer",
      "outputs": [
        {
          "internalType": "bool",
          "name": "status_",
          "type": "bool"
        }
      ],
      "stateMutability": "payable",
      "type": "function"
    },
    {
      "inputs": [
        {
          "internalType": "address",
          "name": "newOwner",
          "type": "address"
        }
      ],
      "name": "transferOwnership",
      "outputs": [],
      "stateMutability": "nonpayable",
      "type": "function"
    },
    {
      "inputs": [
        {
          "internalType": "address",
          "name": "_user",
          "type": "address"
        },
        {
          "internalType": "uint256",
          "name": "_ID",
          "type": "uint256"
        },
        {
          "internalType": "uint256",
          "name": "_amount",
          "type": "uint256"
        },
        {
          "internalType": "enum GasContract.PaymentType",
          "name": "_type",
          "type": "uint8"
        }
      ],
      "name": "updatePayment",
      "outputs": [],
      "stateMutability": "payable",
      "type": "function"
    },
    {
      "inputs": [
        {
          "internalType": "address",
          "name": "_recipient",
          "type": "address"
        },
        {
          "internalType": "uint256",
          "name": "_amount",
          "type": "uint256"
        }
      ],
      "name": "whiteTransfer",
      "outputs": [],
      "stateMutability": "payable",
      "type": "function"
    },
    {
      "inputs": [
        {
          "internalType": "address",
          "name": "",
          "type": "address"
        }
      ],
      "name": "whitelist",
      "outputs": [
        {
          "internalType": "uint256",
          "name": "",
          "type": "uint256"
        }
      ],
      "stateMutability": "view",
      "type": "function"
    },
    {
      "stateMutability": "payable",
      "type": "receive"
    }
  ],
  "bytecode": {
    "object": "0x60a0604052600180556001600355600c6007556001601155604051620023f7380380620023f783398101604081905262000039916200031f565b62000044336200029c565b600480546001600160a01b03191633179055608081905260005b6005811015620002935760006001600160a01b0316838281518110620000885762000088620003f9565b60200260200101516001600160a01b0316146200028057828181518110620000b457620000b4620003f9565b6020026020010151600b8260058110620000d257620000d2620003f9565b0180546001600160a01b0319166001600160a01b0392831617905560045484519116908490839081106200010a576200010a620003f9565b60200260200101516001600160a01b03160362000145576080516004546001600160a01b031660009081526006602052604090205562000178565b600660008483815181106200015e576200015e620003f9565b6020908102919091018101516001600160a01b0316825201525b60045483516001600160a01b03909116908490839081106200019e576200019e620003f9565b60200260200101516001600160a01b031603620001ff57608051838281518110620001cd57620001cd620003f9565b60200260200101516001600160a01b0316600080516020620023d783398151915260405160405180910390a362000280565b60045483516001600160a01b0390911690849083908110620002255762000225620003f9565b60200260200101516001600160a01b03161462000280576000838281518110620002535762000253620003f9565b60200260200101516001600160a01b0316600080516020620023d783398151915260405160405180910390a35b6200028b816200040f565b90506200005e565b50505062000437565b600080546001600160a01b038381166001600160a01b0319831681178455604051919092169283917f8be0079c531659141344cd1fd0a4f28419497f9722a3daafe3b4186f6b6457e09190a35050565b634e487b7160e01b600052604160045260246000fd5b80516001600160a01b03811681146200031a57600080fd5b919050565b600080604083850312156200033357600080fd5b82516001600160401b03808211156200034b57600080fd5b818501915085601f8301126200036057600080fd5b8151602082821115620003775762000377620002ec565b8160051b604051601f19603f830116810181811086821117156200039f576200039f620002ec565b604052928352818301935084810182019289841115620003be57600080fd5b948201945b83861015620003e757620003d78662000302565b85529482019493820193620003c3565b97909101519698969750505050505050565b634e487b7160e01b600052603260045260246000fd5b6000600182016200043057634e487b7160e01b600052601160045260246000fd5b5060010190565b608051611f876200045060003960005050611f876000f3fe6080604052600436106101185760003560e01c80638da5cb5b116100a0578063b651bb6111610064578063b651bb61146103ac578063c43982cc146103c1578063d89d1510146103d7578063ea28d320146103f7578063f2fde38b1461040a5761014b565b80638da5cb5b146102ee5780638efcf5c0146103205780639a9f83831461034a5780639b19251a1461035f578063b52d15e21461038c5761014b565b806356b8c724116100e757806356b8c7241461020e57806370a0823114610231578063715018a614610267578063745b07c81461027c578063888b2284146102925761014b565b80631d6a171114610177578063214405fc146101ad57806327e235e3146101c05780634e86eb16146101fb5761014b565b3661014b5760405133903480156108fc02916000818181858888f19350505050158015610149573d6000803e3d6000fd5b005b60405133903480156108fc02916000818181858888f19350505050158015610149573d6000803e3d6000fd5b34801561018357600080fd5b506101976101923660046119a1565b61042a565b6040516101a49190611a1f565b60405180910390f35b6101496101bb366004611b02565b6105f0565b3480156101cc57600080fd5b506101ed6101db3660046119a1565b60066020526000908152604090205481565b6040519081526020016101a4565b610149610209366004611b2c565b6108db565b61022161021c366004611b78565b610fb7565b60405190151581526020016101a4565b34801561023d57600080fd5b506101ed61024c3660046119a1565b6001600160a01b031660009081526006602052604090205490565b34801561027357600080fd5b50610149611310565b34801561028857600080fd5b506101ed60035481565b34801561029e57600080fd5b506102d76102ad3660046119a1565b6001600160a01b031660009081526013602052604090206003810154905461010090910460ff1691565b6040805192151583526020830191909152016101a4565b3480156102fa57600080fd5b506000546001600160a01b03165b6040516001600160a01b0390911681526020016101a4565b61033361032e366004611bff565b611324565b6040805192151583529015156020830152016101a4565b34801561035657600080fd5b506102216114a3565b34801561036b57600080fd5b506101ed61037a3660046119a1565b600a6020526000908152604090205481565b34801561039857600080fd5b506102216103a73660046119a1565b6114c7565b6103b461151f565b6040516101a49190611c3b565b3480156103cd57600080fd5b506101ed60015481565b3480156103e357600080fd5b506103086103f2366004611c9d565b6115a1565b610149610405366004611b02565b6115c1565b34801561041657600080fd5b506101496104253660046119a1565b61189e565b60606001600160a01b0382166104735760405162461bcd60e51b815260206004820152600960248201526830206164647265737360b81b60448201526064015b60405180910390fd5b6001600160a01b038216600090815260096020908152604080832080548251818502810185019093528083529193909284015b828210156105e5576000848152602090206040805160e08101909152600784029091018054829060ff1660048111156104e1576104e16119c3565b60048111156104f2576104f26119c3565b815260018201546020820152600282015460ff161515604082015260038201805460609092019161052290611cb6565b80601f016020809104026020016040519081016040528092919081815260200182805461054e90611cb6565b801561059b5780601f106105705761010080835404028352916020019161059b565b820191906000526020600020905b81548152906001019060200180831161057e57829003601f168201915b505050918352505060048201546001600160a01b039081166020808401919091526005840154909116604083015260069092015460609091015290825260019290920191016104a6565b505050509050919050565b336105fa816114c7565b1561086157610608816114c7565b6106245760405162461bcd60e51b815260040161046a90611cf0565b60ff821061066b5760405162461bcd60e51b8152602060048201526014602482015273546965722073686f756c64206265203c2032353560601b604482015260640161046a565b6001600160a01b0383166000908152600a6020526040902082905560038211156106dd576001600160a01b0383166000908152600a6020526040812080548492906106b7908490611d29565b90915550506001600160a01b0383166000908152600a6020526040902060039055610792565b81600103610733576001600160a01b0383166000908152600a60205260408120805484929061070d908490611d29565b90915550506001600160a01b0383166000908152600a6020526040902060019055610792565b6000821180156107435750600382105b15610792576001600160a01b0383166000908152600a602052604081208054849290610770908490611d29565b90915550506001600160a01b0383166000908152600a60205260409020600290555b60115460018190036107be576001600160a01b0384166000908152601260205260409020819055610819565b806000036107eb5760016011556001600160a01b0384166000908152601260205260409020819055610819565b60405162461bcd60e51b8152602060048201526003602482015262534f5360e81b604482015260640161046a565b604080516001600160a01b0386168152602081018590527f62c1e066774519db9fe35767c15fc33df2f016675b7cc0c330ed185f286a2d52910160405180910390a150505050565b6004546001600160a01b03908116908216036108be5760ff821061066b5760405162461bcd60e51b8152602060048201526014602482015273546965722073686f756c64206265203c2032353560601b604482015260640161046a565b60405162461bcd60e51b815260040161046a90611cf0565b505050565b336108e5816114c7565b15610c58576108f3816114c7565b61090f5760405162461bcd60e51b815260040161046a90611cf0565b600084116109505760405162461bcd60e51b815260206004820152600e60248201526d04944206d757374206265203e20360941b604482015260640161046a565b600083116109955760405162461bcd60e51b81526020600482015260126024820152710416d6f756e74206d757374206265203e20360741b604482015260640161046a565b6001600160a01b0385166109eb5760405162461bcd60e51b815260206004820152601a60248201527f41646d696e6973747261746f72203d3d20302061646472657373000000000000604482015260640161046a565b3360005b6001600160a01b038716600090815260096020526040902054811015610c51576001600160a01b0387166000908152600960205260409020805487919083908110610a3c57610a3c611d42565b90600052602060002090600702016001015403610c41576001600160a01b038716600090815260096020526040902080546001919083908110610a8157610a81611d42565b906000526020600020906007020160020160006101000a81548160ff0219169083151502179055508660096000896001600160a01b03166001600160a01b031681526020019081526020016000208281548110610ae057610ae0611d42565b6000918252602080832060079290920290910160050180546001600160a01b0319166001600160a01b039485161790559189168152600990915260409020805485919083908110610b3357610b33611d42565b60009182526020909120600790910201805460ff19166001836004811115610b5d57610b5d6119c3565b02179055506001600160a01b0387166000908152600960205260409020805486919083908110610b8f57610b8f611d42565b9060005260206000209060070201600601819055506000610bae6114a3565b9050610bba8882611324565b50507ff41efc8c6b66b2a03b14fd69b985ad19a0b9245f24936163018e9ad06d4c143e838888600960008d6001600160a01b03166001600160a01b031681526020019081526020016000208681548110610c1657610c16611d42565b9060005260206000209060070201600301604051610c379493929190611d58565b60405180910390a1505b610c4a81611e01565b90506109ef565b5050610fb0565b6004546001600160a01b03908116908216036108be5760008411610caf5760405162461bcd60e51b815260206004820152600e60248201526d04944206d757374206265203e20360941b604482015260640161046a565b60008311610cf45760405162461bcd60e51b81526020600482015260126024820152710416d6f756e74206d757374206265203e20360741b604482015260640161046a565b6001600160a01b038516610d4a5760405162461bcd60e51b815260206004820152601a60248201527f41646d696e6973747261746f72203d3d20302061646472657373000000000000604482015260640161046a565b3360005b6001600160a01b038716600090815260096020526040902054811015610c51576001600160a01b0387166000908152600960205260409020805487919083908110610d9b57610d9b611d42565b90600052602060002090600702016001015403610fa0576001600160a01b038716600090815260096020526040902080546001919083908110610de057610de0611d42565b906000526020600020906007020160020160006101000a81548160ff0219169083151502179055508660096000896001600160a01b03166001600160a01b031681526020019081526020016000208281548110610e3f57610e3f611d42565b6000918252602080832060079290920290910160050180546001600160a01b0319166001600160a01b039485161790559189168152600990915260409020805485919083908110610e9257610e92611d42565b60009182526020909120600790910201805460ff19166001836004811115610ebc57610ebc6119c3565b02179055506001600160a01b0387166000908152600960205260409020805486919083908110610eee57610eee611d42565b9060005260206000209060070201600601819055506000610f0d6114a3565b9050610f198882611324565b50507ff41efc8c6b66b2a03b14fd69b985ad19a0b9245f24936163018e9ad06d4c143e838888600960008d6001600160a01b03166001600160a01b031681526020019081526020016000208681548110610f7557610f75611d42565b9060005260206000209060070201600301604051610f969493929190611d58565b60405180910390a1505b610fa981611e01565b9050610d4e565b5050505050565b336000818152600660205260408120549091908511156110105760405162461bcd60e51b8152602060048201526014602482015273696e73756666696369656e742062616c616e636560601b604482015260640161046a565b600983106110505760405162461bcd60e51b815260206004820152600d60248201526c6e616d6520746f6f206c6f6e6760981b604482015260640161046a565b6001600160a01b03811660009081526006602052604081208054879290611078908490611d29565b90915550506001600160a01b038616600090815260066020526040812080548792906110a5908490611e1a565b9091555050604080516001600160a01b0388168152602081018790527f69ca02dd4edd7bf0a4abb9ed3b7af3f14778db5d61921c7dc7cd545266326de2910160405180910390a16040805160e0810182526000602080830182905282840182905260608084015260a0830191909152600182526001600160a01b038916608083015260c082018890528251601f87018290048202810182019093528583529091908690869081908401838280828437600092018290525060608601949094525050600580549092915061117790611e01565b91829055506020808301919091526001600160a01b03831660009081526009825260408120805460018181018355918352929091208351600790930201805484939192839160ff1916908360048111156111d3576111d36119c3565b021790555060208201516001820155604082015160028201805460ff19169115159190911790556060820151600382019061120e9082611e91565b5060808201516004820180546001600160a01b039283166001600160a01b03199182161790915560a084015160058401805491909316911617905560c09091015160069091015560075460009067ffffffffffffffff81111561127357611273611e2d565b60405190808252806020026020018201604052801561129c578160200160208202803683370190505b50905060005b6007548110156112e05760018282815181106112c0576112c0611d42565b911515602092830291909101909101526112d981611e01565b90506112a2565b50806000815181106112f4576112f4611d42565b6020026020010151151560011515149350505050949350505050565b6113186118f4565b611322600061193a565b565b60408051606081018252439181019182524281526001600160a01b038481166020830190815260108054600181018255600091825284517f1b6847dc741a1b0cd08d278845f9d819d87b734759afb55fe2de5cb82a9ae67260039092029182015591517f1b6847dc741a1b0cd08d278845f9d819d87b734759afb55fe2de5cb82a9ae673830180546001600160a01b031916919094161790925592517f1b6847dc741a1b0cd08d278845f9d819d87b734759afb55fe2de5cb82a9ae67490930192909255600754829190829067ffffffffffffffff81111561140857611408611e2d565b604051908082528060200260200182016040528015611431578160200160208202803683370190505b50905060005b60075481101561147557600182828151811061145557611455611d42565b9115156020928302919091019091015261146e81611e01565b9050611437565b508060008151811061148957611489611d42565b602090810291909101015115156001149694955050505050565b600080600154600114806114b957506003546001145b156114c2575060015b919050565b60008060005b600581101561151857836001600160a01b0316600b82600581106114f3576114f3611d42565b01546001600160a01b03160361150857600191505b61151181611e01565b90506114cd565b5092915050565b60606010805480602002602001604051908101604052809291908181526020016000905b828210156115985760008481526020908190206040805160608101825260038602909201805483526001808201546001600160a01b031684860152600290910154918301919091529083529092019101611543565b50505050905090565b600b81600581106115b157600080fd5b01546001600160a01b0316905081565b336000818152600a60205260409020548190806116125760405162461bcd60e51b815260206004820152600f60248201526e1b9bdd081dda1a5d195b1a5cdd1959608a1b604482015260640161046a565b600481106116535760405162461bcd60e51b815260206004820152600e60248201526d34b731b7b93932b1ba103a34b2b960911b604482015260640161046a565b6040805160c08101825285815260006020808301828152838501838152606085018481526001608087018181523360a08901818152818952601388528a892099518a559551928901805460ff94851660ff1990911617905593516002890155915160039097018054925194516001600160a01b0316620100000262010000600160b01b03199515156101000261ffff19909416989092169790971791909117929092169190911790935560069052919091205485111561174c5760405162461bcd60e51b8152602060048201526014602482015273496e73756666696369656e742062616c616e636560601b604482015260640161046a565b600385116117915760405162461bcd60e51b8152602060048201526012602482015271416d6f756e74206d757374206265203e203360701b604482015260640161046a565b6001600160a01b038116600090815260066020526040812080548792906117b9908490611d29565b90915550506001600160a01b038616600090815260066020526040812080548792906117e6908490611e1a565b90915550506001600160a01b0381166000908152600a60209081526040808320546006909252822080549192909161181f908490611e1a565b90915550506001600160a01b038082166000908152600a6020908152604080832054938a16835260069091528120805490919061185d908490611d29565b90915550506040516001600160a01b038716907f98eaee7299e9cbfa56cf530fd3a0c6dfa0ccddf4f837b8f025651ad9594647b390600090a2505050505050565b6118a66118f4565b6001600160a01b0381166118e85760405162461bcd60e51b815260206004820152600960248201526830206164647265737360b81b604482015260640161046a565b6118f18161193a565b50565b6000546001600160a01b031633146113225760405162461bcd60e51b81526020600482015260096024820152683737ba1037bbb732b960b91b604482015260640161046a565b600080546001600160a01b038381166001600160a01b0319831681178455604051919092169283917f8be0079c531659141344cd1fd0a4f28419497f9722a3daafe3b4186f6b6457e09190a35050565b80356001600160a01b03811681146114c257600080fd5b6000602082840312156119b357600080fd5b6119bc8261198a565b9392505050565b634e487b7160e01b600052602160045260246000fd5b6000815180845260005b818110156119ff576020818501810151868301820152016119e3565b506000602082860101526020601f19601f83011685010191505092915050565b602080825282518282018190526000919060409081850190600581811b8701840188860187805b85811015611af257603f198b8503018752825160e08151878110611a7857634e487b7160e01b85526021600452602485fd5b8652818b01518b8701528982015115158a870152606080830151818801839052611aa4838901826119d9565b92505050608080830151611ac2828901826001600160a01b03169052565b505060a0828101516001600160a01b03169087015260c09182015191909501529588019591880191600101611a46565b50919a9950505050505050505050565b60008060408385031215611b1557600080fd5b611b1e8361198a565b946020939093013593505050565b60008060008060808587031215611b4257600080fd5b611b4b8561198a565b93506020850135925060408501359150606085013560058110611b6d57600080fd5b939692955090935050565b60008060008060608587031215611b8e57600080fd5b611b978561198a565b935060208501359250604085013567ffffffffffffffff80821115611bbb57600080fd5b818701915087601f830112611bcf57600080fd5b813581811115611bde57600080fd5b886020828501011115611bf057600080fd5b95989497505060200194505050565b60008060408385031215611c1257600080fd5b611c1b8361198a565b915060208301358015158114611c3057600080fd5b809150509250929050565b602080825282518282018190526000919060409081850190868401855b82811015611c9057815180518552868101516001600160a01b0316878601528501518585015260609093019290850190600101611c58565b5091979650505050505050565b600060208284031215611caf57600080fd5b5035919050565b600181811c90821680611cca57607f821691505b602082108103611cea57634e487b7160e01b600052602260045260246000fd5b50919050565b6020808252600990820152683737ba1030b236b4b760b91b604082015260600190565b634e487b7160e01b600052601160045260246000fd5b81810381811115611d3c57611d3c611d13565b92915050565b634e487b7160e01b600052603260045260246000fd5b60018060a01b03851681526000602085818401528460408401526080606084015260008454611d8681611cb6565b80608087015260a0600180841660008114611da85760018114611dc257611df0565b60ff1985168984015283151560051b890183019550611df0565b896000528660002060005b85811015611de85781548b8201860152908301908801611dcd565b8a0184019650505b50939b9a5050505050505050505050565b600060018201611e1357611e13611d13565b5060010190565b80820180821115611d3c57611d3c611d13565b634e487b7160e01b600052604160045260246000fd5b601f8211156108d657600081815260208120601f850160051c81016020861015611e6a5750805b601f850160051c820191505b81811015611e8957828155600101611e76565b505050505050565b815167ffffffffffffffff811115611eab57611eab611e2d565b611ebf81611eb98454611cb6565b84611e43565b602080601f831160018114611ef45760008415611edc5750858301515b600019600386901b1c1916600185901b178555611e89565b600085815260208120601f198616915b82811015611f2357888601518255948401946001909101908401611f04565b5085821015611f415787850151600019600388901b60f8161c191681555b5050505050600190811b0190555056fea2646970667358221220980fade5a976309b1b1573f2d3e4e31d631004b5cb581c0c9e72b97638536f2064736f6c63430008130033fbd610cf0373947747ba15effd5e459c81db984f8723671458c0e8624428ab04",
    "linkReferences": {}
  },
  "methodIdentifiers": {
    "addHistory(address,bool)": "8efcf5c0",
    "addToWhitelist(address,uint256)": "214405fc",
    "administrators(uint256)": "d89d1510",
    "balanceOf(address)": "70a08231",
    "balances(address)": "27e235e3",
    "checkForAdmin(address)": "b52d15e2",
    "dividendFlag()": "745b07c8",
    "getPaymentHistory()": "b651bb61",
    "getPaymentStatus(address)": "888b2284",
    "getPayments(address)": "1d6a1711",
    "getTradingMode()": "9a9f8383",
    "owner()": "8da5cb5b",
    "renounceOwnership()": "715018a6",
    "tradeFlag()": "c43982cc",
    "transfer(address,uint256,string)": "56b8c724",
    "transferOwnership(address)": "f2fde38b",
    "updatePayment(address,uint256,uint256,uint8)": "4e86eb16",
    "whiteTransfer(address,uint256)": "ea28d320",
    "whitelist(address)": "9b19251a"
  },
  "id": 17
}