{
  "abi": [
    {
      "inputs": [
        {
          "internalType": "address[]",
          "name": "_admins",
          "type": "address[]"
        },
        {
          "internalType": "uint256",
          "name": "_totalSupply",
          "type": "uint256"
        }
      ],
      "stateMutability": "nonpayable",
      "type": "constructor"
    },
    {
      "anonymous": false,
      "inputs": [
        {
          "indexed": false,
          "internalType": "address",
          "name": "userAddress",
          "type": "address"
        },
        {
          "indexed": false,
          "internalType": "uint256",
          "name": "tier",
          "type": "uint256"
        }
      ],
      "name": "AddedToWhitelist",
      "type": "event"
    },
    {
      "anonymous": false,
      "inputs": [
        {
          "indexed": true,
          "internalType": "address",
          "name": "",
          "type": "address"
        }
      ],
      "name": "WhiteListTransfer",
      "type": "event"
    },
    {
      "inputs": [
        {
          "internalType": "address",
          "name": "_userAddrs",
          "type": "address"
        },
        {
          "internalType": "uint256",
          "name": "_tier",
          "type": "uint256"
        }
      ],
      "name": "addToWhitelist",
      "outputs": [],
      "stateMutability": "nonpayable",
      "type": "function"
    },
    {
      "inputs": [
        {
          "internalType": "uint256",
          "name": "",
          "type": "uint256"
        }
      ],
      "name": "administrators",
      "outputs": [
        {
          "internalType": "address",
          "name": "",
          "type": "address"
        }
      ],
      "stateMutability": "view",
      "type": "function"
    },
    {
      "inputs": [
        {
          "internalType": "address",
          "name": "_user",
          "type": "address"
        }
      ],
      "name": "balanceOf",
      "outputs": [
        {
          "internalType": "uint256",
          "name": "balance_",
          "type": "uint256"
        }
      ],
      "stateMutability": "view",
      "type": "function"
    },
    {
      "inputs": [
        {
          "internalType": "address",
          "name": "",
          "type": "address"
        }
      ],
      "name": "balances",
      "outputs": [
        {
          "internalType": "uint256",
          "name": "",
          "type": "uint256"
        }
      ],
      "stateMutability": "view",
      "type": "function"
    },
    {
      "inputs": [],
      "name": "dividendFlag",
      "outputs": [
        {
          "internalType": "uint8",
          "name": "",
          "type": "uint8"
        }
      ],
      "stateMutability": "view",
      "type": "function"
    },
    {
      "inputs": [
        {
          "internalType": "address",
          "name": "sender",
          "type": "address"
        }
      ],
      "name": "getPaymentStatus",
      "outputs": [
        {
          "internalType": "bool",
          "name": "_paymentStatus",
          "type": "bool"
        },
        {
          "internalType": "uint256",
          "name": "_amount",
          "type": "uint256"
        }
      ],
      "stateMutability": "view",
      "type": "function"
    },
    {
      "inputs": [
        {
          "internalType": "address",
          "name": "_recipient",
          "type": "address"
        },
        {
          "internalType": "uint256",
          "name": "_amount",
          "type": "uint256"
        },
        {
          "internalType": "string",
          "name": "_name",
          "type": "string"
        }
      ],
      "name": "transfer",
      "outputs": [],
      "stateMutability": "nonpayable",
      "type": "function"
    },
    {
      "inputs": [
        {
          "internalType": "address",
          "name": "_recipient",
          "type": "address"
        },
        {
          "internalType": "uint256",
          "name": "_amount",
          "type": "uint256"
        }
      ],
      "name": "whiteTransfer",
      "outputs": [],
      "stateMutability": "nonpayable",
      "type": "function"
    },
    {
      "inputs": [
        {
          "internalType": "address",
          "name": "",
          "type": "address"
        }
      ],
      "name": "whitelist",
      "outputs": [
        {
          "internalType": "uint256",
          "name": "",
          "type": "uint256"
        }
      ],
      "stateMutability": "view",
      "type": "function"
    }
  ],
  "bytecode": {
    "object": "0x60806040526000805460ff60a01b1916600160a01b17905534801561002357600080fd5b506040516107d23803806107d283398101604081905261004291610146565b600080546001600160a01b0319163317815560018290555b60058160ff16101561010c57828160ff168151811061007b5761007b610212565b602002602001015160058260ff166005811061009957610099610212565b0180546001600160a01b0319166001600160a01b039283161790556000548451911690849060ff84169081106100d1576100d1610212565b60200260200101516001600160a01b03160361010457600154600080546001600160a01b03168152600260205260409020555b60010161005a565b505050610228565b634e487b7160e01b600052604160045260246000fd5b80516001600160a01b038116811461014157600080fd5b919050565b6000806040838503121561015957600080fd5b82516001600160401b038082111561017057600080fd5b818501915085601f83011261018457600080fd5b815160208282111561019857610198610114565b8160051b604051601f19603f830116810181811086821117156101bd576101bd610114565b6040529283528183019350848101820192898411156101db57600080fd5b948201945b83861015610200576101f18661012a565b855294820194938201936101e0565b97909101519698969750505050505050565b634e487b7160e01b600052603260045260246000fd5b61059b806102376000396000f3fe608060405234801561001057600080fd5b50600436106100935760003560e01c8063745b07c811610066578063745b07c81461011c578063888b2284146101365780639b19251a14610181578063d89d1510146101a1578063ea28d320146101cc57600080fd5b8063214405fc1461009857806327e235e3146100ad57806356b8c724146100e057806370a08231146100f3575b600080fd5b6100ab6100a6366004610437565b6101df565b005b6100cd6100bb366004610461565b60026020526000908152604090205481565b6040519081526020015b60405180910390f35b6100ab6100ee366004610483565b61026f565b6100cd610101366004610461565b6001600160a01b031660009081526002602052604090205490565b610124600181565b60405160ff90911681526020016100d7565b61016a610144366004610461565b6001600160a01b031660009081526004602052604090206001810154905460ff90911691565b6040805192151583526020830191909152016100d7565b6100cd61018f366004610461565b60036020526000908152604090205481565b6101b46101af36600461050a565b6102e2565b6040516001600160a01b0390911681526020016100d7565b6100ab6101da366004610437565b610302565b60ff81106101ec57600080fd5b600054600160a01b900460ff1660011461020757600161020a565b60005b6000805460ff92909216600160a01b0260ff60a01b19909216919091179055604080516001600160a01b0384168152602081018390527f62c1e066774519db9fe35767c15fc33df2f016675b7cc0c330ed185f286a2d52910160405180910390a15050565b3360009081526002602052604090205483111561028b57600080fd5b33600090815260026020526040812080548592906102aa908490610539565b90915550506001600160a01b038416600090815260026020526040812080548592906102d7908490610552565b909155505050505050565b600581600581106102f257600080fd5b01546001600160a01b0316905081565b604080518082018252828152600160208083018281523360009081526004835285812094518555905193909201805460ff1916931515939093179092556002909152205481118015906103555750600381115b61035e57600080fd5b336000908152600360205260409020546103789082610552565b3360009081526002602052604081208054909190610397908490610539565b9091555050336000908152600360205260409020546103b69082610539565b6001600160a01b038316600090815260026020526040812080549091906103de908490610552565b90915550506040516001600160a01b038316907f98eaee7299e9cbfa56cf530fd3a0c6dfa0ccddf4f837b8f025651ad9594647b390600090a25050565b80356001600160a01b038116811461043257600080fd5b919050565b6000806040838503121561044a57600080fd5b6104538361041b565b946020939093013593505050565b60006020828403121561047357600080fd5b61047c8261041b565b9392505050565b6000806000806060858703121561049957600080fd5b6104a28561041b565b935060208501359250604085013567ffffffffffffffff808211156104c657600080fd5b818701915087601f8301126104da57600080fd5b8135818111156104e957600080fd5b8860208285010111156104fb57600080fd5b95989497505060200194505050565b60006020828403121561051c57600080fd5b5035919050565b634e487b7160e01b600052601160045260246000fd5b8181038181111561054c5761054c610523565b92915050565b8082018082111561054c5761054c61052356fea26469706673582212205a3b09052be8314dc1fa88afb7c63b5267c090b01a0608be46be553e0f70fb1064736f6c63430008150033",
    "linkReferences": {}
  },
  "methodIdentifiers": {
    "addToWhitelist(address,uint256)": "214405fc",
    "administrators(uint256)": "d89d1510",
    "balanceOf(address)": "70a08231",
    "balances(address)": "27e235e3",
    "dividendFlag()": "745b07c8",
    "getPaymentStatus(address)": "888b2284",
    "transfer(address,uint256,string)": "56b8c724",
    "whiteTransfer(address,uint256)": "ea28d320",
    "whitelist(address)": "9b19251a"
  },
  "id": 17
}