{
  "abi": [
    {
      "inputs": [
        {
          "internalType": "address[]",
          "name": "_admins",
          "type": "address[]"
        },
        {
          "internalType": "uint256",
          "name": "_totalSupply",
          "type": "uint256"
        }
      ],
      "stateMutability": "nonpayable",
      "type": "constructor"
    },
    {
      "anonymous": false,
      "inputs": [
        {
          "indexed": false,
          "internalType": "address",
          "name": "userAddress",
          "type": "address"
        },
        {
          "indexed": false,
          "internalType": "uint256",
          "name": "tier",
          "type": "uint256"
        }
      ],
      "name": "AddedToWhitelist",
      "type": "event"
    },
    {
      "anonymous": false,
      "inputs": [
        {
          "indexed": true,
          "internalType": "address",
          "name": "",
          "type": "address"
        }
      ],
      "name": "WhiteListTransfer",
      "type": "event"
    },
    {
      "inputs": [
        {
          "internalType": "address",
          "name": "_userAddrs",
          "type": "address"
        },
        {
          "internalType": "uint256",
          "name": "_tier",
          "type": "uint256"
        }
      ],
      "name": "addToWhitelist",
      "outputs": [],
      "stateMutability": "nonpayable",
      "type": "function"
    },
    {
      "inputs": [
        {
          "internalType": "uint256",
          "name": "",
          "type": "uint256"
        }
      ],
      "name": "administrators",
      "outputs": [
        {
          "internalType": "address",
          "name": "",
          "type": "address"
        }
      ],
      "stateMutability": "view",
      "type": "function"
    },
    {
      "inputs": [
        {
          "internalType": "address",
          "name": "_user",
          "type": "address"
        }
      ],
      "name": "balanceOf",
      "outputs": [
        {
          "internalType": "uint256",
          "name": "balance_",
          "type": "uint256"
        }
      ],
      "stateMutability": "view",
      "type": "function"
    },
    {
      "inputs": [
        {
          "internalType": "address",
          "name": "",
          "type": "address"
        }
      ],
      "name": "balances",
      "outputs": [
        {
          "internalType": "uint256",
          "name": "",
          "type": "uint256"
        }
      ],
      "stateMutability": "view",
      "type": "function"
    },
    {
      "inputs": [],
      "name": "dividendFlag",
      "outputs": [
        {
          "internalType": "uint8",
          "name": "",
          "type": "uint8"
        }
      ],
      "stateMutability": "view",
      "type": "function"
    },
    {
      "inputs": [
        {
          "internalType": "address",
          "name": "sender",
          "type": "address"
        }
      ],
      "name": "getPaymentStatus",
      "outputs": [
        {
          "internalType": "bool",
          "name": "_paymentStatus",
          "type": "bool"
        },
        {
          "internalType": "uint256",
          "name": "_amount",
          "type": "uint256"
        }
      ],
      "stateMutability": "view",
      "type": "function"
    },
    {
      "inputs": [],
      "name": "tradeFlag",
      "outputs": [
        {
          "internalType": "uint8",
          "name": "",
          "type": "uint8"
        }
      ],
      "stateMutability": "view",
      "type": "function"
    },
    {
      "inputs": [
        {
          "internalType": "address",
          "name": "_recipient",
          "type": "address"
        },
        {
          "internalType": "uint256",
          "name": "_amount",
          "type": "uint256"
        },
        {
          "internalType": "string",
          "name": "_name",
          "type": "string"
        }
      ],
      "name": "transfer",
      "outputs": [],
      "stateMutability": "nonpayable",
      "type": "function"
    },
    {
      "inputs": [
        {
          "internalType": "address",
          "name": "_recipient",
          "type": "address"
        },
        {
          "internalType": "uint256",
          "name": "_amount",
          "type": "uint256"
        }
      ],
      "name": "whiteTransfer",
      "outputs": [],
      "stateMutability": "nonpayable",
      "type": "function"
    },
    {
      "inputs": [
        {
          "internalType": "address",
          "name": "",
          "type": "address"
        }
      ],
      "name": "whitelist",
      "outputs": [
        {
          "internalType": "uint256",
          "name": "",
          "type": "uint256"
        }
      ],
      "stateMutability": "view",
      "type": "function"
    }
  ],
  "bytecode": {
    "object": "0x60806040526000805461ffff191661010017815560015534801561002257600080fd5b5060405161086a38038061086a83398101604081905261004191610149565b600580546001600160a01b03191633179055600181905560005b60058160ff16101561010f57828160ff168151811061007c5761007c610215565b602002602001015160068260ff166005811061009a5761009a610215565b0180546001600160a01b0319166001600160a01b039283161790556005548451911690849060ff84169081106100d2576100d2610215565b60200260200101516001600160a01b031603610107576001546005546001600160a01b03166000908152600260205260409020555b60010161005b565b50505061022b565b634e487b7160e01b600052604160045260246000fd5b80516001600160a01b038116811461014457600080fd5b919050565b6000806040838503121561015c57600080fd5b82516001600160401b038082111561017357600080fd5b818501915085601f83011261018757600080fd5b815160208282111561019b5761019b610117565b8160051b604051601f19603f830116810181811086821117156101c0576101c0610117565b6040529283528183019350848101820192898411156101de57600080fd5b948201945b83861015610203576101f48661012d565b855294820194938201936101e3565b97909101519698969750505050505050565b634e487b7160e01b600052603260045260246000fd5b6106308061023a6000396000f3fe608060405234801561001057600080fd5b506004361061009e5760003560e01c8063888b228411610066578063888b2284146101415780639b19251a1461018c578063c43982cc14610127578063d89d1510146101ac578063ea28d320146101d757600080fd5b8063214405fc146100a357806327e235e3146100b857806356b8c724146100eb57806370a08231146100fe578063745b07c814610127575b600080fd5b6100b66100b13660046104b6565b6101ea565b005b6100d86100c63660046104e0565b60026020526000908152604090205481565b6040519081526020015b60405180910390f35b6100b66100f9366004610502565b61029b565b6100d861010c3660046104e0565b6001600160a01b031660009081526002602052604090205490565b61012f600181565b60405160ff90911681526020016100e2565b61017561014f3660046104e0565b6001600160a01b031660009081526004602052604090206001810154905460ff90911691565b6040805192151583526020830191909152016100e2565b6100d861019a3660046104e0565b60036020526000908152604090205481565b6101bf6101ba366004610589565b61030e565b6040516001600160a01b0390911681526020016100e2565b6100b66101e53660046104b6565b61032e565b6005546001600160a01b0316331480610207575061020733610447565b61021057600080fd5b60ff811061021d57600080fd5b60005460ff6101009091041660011461023757600161023a565b60005b6000805460ff929092166101000261ff0019909216919091179055604080516001600160a01b0384168152602081018390527f62c1e066774519db9fe35767c15fc33df2f016675b7cc0c330ed185f286a2d52910160405180910390a15050565b336000908152600260205260409020548311156102b757600080fd5b33600090815260026020526040812080548592906102d69084906105b8565b90915550506001600160a01b038416600090815260026020526040812080548592906103039084906105d1565b909155505050505050565b6006816005811061031e57600080fd5b01546001600160a01b0316905081565b604080518082018252828152600160208083018281523360009081526004835285812094518555905193909201805460ff1916931515939093179092556002909152205481118015906103815750600381115b61038a57600080fd5b336000908152600360205260409020546103a490826105d1565b33600090815260026020526040812080549091906103c39084906105b8565b9091555050336000908152600360205260409020546103e290826105b8565b6001600160a01b0383166000908152600260205260408120805490919061040a9084906105d1565b90915550506040516001600160a01b038316907f98eaee7299e9cbfa56cf530fd3a0c6dfa0ccddf4f837b8f025651ad9594647b390600090a25050565b6000805b60058160ff16101561049457826001600160a01b031660068260ff1660058110610477576104776105e4565b01546001600160a01b03160361048c57600191505b60010161044b565b50919050565b80356001600160a01b03811681146104b157600080fd5b919050565b600080604083850312156104c957600080fd5b6104d28361049a565b946020939093013593505050565b6000602082840312156104f257600080fd5b6104fb8261049a565b9392505050565b6000806000806060858703121561051857600080fd5b6105218561049a565b935060208501359250604085013567ffffffffffffffff8082111561054557600080fd5b818701915087601f83011261055957600080fd5b81358181111561056857600080fd5b88602082850101111561057a57600080fd5b95989497505060200194505050565b60006020828403121561059b57600080fd5b5035919050565b634e487b7160e01b600052601160045260246000fd5b818103818111156105cb576105cb6105a2565b92915050565b808201808211156105cb576105cb6105a2565b634e487b7160e01b600052603260045260246000fdfea26469706673582212207fc6387dc4c5be4127c945db39663cd876e2a62a7d3dcd4b8a3d5162616a3c4364736f6c63430008140033",
    "linkReferences": {}
  },
  "methodIdentifiers": {
    "addToWhitelist(address,uint256)": "214405fc",
    "administrators(uint256)": "d89d1510",
    "balanceOf(address)": "70a08231",
    "balances(address)": "27e235e3",
    "dividendFlag()": "745b07c8",
    "getPaymentStatus(address)": "888b2284",
    "tradeFlag()": "c43982cc",
    "transfer(address,uint256,string)": "56b8c724",
    "whiteTransfer(address,uint256)": "ea28d320",
    "whitelist(address)": "9b19251a"
  },
  "id": 17
}