{
  "abi": [
    {
      "inputs": [
        {
          "internalType": "address[]",
          "name": "_admins",
          "type": "address[]"
        },
        {
          "internalType": "uint256",
          "name": "_totalSupply",
          "type": "uint256"
        }
      ],
      "stateMutability": "nonpayable",
      "type": "constructor"
    },
    {
      "anonymous": false,
      "inputs": [
        {
          "indexed": false,
          "internalType": "address",
          "name": "userAddress",
          "type": "address"
        },
        {
          "indexed": false,
          "internalType": "uint256",
          "name": "tier",
          "type": "uint256"
        }
      ],
      "name": "AddedToWhitelist",
      "type": "event"
    },
    {
      "anonymous": false,
      "inputs": [
        {
          "indexed": true,
          "internalType": "address",
          "name": "previousOwner",
          "type": "address"
        },
        {
          "indexed": true,
          "internalType": "address",
          "name": "newOwner",
          "type": "address"
        }
      ],
      "name": "OwnershipTransferred",
      "type": "event"
    },
    {
      "anonymous": false,
      "inputs": [
        {
          "indexed": false,
          "internalType": "address",
          "name": "admin",
          "type": "address"
        },
        {
          "indexed": false,
          "internalType": "uint256",
          "name": "ID",
          "type": "uint256"
        },
        {
          "indexed": false,
          "internalType": "uint256",
          "name": "amount",
          "type": "uint256"
        },
        {
          "indexed": false,
          "internalType": "string",
          "name": "recipient",
          "type": "string"
        }
      ],
      "name": "PaymentUpdated",
      "type": "event"
    },
    {
      "anonymous": false,
      "inputs": [
        {
          "indexed": false,
          "internalType": "address",
          "name": "recipient",
          "type": "address"
        },
        {
          "indexed": false,
          "internalType": "uint256",
          "name": "amount",
          "type": "uint256"
        }
      ],
      "name": "Transfer",
      "type": "event"
    },
    {
      "anonymous": false,
      "inputs": [
        {
          "indexed": true,
          "internalType": "address",
          "name": "",
          "type": "address"
        }
      ],
      "name": "WhiteListTransfer",
      "type": "event"
    },
    {
      "anonymous": false,
      "inputs": [
        {
          "indexed": true,
          "internalType": "address",
          "name": "",
          "type": "address"
        },
        {
          "indexed": true,
          "internalType": "uint256",
          "name": "",
          "type": "uint256"
        }
      ],
      "name": "supplyChanged",
      "type": "event"
    },
    {
      "stateMutability": "payable",
      "type": "fallback"
    },
    {
      "inputs": [
        {
          "internalType": "address",
          "name": "_updateAddress",
          "type": "address"
        },
        {
          "internalType": "bool",
          "name": "_tradeMode",
          "type": "bool"
        }
      ],
      "name": "addHistory",
      "outputs": [
        {
          "internalType": "bool",
          "name": "status_",
          "type": "bool"
        },
        {
          "internalType": "bool",
          "name": "tradeMode_",
          "type": "bool"
        }
      ],
      "stateMutability": "nonpayable",
      "type": "function"
    },
    {
      "inputs": [
        {
          "internalType": "address",
          "name": "_userAddrs",
          "type": "address"
        },
        {
          "internalType": "uint256",
          "name": "_tier",
          "type": "uint256"
        }
      ],
      "name": "addToWhitelist",
      "outputs": [],
      "stateMutability": "nonpayable",
      "type": "function"
    },
    {
      "inputs": [
        {
          "internalType": "uint256",
          "name": "",
          "type": "uint256"
        }
      ],
      "name": "administrators",
      "outputs": [
        {
          "internalType": "address",
          "name": "",
          "type": "address"
        }
      ],
      "stateMutability": "view",
      "type": "function"
    },
    {
      "inputs": [
        {
          "internalType": "address",
          "name": "_user",
          "type": "address"
        }
      ],
      "name": "balanceOf",
      "outputs": [
        {
          "internalType": "uint256",
          "name": "balance_",
          "type": "uint256"
        }
      ],
      "stateMutability": "view",
      "type": "function"
    },
    {
      "inputs": [
        {
          "internalType": "address",
          "name": "",
          "type": "address"
        }
      ],
      "name": "balances",
      "outputs": [
        {
          "internalType": "uint256",
          "name": "",
          "type": "uint256"
        }
      ],
      "stateMutability": "view",
      "type": "function"
    },
    {
      "inputs": [],
      "name": "basicFlag",
      "outputs": [
        {
          "internalType": "uint256",
          "name": "",
          "type": "uint256"
        }
      ],
      "stateMutability": "view",
      "type": "function"
    },
    {
      "inputs": [
        {
          "internalType": "address",
          "name": "_user",
          "type": "address"
        }
      ],
      "name": "checkForAdmin",
      "outputs": [
        {
          "internalType": "bool",
          "name": "admin_",
          "type": "bool"
        }
      ],
      "stateMutability": "view",
      "type": "function"
    },
    {
      "inputs": [],
      "name": "contractOwner",
      "outputs": [
        {
          "internalType": "address",
          "name": "",
          "type": "address"
        }
      ],
      "stateMutability": "view",
      "type": "function"
    },
    {
      "inputs": [],
      "name": "dividendFlag",
      "outputs": [
        {
          "internalType": "uint256",
          "name": "",
          "type": "uint256"
        }
      ],
      "stateMutability": "view",
      "type": "function"
    },
    {
      "inputs": [],
      "name": "getPaymentHistory",
      "outputs": [
        {
          "components": [
            {
              "internalType": "uint256",
              "name": "lastUpdate",
              "type": "uint256"
            },
            {
              "internalType": "address",
              "name": "updatedBy",
              "type": "address"
            },
            {
              "internalType": "uint256",
              "name": "blockNumber",
              "type": "uint256"
            }
          ],
          "internalType": "struct GasContract.History[]",
          "name": "paymentHistory_",
          "type": "tuple[]"
        }
      ],
      "stateMutability": "payable",
      "type": "function"
    },
    {
      "inputs": [
        {
          "internalType": "address",
          "name": "sender",
          "type": "address"
        }
      ],
      "name": "getPaymentStatus",
      "outputs": [
        {
          "internalType": "bool",
          "name": "",
          "type": "bool"
        },
        {
          "internalType": "uint256",
          "name": "",
          "type": "uint256"
        }
      ],
      "stateMutability": "view",
      "type": "function"
    },
    {
      "inputs": [
        {
          "internalType": "address",
          "name": "_user",
          "type": "address"
        }
      ],
      "name": "getPayments",
      "outputs": [
        {
          "components": [
            {
              "internalType": "enum GasContract.PaymentType",
              "name": "paymentType",
              "type": "uint8"
            },
            {
              "internalType": "uint256",
              "name": "paymentID",
              "type": "uint256"
            },
            {
              "internalType": "bool",
              "name": "adminUpdated",
              "type": "bool"
            },
            {
              "internalType": "string",
              "name": "recipientName",
              "type": "string"
            },
            {
              "internalType": "address",
              "name": "recipient",
              "type": "address"
            },
            {
              "internalType": "address",
              "name": "admin",
              "type": "address"
            },
            {
              "internalType": "uint256",
              "name": "amount",
              "type": "uint256"
            }
          ],
          "internalType": "struct GasContract.Payment[]",
          "name": "payments_",
          "type": "tuple[]"
        }
      ],
      "stateMutability": "view",
      "type": "function"
    },
    {
      "inputs": [],
      "name": "getTradingMode",
      "outputs": [
        {
          "internalType": "bool",
          "name": "mode_",
          "type": "bool"
        }
      ],
      "stateMutability": "view",
      "type": "function"
    },
    {
      "inputs": [
        {
          "internalType": "address",
          "name": "",
          "type": "address"
        }
      ],
      "name": "isOddWhitelistUser",
      "outputs": [
        {
          "internalType": "uint256",
          "name": "",
          "type": "uint256"
        }
      ],
      "stateMutability": "view",
      "type": "function"
    },
    {
      "inputs": [],
      "name": "isReady",
      "outputs": [
        {
          "internalType": "bool",
          "name": "",
          "type": "bool"
        }
      ],
      "stateMutability": "view",
      "type": "function"
    },
    {
      "inputs": [],
      "name": "owner",
      "outputs": [
        {
          "internalType": "address",
          "name": "",
          "type": "address"
        }
      ],
      "stateMutability": "view",
      "type": "function"
    },
    {
      "inputs": [],
      "name": "paymentCounter",
      "outputs": [
        {
          "internalType": "uint256",
          "name": "",
          "type": "uint256"
        }
      ],
      "stateMutability": "view",
      "type": "function"
    },
    {
      "inputs": [
        {
          "internalType": "uint256",
          "name": "",
          "type": "uint256"
        }
      ],
      "name": "paymentHistory",
      "outputs": [
        {
          "internalType": "uint256",
          "name": "lastUpdate",
          "type": "uint256"
        },
        {
          "internalType": "address",
          "name": "updatedBy",
          "type": "address"
        },
        {
          "internalType": "uint256",
          "name": "blockNumber",
          "type": "uint256"
        }
      ],
      "stateMutability": "view",
      "type": "function"
    },
    {
      "inputs": [
        {
          "internalType": "address",
          "name": "",
          "type": "address"
        },
        {
          "internalType": "uint256",
          "name": "",
          "type": "uint256"
        }
      ],
      "name": "payments",
      "outputs": [
        {
          "internalType": "enum GasContract.PaymentType",
          "name": "paymentType",
          "type": "uint8"
        },
        {
          "internalType": "uint256",
          "name": "paymentID",
          "type": "uint256"
        },
        {
          "internalType": "bool",
          "name": "adminUpdated",
          "type": "bool"
        },
        {
          "internalType": "string",
          "name": "recipientName",
          "type": "string"
        },
        {
          "internalType": "address",
          "name": "recipient",
          "type": "address"
        },
        {
          "internalType": "address",
          "name": "admin",
          "type": "address"
        },
        {
          "internalType": "uint256",
          "name": "amount",
          "type": "uint256"
        }
      ],
      "stateMutability": "view",
      "type": "function"
    },
    {
      "inputs": [],
      "name": "renounceOwnership",
      "outputs": [],
      "stateMutability": "nonpayable",
      "type": "function"
    },
    {
      "inputs": [],
      "name": "totalSupply",
      "outputs": [
        {
          "internalType": "uint256",
          "name": "",
          "type": "uint256"
        }
      ],
      "stateMutability": "view",
      "type": "function"
    },
    {
      "inputs": [],
      "name": "tradeFlag",
      "outputs": [
        {
          "internalType": "uint256",
          "name": "",
          "type": "uint256"
        }
      ],
      "stateMutability": "view",
      "type": "function"
    },
    {
      "inputs": [],
      "name": "tradeMode",
      "outputs": [
        {
          "internalType": "uint256",
          "name": "",
          "type": "uint256"
        }
      ],
      "stateMutability": "view",
      "type": "function"
    },
    {
      "inputs": [],
      "name": "tradePercent",
      "outputs": [
        {
          "internalType": "uint256",
          "name": "",
          "type": "uint256"
        }
      ],
      "stateMutability": "view",
      "type": "function"
    },
    {
      "inputs": [
        {
          "internalType": "address",
          "name": "_recipient",
          "type": "address"
        },
        {
          "internalType": "uint256",
          "name": "_amount",
          "type": "uint256"
        },
        {
          "internalType": "string",
          "name": "_name",
          "type": "string"
        }
      ],
      "name": "transfer",
      "outputs": [
        {
          "internalType": "bool",
          "name": "status_",
          "type": "bool"
        }
      ],
      "stateMutability": "nonpayable",
      "type": "function"
    },
    {
      "inputs": [
        {
          "internalType": "address",
          "name": "newOwner",
          "type": "address"
        }
      ],
      "name": "transferOwnership",
      "outputs": [],
      "stateMutability": "nonpayable",
      "type": "function"
    },
    {
      "inputs": [
        {
          "internalType": "address",
          "name": "_user",
          "type": "address"
        },
        {
          "internalType": "uint256",
          "name": "_ID",
          "type": "uint256"
        },
        {
          "internalType": "uint256",
          "name": "_amount",
          "type": "uint256"
        },
        {
          "internalType": "enum GasContract.PaymentType",
          "name": "_type",
          "type": "uint8"
        }
      ],
      "name": "updatePayment",
      "outputs": [],
      "stateMutability": "nonpayable",
      "type": "function"
    },
    {
      "inputs": [
        {
          "internalType": "address",
          "name": "",
          "type": "address"
        }
      ],
      "name": "whiteListStruct",
      "outputs": [
        {
          "internalType": "uint256",
          "name": "amount",
          "type": "uint256"
        },
        {
          "internalType": "uint256",
          "name": "valueA",
          "type": "uint256"
        },
        {
          "internalType": "uint256",
          "name": "bigValue",
          "type": "uint256"
        },
        {
          "internalType": "uint256",
          "name": "valueB",
          "type": "uint256"
        },
        {
          "internalType": "bool",
          "name": "paymentStatus",
          "type": "bool"
        },
        {
          "internalType": "address",
          "name": "sender",
          "type": "address"
        }
      ],
      "stateMutability": "view",
      "type": "function"
    },
    {
      "inputs": [
        {
          "internalType": "address",
          "name": "_recipient",
          "type": "address"
        },
        {
          "internalType": "uint256",
          "name": "_amount",
          "type": "uint256"
        }
      ],
      "name": "whiteTransfer",
      "outputs": [],
      "stateMutability": "nonpayable",
      "type": "function"
    },
    {
      "inputs": [
        {
          "internalType": "address",
          "name": "",
          "type": "address"
        }
      ],
      "name": "whitelist",
      "outputs": [
        {
          "internalType": "uint256",
          "name": "",
          "type": "uint256"
        }
      ],
      "stateMutability": "view",
      "type": "function"
    },
    {
      "stateMutability": "payable",
      "type": "receive"
    }
  ],
  "bytecode": {
    "object": "0x6080604052600180805560006002819055600382905560048190556005819055600c6007556009556011805460ff191690556013553480156200004157600080fd5b5060405162002dd338038062002dd3833981016040819052620000649162000361565b6200006f33620002de565b600880546001600160a01b03191633179055600481905560005b6005811015620002d55760006001600160a01b0316838281518110620000b357620000b36200043b565b60200260200101516001600160a01b031614620002c057828181518110620000df57620000df6200043b565b6020026020010151600c8260058110620000fd57620000fd6200043b565b0180546001600160a01b0319166001600160a01b0392831617905560085484519116908490839081106200013557620001356200043b565b60200260200101516001600160a01b03160362000170576004546008546001600160a01b0316600090815260066020526040902055620001b8565b6000600660008584815181106200018b576200018b6200043b565b60200260200101516001600160a01b03166001600160a01b03168152602001908152602001600020819055505b60085483516001600160a01b0390911690849083908110620001de57620001de6200043b565b60200260200101516001600160a01b0316036200023f576004548382815181106200020d576200020d6200043b565b60200260200101516001600160a01b031660008051602062002db383398151915260405160405180910390a3620002c0565b60085483516001600160a01b03909116908490839081106200026557620002656200043b565b60200260200101516001600160a01b031614620002c05760008382815181106200029357620002936200043b565b60200260200101516001600160a01b031660008051602062002db383398151915260405160405180910390a35b80620002cc8162000451565b91505062000089565b50505062000479565b600080546001600160a01b038381166001600160a01b0319831681178455604051919092169283917f8be0079c531659141344cd1fd0a4f28419497f9722a3daafe3b4186f6b6457e09190a35050565b634e487b7160e01b600052604160045260246000fd5b80516001600160a01b03811681146200035c57600080fd5b919050565b600080604083850312156200037557600080fd5b82516001600160401b03808211156200038d57600080fd5b818501915085601f830112620003a257600080fd5b8151602082821115620003b957620003b96200032e565b8160051b604051601f19603f83011681018181108682111715620003e157620003e16200032e565b6040529283528183019350848101820192898411156200040057600080fd5b948201945b838610156200042957620004198662000344565b8552948201949382019362000405565b97909101519698969750505050505050565b634e487b7160e01b600052603260045260246000fd5b6000600182016200047257634e487b7160e01b600052601160045260246000fd5b5060010190565b61292a80620004896000396000f3fe6080604052600436106101d15760003560e01c80638efcf5c0116100f7578063b52d15e211610095578063ce606ee011610064578063ce606ee01461067c578063d89d15101461069c578063ea28d320146106bc578063f2fde38b146106dc57610204565b8063b52d15e21461061b578063b651bb611461063b578063c43982cc14610650578063cbd5d73f1461066657610204565b8063a094a031116100d1578063a094a0311461055e578063a30da06914610578578063a5e047b8146105a5578063ab63385c146105e857610204565b80638efcf5c0146104e55780639a9f83831461051c5780639b19251a1461053157610204565b80635de458131161016f578063745b07c81161013e578063745b07c81461042f57806376840b6014610445578063888b22841461045b5780638da5cb5b146104b357610204565b80635de45813146103395780636fd47b44146103ce57806370a08231146103e4578063715018a61461041a57610204565b806327e235e3116101ab57806327e235e3146102a65780632c01c922146102d35780634e86eb16146102e957806356b8c7241461030957610204565b806318160ddd146102305780631d6a171114610259578063214405fc1461028657610204565b366102045760405133903480156108fc02916000818181858888f19350505050158015610202573d6000803e3d6000fd5b005b60405133903480156108fc02916000818181858888f19350505050158015610202573d6000803e3d6000fd5b34801561023c57600080fd5b5061024660045481565b6040519081526020015b60405180910390f35b34801561026557600080fd5b506102796102743660046120f0565b6106fc565b6040516102509190612190565b34801561029257600080fd5b506102026102a1366004612254565b610912565b3480156102b257600080fd5b506102466102c13660046120f0565b60066020526000908152604090205481565b3480156102df57600080fd5b5061024660025481565b3480156102f557600080fd5b5061020261030436600461227e565b610ce8565b34801561031557600080fd5b506103296103243660046122ca565b6112dc565b6040519015158152602001610250565b34801561034557600080fd5b506103966103543660046120f0565b601560205260009081526040902080546001820154600283015460038401546004909401549293919290919060ff81169061010090046001600160a01b031686565b604080519687526020870195909552938501929092526060840152151560808301526001600160a01b031660a082015260c001610250565b3480156103da57600080fd5b5061024660095481565b3480156103f057600080fd5b506102466103ff3660046120f0565b6001600160a01b031660009081526006602052604090205490565b34801561042657600080fd5b506102026116df565b34801561043b57600080fd5b5061024660035481565b34801561045157600080fd5b5061024660055481565b34801561046757600080fd5b5061049c6104763660046120f0565b6001600160a01b031660009081526015602052604090206004810154905460ff90911691565b604080519215158352602083019190915201610250565b3480156104bf57600080fd5b506000546001600160a01b03165b6040516001600160a01b039091168152602001610250565b3480156104f157600080fd5b50610505610500366004612351565b6116f3565b604080519215158352901515602083015201610250565b34801561052857600080fd5b50610329611874565b34801561053d57600080fd5b5061024661054c3660046120f0565b600b6020526000908152604090205481565b34801561056a57600080fd5b506011546103299060ff1681565b34801561058457600080fd5b506102466105933660046120f0565b60146020526000908152604090205481565b3480156105b157600080fd5b506105c56105c036600461238d565b6118a0565b604080519384526001600160a01b03909216602084015290820152606001610250565b3480156105f457600080fd5b50610608610603366004612254565b6118df565b60405161025097969594939291906123a6565b34801561062757600080fd5b506103296106363660046120f0565b6119d7565b610643611a30565b60405161025091906123fa565b34801561065c57600080fd5b5061024660015481565b34801561067257600080fd5b5061024660075481565b34801561068857600080fd5b506008546104cd906001600160a01b031681565b3480156106a857600080fd5b506104cd6106b736600461238d565b611ab2565b3480156106c857600080fd5b506102026106d7366004612254565b611ad2565b3480156106e857600080fd5b506102026106f73660046120f0565b611fb1565b60606001600160a01b0382166107955760405162461bcd60e51b815260206004820152604d60248201527f47617320436f6e7472616374202d206765745061796d656e74732066756e637460448201527f696f6e202d2055736572206d757374206861766520612076616c6964206e6f6e60648201526c207a65726f206164647265737360981b608482015260a4015b60405180910390fd5b6001600160a01b0382166000908152600a6020908152604080832080548251818502810185019093528083529193909284015b82821015610907576000848152602090206040805160e08101909152600784029091018054829060ff16600481111561080357610803612112565b600481111561081457610814612112565b815260018201546020820152600282015460ff16151560408201526003820180546060909201916108449061245c565b80601f01602080910402602001604051908101604052809291908181526020018280546108709061245c565b80156108bd5780601f10610892576101008083540402835291602001916108bd565b820191906000526020600020905b8154815290600101906020018083116108a057829003601f168201915b505050918352505060048201546001600160a01b039081166020808401919091526005840154909116604083015260069092015460609091015290825260019290920191016107c8565b505050509050919050565b3361091c816119d7565b15610b885761092a816119d7565b6109465760405162461bcd60e51b815260040161078c90612496565b60ff82106109665760405162461bcd60e51b815260040161078c906124e6565b6001600160a01b0383166000908152600b6020526040902082905560038211156109d8576001600160a01b0383166000908152600b6020526040812080548492906109b2908490612575565b90915550506001600160a01b0383166000908152600b6020526040902060039055610a8d565b81600103610a2e576001600160a01b0383166000908152600b602052604081208054849290610a08908490612575565b90915550506001600160a01b0383166000908152600b6020526040902060019055610a8d565b600082118015610a3e5750600382105b15610a8d576001600160a01b0383166000908152600b602052604081208054849290610a6b908490612575565b90915550506001600160a01b0383166000908152600b60205260409020600290555b6013546001819003610abd57600060138190556001600160a01b0385168152601460205260409020819055610b40565b80600003610aea5760016013556001600160a01b0384166000908152601460205260409020819055610b40565b60405162461bcd60e51b815260206004820152602560248201527f436f6e7472616374206861636b65642c20696d706f7369626c652c2063616c6c60448201526402068656c760dc1b606482015260840161078c565b604080516001600160a01b0386168152602081018590527f62c1e066774519db9fe35767c15fc33df2f016675b7cc0c330ed185f286a2d52910160405180910390a150505050565b6008546001600160a01b0390811690821603610bbe5760ff82106109665760405162461bcd60e51b815260040161078c906124e6565b60405162461bcd60e51b81526020600482015260d460248201527f4572726f7220696e2047617320636f6e7472616374202d206f6e6c7941646d6960448201527f6e4f724f776e6572206d6f646966696572203a2072657665727420686170706560648201527f6e6564206265636175736520746865206f726967696e61746f72206f6620746860848201527f65207472616e73616374696f6e20776173206e6f74207468652061646d696e2c60a48201527f20616e6420667572746865726d6f7265206865207761736e277420746865206f60c48201527f776e6572206f662074686520636f6e74726163742c20736f2068652063616e6e60e48201527337ba10393ab7103a3434b990333ab731ba34b7b760611b6101048201526101240161078c565b505050565b33610cf2816119d7565b15610ff157610d00816119d7565b610d1c5760405162461bcd60e51b815260040161078c90612496565b60008411610d3c5760405162461bcd60e51b815260040161078c9061258e565b60008311610d5c5760405162461bcd60e51b815260040161078c906125f6565b6001600160a01b038516610d825760405162461bcd60e51b815260040161078c90612662565b3360005b6001600160a01b0387166000908152600a6020526040902054811015610fea576001600160a01b0387166000908152600a60205260409020805487919083908110610dd357610dd36126e5565b90600052602060002090600702016001015403610fd8576001600160a01b0387166000908152600a6020526040902080546001919083908110610e1857610e186126e5565b906000526020600020906007020160020160006101000a81548160ff02191690831515021790555086600a6000896001600160a01b03166001600160a01b031681526020019081526020016000208281548110610e7757610e776126e5565b6000918252602080832060079290920290910160050180546001600160a01b0319166001600160a01b039485161790559189168152600a90915260409020805485919083908110610eca57610eca6126e5565b60009182526020909120600790910201805460ff19166001836004811115610ef457610ef4612112565b02179055506001600160a01b0387166000908152600a60205260409020805486919083908110610f2657610f266126e5565b9060005260206000209060070201600601819055506000610f45611874565b9050610f5188826116f3565b50507ff41efc8c6b66b2a03b14fd69b985ad19a0b9245f24936163018e9ad06d4c143e838888600a60008d6001600160a01b03166001600160a01b031681526020019081526020016000208681548110610fad57610fad6126e5565b9060005260206000209060070201600301604051610fce94939291906126fb565b60405180910390a1505b80610fe2816127a4565b915050610d86565b50506112d5565b6008546001600160a01b0390811690821603610bbe57600084116110275760405162461bcd60e51b815260040161078c9061258e565b600083116110475760405162461bcd60e51b815260040161078c906125f6565b6001600160a01b03851661106d5760405162461bcd60e51b815260040161078c90612662565b3360005b6001600160a01b0387166000908152600a6020526040902054811015610fea576001600160a01b0387166000908152600a602052604090208054879190839081106110be576110be6126e5565b906000526020600020906007020160010154036112c3576001600160a01b0387166000908152600a6020526040902080546001919083908110611103576111036126e5565b906000526020600020906007020160020160006101000a81548160ff02191690831515021790555086600a6000896001600160a01b03166001600160a01b031681526020019081526020016000208281548110611162576111626126e5565b6000918252602080832060079290920290910160050180546001600160a01b0319166001600160a01b039485161790559189168152600a909152604090208054859190839081106111b5576111b56126e5565b60009182526020909120600790910201805460ff191660018360048111156111df576111df612112565b02179055506001600160a01b0387166000908152600a60205260409020805486919083908110611211576112116126e5565b9060005260206000209060070201600601819055506000611230611874565b905061123c88826116f3565b50507ff41efc8c6b66b2a03b14fd69b985ad19a0b9245f24936163018e9ad06d4c143e838888600a60008d6001600160a01b03166001600160a01b031681526020019081526020016000208681548110611298576112986126e5565b90600052602060002090600702016003016040516112b994939291906126fb565b60405180910390a1505b806112cd816127a4565b915050611071565b5050505050565b3360008181526006602052604081205490919085111561136f5760405162461bcd60e51b815260206004820152604260248201527f47617320436f6e7472616374202d205472616e736665722066756e6374696f6e60448201527f202d2053656e6465722068617320696e73756666696369656e742042616c616e606482015261636560f01b608482015260a40161078c565b6009831061141d5760405162461bcd60e51b815260206004820152606960248201527f47617320436f6e7472616374202d205472616e736665722066756e6374696f6e60448201527f202d202054686520726563697069656e74206e616d6520697320746f6f206c6f60648201527f6e672c2074686572652069732061206d6178206c656e677468206f662038206360848201526868617261637465727360b81b60a482015260c40161078c565b6001600160a01b03811660009081526006602052604081208054879290611445908490612575565b90915550506001600160a01b038616600090815260066020526040812080548792906114729084906127bd565b9091555050604080516001600160a01b0388168152602081018790527f69ca02dd4edd7bf0a4abb9ed3b7af3f14778db5d61921c7dc7cd545266326de2910160405180910390a16040805160e0810182526000602080830182905282840182905260608084015260a0830191909152600182526001600160a01b038916608083015260c082018890528251601f870182900482028101820190935285835290919086908690819084018382808284376000920182905250606086019490945250506005805490929150611544906127a4565b91829055506020808301919091526001600160a01b0383166000908152600a825260408120805460018181018355918352929091208351600790930201805484939192839160ff1916908360048111156115a0576115a0612112565b021790555060208201516001820155604082015160028201805460ff1916911515919091179055606082015160038201906115db9082612834565b5060808201516004820180546001600160a01b039283166001600160a01b03199182161790915560a084015160058401805491909316911617905560c09091015160069091015560075460009067ffffffffffffffff811115611640576116406127d0565b604051908082528060200260200182016040528015611669578160200160208202803683370190505b50905060005b6007548110156116af57600182828151811061168d5761168d6126e5565b91151560209283029190910190910152806116a7816127a4565b91505061166f565b50806000815181106116c3576116c36126e5565b6020026020010151151560011515149350505050949350505050565b6116e761202a565b6116f16000612084565b565b60408051606081018252439181019182524281526001600160a01b038481166020830190815260128054600181018255600091825284517fbb8a6a4669ba250d26cd7a459eca9d215f8307e33aebe50379bc5a3617ec344460039092029182015591517fbb8a6a4669ba250d26cd7a459eca9d215f8307e33aebe50379bc5a3617ec3445830180546001600160a01b031916919094161790925592517fbb8a6a4669ba250d26cd7a459eca9d215f8307e33aebe50379bc5a3617ec344690930192909255600754829190829067ffffffffffffffff8111156117d7576117d76127d0565b604051908082528060200260200182016040528015611800578160200160208202803683370190505b50905060005b600754811015611846576001828281518110611824576118246126e5565b911515602092830291909101909101528061183e816127a4565b915050611806565b508060008151811061185a5761185a6126e5565b602090810291909101015115156001149694955050505050565b600180546000918291148061188b57506003546001145b1561189857506001919050565b506000919050565b601281815481106118b057600080fd5b60009182526020909120600390910201805460018201546002909201549092506001600160a01b039091169083565b600a60205281600052604060002081815481106118fb57600080fd5b6000918252602090912060079091020180546001820154600283015460038401805460ff948516975092955092169291906119359061245c565b80601f01602080910402602001604051908101604052809291908181526020018280546119619061245c565b80156119ae5780601f10611983576101008083540402835291602001916119ae565b820191906000526020600020905b81548152906001019060200180831161199157829003601f168201915b505050506004830154600584015460069094015492936001600160a01b03918216939116915087565b600080805b6005811015611a2957836001600160a01b0316600c8260058110611a0257611a026126e5565b01546001600160a01b031603611a1757600191505b80611a21816127a4565b9150506119dc565b5092915050565b60606012805480602002602001604051908101604052809291908181526020016000905b82821015611aa95760008481526020908190206040805160608101825260038602909201805483526001808201546001600160a01b031684860152600290910154918301919091529083529092019101611a54565b50505050905090565b600c8160058110611ac257600080fd5b01546001600160a01b0316905081565b336000818152600b6020526040902054819080611b7d5760405162461bcd60e51b815260206004820152605e60248201527f47617320436f6e747261637420436865636b496657686974654c69737465642060448201527f6d6f646966696572203a207265766572742068617070656e656420626563617560648201527f7365207468652075736572206973206e6f742077686974656c69737465640000608482015260a40161078c565b60048110611ced5760405162461bcd60e51b81526020600482015261010860248201527f47617320436f6e747261637420436865636b496657686974654c69737465642060448201527f6d6f646966696572203a207265766572742068617070656e656420626563617560648201527f73652074686520757365722773207469657220697320696e636f72726563742c60848201527f2069742063616e6e6f74206265206f766572203420617320746865206f6e6c7960a48201527f20746965722077652068617665206172653a20312c20322c20333b207468657260c48201527f666f7265203420697320616e20696e76616c6964207469657220666f7220746860e48201527f6520776869746c697374206f66207468697320636f6e74726163742e206d616b6101048201527f65207375726520776869746c6973742074696572732077657265207365742063610124820152676f72726563746c7960c01b6101448201526101640161078c565b6040805160c08101825285815260006020808301828152838501838152606085018481526001608087018181523360a08901818152818952601588528a892099518a55955192890192909255925160028801559051600387015590516004909501805492516001600160a01b031661010002610100600160a81b0319961515969096166001600160a81b031990931692909217949094179055600690529190912054851115611e155760405162461bcd60e51b815260206004820152604860248201527f47617320436f6e7472616374202d2077686974655472616e736665727320667560448201527f6e6374696f6e202d2053656e6465722068617320696e73756666696369656e746064820152672042616c616e636560c01b608482015260a40161078c565b60038511611ea45760405162461bcd60e51b815260206004820152605060248201527f47617320436f6e7472616374202d2077686974655472616e736665727320667560448201527f6e6374696f6e202d20616d6f756e7420746f2073656e64206861766520746f2060648201526f626520626967676572207468616e203360801b608482015260a40161078c565b6001600160a01b03811660009081526006602052604081208054879290611ecc908490612575565b90915550506001600160a01b03861660009081526006602052604081208054879290611ef99084906127bd565b90915550506001600160a01b0381166000908152600b602090815260408083205460069092528220805491929091611f329084906127bd565b90915550506001600160a01b038082166000908152600b6020908152604080832054938a168352600690915281208054909190611f70908490612575565b90915550506040516001600160a01b038716907f98eaee7299e9cbfa56cf530fd3a0c6dfa0ccddf4f837b8f025651ad9594647b390600090a2505050505050565b611fb961202a565b6001600160a01b03811661201e5760405162461bcd60e51b815260206004820152602660248201527f4f776e61626c653a206e6577206f776e657220697320746865207a65726f206160448201526564647265737360d01b606482015260840161078c565b61202781612084565b50565b6000546001600160a01b031633146116f15760405162461bcd60e51b815260206004820181905260248201527f4f776e61626c653a2063616c6c6572206973206e6f7420746865206f776e6572604482015260640161078c565b600080546001600160a01b038381166001600160a01b0319831681178455604051919092169283917f8be0079c531659141344cd1fd0a4f28419497f9722a3daafe3b4186f6b6457e09190a35050565b80356001600160a01b03811681146120eb57600080fd5b919050565b60006020828403121561210257600080fd5b61210b826120d4565b9392505050565b634e487b7160e01b600052602160045260246000fd5b6005811061214657634e487b7160e01b600052602160045260246000fd5b9052565b6000815180845260005b8181101561217057602081850181015186830182015201612154565b506000602082860101526020601f19601f83011685010191505092915050565b60006020808301818452808551808352604092508286019150828160051b87010184880160005b8381101561224657603f19898403018552815160e06121d7858351612128565b88820151898601528782015115158886015260608083015182828801526122008388018261214a565b6080858101516001600160a01b03908116918a019190915260a0808701519091169089015260c094850151949097019390935250505093860193908601906001016121b7565b509098975050505050505050565b6000806040838503121561226757600080fd5b612270836120d4565b946020939093013593505050565b6000806000806080858703121561229457600080fd5b61229d856120d4565b935060208501359250604085013591506060850135600581106122bf57600080fd5b939692955090935050565b600080600080606085870312156122e057600080fd5b6122e9856120d4565b935060208501359250604085013567ffffffffffffffff8082111561230d57600080fd5b818701915087601f83011261232157600080fd5b81358181111561233057600080fd5b88602082850101111561234257600080fd5b95989497505060200194505050565b6000806040838503121561236457600080fd5b61236d836120d4565b91506020830135801515811461238257600080fd5b809150509250929050565b60006020828403121561239f57600080fd5b5035919050565b6123b08189612128565b866020820152851515604082015260e0606082015260006123d460e083018761214a565b6001600160a01b0395861660808401529390941660a082015260c0015295945050505050565b602080825282518282018190526000919060409081850190868401855b8281101561244f57815180518552868101516001600160a01b0316878601528501518585015260609093019290850190600101612417565b5091979650505050505050565b600181811c9082168061247057607f821691505b60208210810361249057634e487b7160e01b600052602260045260246000fd5b50919050565b60208082526030908201527f47617320436f6e7472616374204f6e6c792041646d696e20436865636b2d202060408201526f21b0b63632b9103737ba1030b236b4b760811b606082015260800190565b60208082526053908201527f47617320436f6e7472616374202d20616464546f57686974656c69737420667560408201527f6e6374696f6e202d202074696572206c6576656c2073686f756c64206e6f742060608201527262652067726561746572207468616e2032353560681b608082015260a00190565b634e487b7160e01b600052601160045260246000fd5b818103818111156125885761258861255f565b92915050565b60208082526042908201527f47617320436f6e7472616374202d20557064617465205061796d656e7420667560408201527f6e6374696f6e202d204944206d7573742062652067726561746572207468616e606082015261020360f41b608082015260a00190565b60208082526046908201527f47617320436f6e7472616374202d20557064617465205061796d656e7420667560408201527f6e6374696f6e202d20416d6f756e74206d75737420626520677265617465722060608201526507468616e20360d41b608082015260a00190565b60208082526059908201527f47617320436f6e7472616374202d20557064617465205061796d656e7420667560408201527f6e6374696f6e202d2041646d696e6973747261746f72206d757374206861766560608201527f20612076616c6964206e6f6e207a65726f206164647265737300000000000000608082015260a00190565b634e487b7160e01b600052603260045260246000fd5b60018060a01b038516815260006020858184015284604084015260806060840152600084546127298161245c565b80608087015260a060018084166000811461274b576001811461276557612793565b60ff1985168984015283151560051b890183019550612793565b896000528660002060005b8581101561278b5781548b8201860152908301908801612770565b8a0184019650505b50939b9a5050505050505050505050565b6000600182016127b6576127b661255f565b5060010190565b808201808211156125885761258861255f565b634e487b7160e01b600052604160045260246000fd5b601f821115610ce357600081815260208120601f850160051c8101602086101561280d5750805b601f850160051c820191505b8181101561282c57828155600101612819565b505050505050565b815167ffffffffffffffff81111561284e5761284e6127d0565b6128628161285c845461245c565b846127e6565b602080601f831160018114612897576000841561287f5750858301515b600019600386901b1c1916600185901b17855561282c565b600085815260208120601f198616915b828110156128c6578886015182559484019460019091019084016128a7565b50858210156128e45787850151600019600388901b60f8161c191681555b5050505050600190811b0190555056fea2646970667358221220864b372df2f75df491ad6071dcb85c430009f8b56c63ff58339f6aab30c87c0c64736f6c63430008120033fbd610cf0373947747ba15effd5e459c81db984f8723671458c0e8624428ab04",
    "linkReferences": {}
  },
  "methodIdentifiers": {
    "addHistory(address,bool)": "8efcf5c0",
    "addToWhitelist(address,uint256)": "214405fc",
    "administrators(uint256)": "d89d1510",
    "balanceOf(address)": "70a08231",
    "balances(address)": "27e235e3",
    "basicFlag()": "2c01c922",
    "checkForAdmin(address)": "b52d15e2",
    "contractOwner()": "ce606ee0",
    "dividendFlag()": "745b07c8",
    "getPaymentHistory()": "b651bb61",
    "getPaymentStatus(address)": "888b2284",
    "getPayments(address)": "1d6a1711",
    "getTradingMode()": "9a9f8383",
    "isOddWhitelistUser(address)": "a30da069",
    "isReady()": "a094a031",
    "owner()": "8da5cb5b",
    "paymentCounter()": "76840b60",
    "paymentHistory(uint256)": "a5e047b8",
    "payments(address,uint256)": "ab63385c",
    "renounceOwnership()": "715018a6",
    "totalSupply()": "18160ddd",
    "tradeFlag()": "c43982cc",
    "tradeMode()": "6fd47b44",
    "tradePercent()": "cbd5d73f",
    "transfer(address,uint256,string)": "56b8c724",
    "transferOwnership(address)": "f2fde38b",
    "updatePayment(address,uint256,uint256,uint8)": "4e86eb16",
    "whiteListStruct(address)": "5de45813",
    "whiteTransfer(address,uint256)": "ea28d320",
    "whitelist(address)": "9b19251a"
  },
  "storageLayout": {
    "storage": [
      {
        "astId": 29454,
        "contract": "src/Gas.sol:GasContract",
        "label": "_owner",
        "offset": 0,
        "slot": "0",
        "type": "t_address"
      },
      {
        "astId": 28394,
        "contract": "src/Gas.sol:GasContract",
        "label": "tradeFlag",
        "offset": 0,
        "slot": "1",
        "type": "t_uint256"
      },
      {
        "astId": 28397,
        "contract": "src/Gas.sol:GasContract",
        "label": "basicFlag",
        "offset": 0,
        "slot": "2",
        "type": "t_uint256"
      },
      {
        "astId": 28400,
        "contract": "src/Gas.sol:GasContract",
        "label": "dividendFlag",
        "offset": 0,
        "slot": "3",
        "type": "t_uint256"
      },
      {
        "astId": 28408,
        "contract": "src/Gas.sol:GasContract",
        "label": "totalSupply",
        "offset": 0,
        "slot": "4",
        "type": "t_uint256"
      },
      {
        "astId": 28411,
        "contract": "src/Gas.sol:GasContract",
        "label": "paymentCounter",
        "offset": 0,
        "slot": "5",
        "type": "t_uint256"
      },
      {
        "astId": 28415,
        "contract": "src/Gas.sol:GasContract",
        "label": "balances",
        "offset": 0,
        "slot": "6",
        "type": "t_mapping(t_address,t_uint256)"
      },
      {
        "astId": 28418,
        "contract": "src/Gas.sol:GasContract",
        "label": "tradePercent",
        "offset": 0,
        "slot": "7",
        "type": "t_uint256"
      },
      {
        "astId": 28420,
        "contract": "src/Gas.sol:GasContract",
        "label": "contractOwner",
        "offset": 0,
        "slot": "8",
        "type": "t_address"
      },
      {
        "astId": 28423,
        "contract": "src/Gas.sol:GasContract",
        "label": "tradeMode",
        "offset": 0,
        "slot": "9",
        "type": "t_uint256"
      },
      {
        "astId": 28429,
        "contract": "src/Gas.sol:GasContract",
        "label": "payments",
        "offset": 0,
        "slot": "10",
        "type": "t_mapping(t_address,t_array(t_struct(Payment)28471_storage)dyn_storage)"
      },
      {
        "astId": 28433,
        "contract": "src/Gas.sol:GasContract",
        "label": "whitelist",
        "offset": 0,
        "slot": "11",
        "type": "t_mapping(t_address,t_uint256)"
      },
      {
        "astId": 28437,
        "contract": "src/Gas.sol:GasContract",
        "label": "administrators",
        "offset": 0,
        "slot": "12",
        "type": "t_array(t_address)5_storage"
      },
      {
        "astId": 28440,
        "contract": "src/Gas.sol:GasContract",
        "label": "isReady",
        "offset": 0,
        "slot": "17",
        "type": "t_bool"
      },
      {
        "astId": 28455,
        "contract": "src/Gas.sol:GasContract",
        "label": "paymentHistory",
        "offset": 0,
        "slot": "18",
        "type": "t_array(t_struct(History)28478_storage)dyn_storage"
      },
      {
        "astId": 28481,
        "contract": "src/Gas.sol:GasContract",
        "label": "wasLastOdd",
        "offset": 0,
        "slot": "19",
        "type": "t_uint256"
      },
      {
        "astId": 28485,
        "contract": "src/Gas.sol:GasContract",
        "label": "isOddWhitelistUser",
        "offset": 0,
        "slot": "20",
        "type": "t_mapping(t_address,t_uint256)"
      },
      {
        "astId": 28503,
        "contract": "src/Gas.sol:GasContract",
        "label": "whiteListStruct",
        "offset": 0,
        "slot": "21",
        "type": "t_mapping(t_address,t_struct(ImportantStruct)28498_storage)"
      }
    ],
    "types": {
      "t_address": {
        "encoding": "inplace",
        "label": "address",
        "numberOfBytes": "20"
      },
      "t_array(t_address)5_storage": {
        "encoding": "inplace",
        "label": "address[5]",
        "numberOfBytes": "160",
        "base": "t_address"
      },
      "t_array(t_struct(History)28478_storage)dyn_storage": {
        "encoding": "dynamic_array",
        "label": "struct GasContract.History[]",
        "numberOfBytes": "32",
        "base": "t_struct(History)28478_storage"
      },
      "t_array(t_struct(Payment)28471_storage)dyn_storage": {
        "encoding": "dynamic_array",
        "label": "struct GasContract.Payment[]",
        "numberOfBytes": "32",
        "base": "t_struct(Payment)28471_storage"
      },
      "t_bool": {
        "encoding": "inplace",
        "label": "bool",
        "numberOfBytes": "1"
      },
      "t_enum(PaymentType)28446": {
        "encoding": "inplace",
        "label": "enum GasContract.PaymentType",
        "numberOfBytes": "1"
      },
      "t_mapping(t_address,t_array(t_struct(Payment)28471_storage)dyn_storage)": {
        "encoding": "mapping",
        "key": "t_address",
        "label": "mapping(address => struct GasContract.Payment[])",
        "numberOfBytes": "32",
        "value": "t_array(t_struct(Payment)28471_storage)dyn_storage"
      },
      "t_mapping(t_address,t_struct(ImportantStruct)28498_storage)": {
        "encoding": "mapping",
        "key": "t_address",
        "label": "mapping(address => struct GasContract.ImportantStruct)",
        "numberOfBytes": "32",
        "value": "t_struct(ImportantStruct)28498_storage"
      },
      "t_mapping(t_address,t_uint256)": {
        "encoding": "mapping",
        "key": "t_address",
        "label": "mapping(address => uint256)",
        "numberOfBytes": "32",
        "value": "t_uint256"
      },
      "t_string_storage": {
        "encoding": "bytes",
        "label": "string",
        "numberOfBytes": "32"
      },
      "t_struct(History)28478_storage": {
        "encoding": "inplace",
        "label": "struct GasContract.History",
        "numberOfBytes": "96",
        "members": [
          {
            "astId": 28473,
            "contract": "src/Gas.sol:GasContract",
            "label": "lastUpdate",
            "offset": 0,
            "slot": "0",
            "type": "t_uint256"
          },
          {
            "astId": 28475,
            "contract": "src/Gas.sol:GasContract",
            "label": "updatedBy",
            "offset": 0,
            "slot": "1",
            "type": "t_address"
          },
          {
            "astId": 28477,
            "contract": "src/Gas.sol:GasContract",
            "label": "blockNumber",
            "offset": 0,
            "slot": "2",
            "type": "t_uint256"
          }
        ]
      },
      "t_struct(ImportantStruct)28498_storage": {
        "encoding": "inplace",
        "label": "struct GasContract.ImportantStruct",
        "numberOfBytes": "160",
        "members": [
          {
            "astId": 28487,
            "contract": "src/Gas.sol:GasContract",
            "label": "amount",
            "offset": 0,
            "slot": "0",
            "type": "t_uint256"
          },
          {
            "astId": 28489,
            "contract": "src/Gas.sol:GasContract",
            "label": "valueA",
            "offset": 0,
            "slot": "1",
            "type": "t_uint256"
          },
          {
            "astId": 28491,
            "contract": "src/Gas.sol:GasContract",
            "label": "bigValue",
            "offset": 0,
            "slot": "2",
            "type": "t_uint256"
          },
          {
            "astId": 28493,
            "contract": "src/Gas.sol:GasContract",
            "label": "valueB",
            "offset": 0,
            "slot": "3",
            "type": "t_uint256"
          },
          {
            "astId": 28495,
            "contract": "src/Gas.sol:GasContract",
            "label": "paymentStatus",
            "offset": 0,
            "slot": "4",
            "type": "t_bool"
          },
          {
            "astId": 28497,
            "contract": "src/Gas.sol:GasContract",
            "label": "sender",
            "offset": 1,
            "slot": "4",
            "type": "t_address"
          }
        ]
      },
      "t_struct(Payment)28471_storage": {
        "encoding": "inplace",
        "label": "struct GasContract.Payment",
        "numberOfBytes": "224",
        "members": [
          {
            "astId": 28458,
            "contract": "src/Gas.sol:GasContract",
            "label": "paymentType",
            "offset": 0,
            "slot": "0",
            "type": "t_enum(PaymentType)28446"
          },
          {
            "astId": 28460,
            "contract": "src/Gas.sol:GasContract",
            "label": "paymentID",
            "offset": 0,
            "slot": "1",
            "type": "t_uint256"
          },
          {
            "astId": 28462,
            "contract": "src/Gas.sol:GasContract",
            "label": "adminUpdated",
            "offset": 0,
            "slot": "2",
            "type": "t_bool"
          },
          {
            "astId": 28464,
            "contract": "src/Gas.sol:GasContract",
            "label": "recipientName",
            "offset": 0,
            "slot": "3",
            "type": "t_string_storage"
          },
          {
            "astId": 28466,
            "contract": "src/Gas.sol:GasContract",
            "label": "recipient",
            "offset": 0,
            "slot": "4",
            "type": "t_address"
          },
          {
            "astId": 28468,
            "contract": "src/Gas.sol:GasContract",
            "label": "admin",
            "offset": 0,
            "slot": "5",
            "type": "t_address"
          },
          {
            "astId": 28470,
            "contract": "src/Gas.sol:GasContract",
            "label": "amount",
            "offset": 0,
            "slot": "6",
            "type": "t_uint256"
          }
        ]
      },
      "t_uint256": {
        "encoding": "inplace",
        "label": "uint256",
        "numberOfBytes": "32"
      }
    }
  },
  "id": 17
}