{
  "abi": [
    {
      "inputs": [
        {
          "internalType": "address[]",
          "name": "_admins",
          "type": "address[]"
        },
        {
          "internalType": "uint256",
          "name": "_totalSupply",
          "type": "uint256"
        }
      ],
      "stateMutability": "payable",
      "type": "constructor"
    },
    {
      "anonymous": false,
      "inputs": [
        {
          "indexed": false,
          "internalType": "address",
          "name": "userAddress",
          "type": "address"
        },
        {
          "indexed": false,
          "internalType": "uint256",
          "name": "tier",
          "type": "uint256"
        }
      ],
      "name": "AddedToWhitelist",
      "type": "event"
    },
    {
      "anonymous": false,
      "inputs": [
        {
          "indexed": false,
          "internalType": "address",
          "name": "recipient",
          "type": "address"
        },
        {
          "indexed": false,
          "internalType": "uint256",
          "name": "amount",
          "type": "uint256"
        }
      ],
      "name": "Transfer",
      "type": "event"
    },
    {
      "anonymous": false,
      "inputs": [
        {
          "indexed": true,
          "internalType": "address",
          "name": "",
          "type": "address"
        }
      ],
      "name": "WhiteListTransfer",
      "type": "event"
    },
    {
      "anonymous": false,
      "inputs": [
        {
          "indexed": true,
          "internalType": "address",
          "name": "",
          "type": "address"
        },
        {
          "indexed": true,
          "internalType": "uint256",
          "name": "",
          "type": "uint256"
        }
      ],
      "name": "supplyChanged",
      "type": "event"
    },
    {
      "inputs": [
        {
          "internalType": "address",
          "name": "_userAddrs",
          "type": "address"
        },
        {
          "internalType": "uint256",
          "name": "_tier",
          "type": "uint256"
        }
      ],
      "name": "addToWhitelist",
      "outputs": [],
      "stateMutability": "payable",
      "type": "function"
    },
    {
      "inputs": [
        {
          "internalType": "uint256",
          "name": "",
          "type": "uint256"
        }
      ],
      "name": "administrators",
      "outputs": [
        {
          "internalType": "address",
          "name": "",
          "type": "address"
        }
      ],
      "stateMutability": "view",
      "type": "function"
    },
    {
      "inputs": [
        {
          "internalType": "address",
          "name": "_user",
          "type": "address"
        }
      ],
      "name": "balanceOf",
      "outputs": [
        {
          "internalType": "uint256",
          "name": "balance_",
          "type": "uint256"
        }
      ],
      "stateMutability": "view",
      "type": "function"
    },
    {
      "inputs": [
        {
          "internalType": "address",
          "name": "",
          "type": "address"
        }
      ],
      "name": "balances",
      "outputs": [
        {
          "internalType": "uint256",
          "name": "",
          "type": "uint256"
        }
      ],
      "stateMutability": "view",
      "type": "function"
    },
    {
      "inputs": [
        {
          "internalType": "address",
          "name": "_user",
          "type": "address"
        }
      ],
      "name": "checkForAdmin",
      "outputs": [
        {
          "internalType": "bool",
          "name": "admin_",
          "type": "bool"
        }
      ],
      "stateMutability": "view",
      "type": "function"
    },
    {
      "inputs": [
        {
          "internalType": "address",
          "name": "sender",
          "type": "address"
        }
      ],
      "name": "getPaymentStatus",
      "outputs": [
        {
          "internalType": "bool",
          "name": "",
          "type": "bool"
        },
        {
          "internalType": "uint256",
          "name": "",
          "type": "uint256"
        }
      ],
      "stateMutability": "view",
      "type": "function"
    },
    {
      "inputs": [],
      "name": "owner",
      "outputs": [
        {
          "internalType": "address",
          "name": "",
          "type": "address"
        }
      ],
      "stateMutability": "view",
      "type": "function"
    },
    {
      "inputs": [
        {
          "internalType": "address",
          "name": "_recipient",
          "type": "address"
        },
        {
          "internalType": "uint256",
          "name": "_amount",
          "type": "uint256"
        },
        {
          "internalType": "string",
          "name": "_name",
          "type": "string"
        }
      ],
      "name": "transfer",
      "outputs": [
        {
          "internalType": "bool",
          "name": "status_",
          "type": "bool"
        }
      ],
      "stateMutability": "payable",
      "type": "function"
    },
    {
      "inputs": [
        {
          "internalType": "address",
          "name": "_recipient",
          "type": "address"
        },
        {
          "internalType": "uint256",
          "name": "_amount",
          "type": "uint256"
        }
      ],
      "name": "whiteTransfer",
      "outputs": [],
      "stateMutability": "payable",
      "type": "function"
    },
    {
      "inputs": [
        {
          "internalType": "address",
          "name": "",
          "type": "address"
        }
      ],
      "name": "whitelist",
      "outputs": [
        {
          "internalType": "uint256",
          "name": "",
          "type": "uint256"
        }
      ],
      "stateMutability": "view",
      "type": "function"
    }
  ],
  "bytecode": {
    "object": "0x60e06040819052600c60a05262000f36388190039081908339810160408190526200002a91620002a5565b600080546001600160a01b031916331790553360c052608081905260005b6005811015620002695760006001600160a01b03168382815181106200007257620000726200037f565b60200260200101516001600160a01b03161462000260578281815181106200009e576200009e6200037f565b602002602001015160048260058110620000bc57620000bc6200037f565b0180546001600160a01b0319166001600160a01b0392831617905560c0518451911690849083908110620000f457620000f46200037f565b60200260200101516001600160a01b0316036200012f5760805160c0516001600160a01b031660009081526001602052604090205562000162565b600160008483815181106200014857620001486200037f565b6020908102919091018101516001600160a01b0316825201525b60c0516001600160a01b03168382815181106200018357620001836200037f565b60200260200101516001600160a01b031603620001e457608051838281518110620001b257620001b26200037f565b60200260200101516001600160a01b031660008051602062000f1683398151915260405160405180910390a362000260565b60c0516001600160a01b03168382815181106200020557620002056200037f565b60200260200101516001600160a01b031614620002605760008382815181106200023357620002336200037f565b60200260200101516001600160a01b031660008051602062000f1683398151915260405160405180910390a35b60010162000048565b50505062000395565b634e487b7160e01b600052604160045260246000fd5b80516001600160a01b0381168114620002a057600080fd5b919050565b60008060408385031215620002b957600080fd5b82516001600160401b0380821115620002d157600080fd5b818501915085601f830112620002e657600080fd5b8151602082821115620002fd57620002fd62000272565b8160051b604051601f19603f8301168101818110868211171562000325576200032562000272565b6040529283528183019350848101820192898411156200034457600080fd5b948201945b838610156200036d576200035d8662000288565b8552948201949382019362000349565b97909101519698969750505050505050565b634e487b7160e01b600052603260045260246000fd5b60805160a05160c051610b4d620003c9600039600061039e0152600081816106080152610671015260005050610b4d6000f3fe6080604052600436106100915760003560e01c80638da5cb5b116100595780638da5cb5b146101a15780639b19251a146101d3578063b52d15e214610200578063d89d151014610220578063ea28d3201461024057600080fd5b8063214405fc1461009657806327e235e3146100ab57806356b8c724146100eb57806370a082311461010e578063888b228414610144575b600080fd5b6100a96100a43660046108a1565b610253565b005b3480156100b757600080fd5b506100d86100c63660046108cb565b60016020526000908152604090205481565b6040519081526020015b60405180910390f35b6100fe6100f93660046108ed565b6103e7565b60405190151581526020016100e2565b34801561011a57600080fd5b506100d86101293660046108cb565b6001600160a01b031660009081526001602052604090205490565b34801561015057600080fd5b5061018a61015f3660046108cb565b6001600160a01b03166000908152600a60205260409020600281015490546201000090910460ff1691565b6040805192151583526020830191909152016100e2565b3480156101ad57600080fd5b506000546001600160a01b03165b6040516001600160a01b0390911681526020016100e2565b3480156101df57600080fd5b506100d86101ee3660046108cb565b60036020526000908152604090205481565b34801561020c57600080fd5b506100fe61021b3660046108cb565b6106f6565b34801561022c57600080fd5b506101bb61023b366004610974565b610746565b6100a961024e3660046108a1565b610766565b3361025d816106f6565b1561039c5761026b816106f6565b61027457600080fd5b60ff821061028157600080fd5b6001600160a01b03831660009081526003602081905260409091208390558211156102c7576001600160a01b038316600090815260036020819052604090912055610322565b816001036102f0576001600160a01b038316600090815260036020526040902060019055610322565b6000821180156103005750600382105b15610322576001600160a01b0383166000908152600360205260409020600290555b600054600160a81b900460ff166001819003610354576001600160a01b03841660009081526009602052604090208190555b604080516001600160a01b0386168152602081018590527f62c1e066774519db9fe35767c15fc33df2f016675b7cc0c330ed185f286a2d52910160405180910390a150505050565b7f00000000000000000000000000000000000000000000000000000000000000006001600160a01b0316816001600160a01b0316036100915760ff821061028157600080fd5b505050565b3360008181526001602052604081205490919085111561040657600080fd5b6009831061041357600080fd5b6001600160a01b03818116600090815260016020908152604080832080548a9003905592891680835291839020805489019055825191825281018790527f69ca02dd4edd7bf0a4abb9ed3b7af3f14778db5d61921c7dc7cd545266326de2910160405180910390a16040805160e0810182526000602080830182905282840182905260608084015260a0830191909152600182526001600160a01b038916608083015260c082018890528251601f870182900482028101820190935285835290919086908690819084018382808284376000920182905250606086019490945250508154600160ff600160a01b8084048216830190911690810260ff60a01b199093169290921784556020808601929092526001600160a01b038616845260028252604084208054808301825590855291909320845160059092020180548594919350839160ff19909116908360048111156105715761057161098d565b02179055506020820151815460408401511515620100000262ff00001960ff909316610100029290921662ffff001990911617178155606082015160018201906105bb9082610a41565b5060808201516002820180546001600160a01b039283166001600160a01b03199182161790915560a084015160038401805491909316911617905560c090910151600490910155600060ff7f00000000000000000000000000000000000000000000000000000000000000001667ffffffffffffffff811115610640576106406109a3565b604051908082528060200260200182016040528015610669578160200160208202803683370190505b50905060005b7f000000000000000000000000000000000000000000000000000000000000000060ff168110156106c65760018282815181106106ae576106ae610b01565b9115156020928302919091019091015260010161066f565b50806000815181106106da576106da610b01565b6020026020010151151560011515149350505050949350505050565b60008060005b600581101561073f57836001600160a01b03166004826005811061072257610722610b01565b01546001600160a01b03160361073757600191505b6001016106fc565b5092915050565b6004816005811061075657600080fd5b01546001600160a01b0316905081565b3360008181526003602090815260408083208054825160c0810184528781528085018681528185018781526060830188815260016080850181815260a086018c81528c8c52600a8b52898c209651875594518683015592516002909501805492519351945160ff96871661ffff199094169390931761010096909416959095029290921762010000600160b81b03191662010000931515939093026301000000600160b81b0319169290921763010000006001600160a01b03938416021790925594528285208054889003815593881680865283862080548901815583548654019095559154845403909355905184938492917f98eaee7299e9cbfa56cf530fd3a0c6dfa0ccddf4f837b8f025651ad9594647b39190a2505050505050565b80356001600160a01b038116811461089c57600080fd5b919050565b600080604083850312156108b457600080fd5b6108bd83610885565b946020939093013593505050565b6000602082840312156108dd57600080fd5b6108e682610885565b9392505050565b6000806000806060858703121561090357600080fd5b61090c85610885565b935060208501359250604085013567ffffffffffffffff8082111561093057600080fd5b818701915087601f83011261094457600080fd5b81358181111561095357600080fd5b88602082850101111561096557600080fd5b95989497505060200194505050565b60006020828403121561098657600080fd5b5035919050565b634e487b7160e01b600052602160045260246000fd5b634e487b7160e01b600052604160045260246000fd5b600181811c908216806109cd57607f821691505b6020821081036109ed57634e487b7160e01b600052602260045260246000fd5b50919050565b601f8211156103e257600081815260208120601f850160051c81016020861015610a1a5750805b601f850160051c820191505b81811015610a3957828155600101610a26565b505050505050565b815167ffffffffffffffff811115610a5b57610a5b6109a3565b610a6f81610a6984546109b9565b846109f3565b602080601f831160018114610aa45760008415610a8c5750858301515b600019600386901b1c1916600185901b178555610a39565b600085815260208120601f198616915b82811015610ad357888601518255948401946001909101908401610ab4565b5085821015610af15787850151600019600388901b60f8161c191681555b5050505050600190811b01905550565b634e487b7160e01b600052603260045260246000fdfea2646970667358221220984b7104a26d50d3d8cd02fe0a95cbb9d57e522c4877e31964c60c3cc9aa65d264736f6c63430008130033fbd610cf0373947747ba15effd5e459c81db984f8723671458c0e8624428ab04",
    "linkReferences": {}
  },
  "methodIdentifiers": {
    "addToWhitelist(address,uint256)": "214405fc",
    "administrators(uint256)": "d89d1510",
    "balanceOf(address)": "70a08231",
    "balances(address)": "27e235e3",
    "checkForAdmin(address)": "b52d15e2",
    "getPaymentStatus(address)": "888b2284",
    "owner()": "8da5cb5b",
    "transfer(address,uint256,string)": "56b8c724",
    "whiteTransfer(address,uint256)": "ea28d320",
    "whitelist(address)": "9b19251a"
  },
  "id": 17
}