{
  "abi": [
    {
      "inputs": [
        {
          "internalType": "address[]",
          "name": "_admins",
          "type": "address[]"
        },
        {
          "internalType": "uint256",
          "name": "_totalSupply",
          "type": "uint256"
        }
      ],
      "stateMutability": "payable",
      "type": "constructor"
    },
    {
      "anonymous": false,
      "inputs": [
        {
          "indexed": false,
          "internalType": "address",
          "name": "userAddress",
          "type": "address"
        },
        {
          "indexed": false,
          "internalType": "uint256",
          "name": "tier",
          "type": "uint256"
        }
      ],
      "name": "AddedToWhitelist",
      "type": "event"
    },
    {
      "anonymous": false,
      "inputs": [
        {
          "indexed": false,
          "internalType": "address",
          "name": "recipient",
          "type": "address"
        },
        {
          "indexed": false,
          "internalType": "uint256",
          "name": "amount",
          "type": "uint256"
        }
      ],
      "name": "Transfer",
      "type": "event"
    },
    {
      "anonymous": false,
      "inputs": [
        {
          "indexed": true,
          "internalType": "address",
          "name": "",
          "type": "address"
        }
      ],
      "name": "WhiteListTransfer",
      "type": "event"
    },
    {
      "anonymous": false,
      "inputs": [
        {
          "indexed": true,
          "internalType": "address",
          "name": "",
          "type": "address"
        },
        {
          "indexed": true,
          "internalType": "uint256",
          "name": "",
          "type": "uint256"
        }
      ],
      "name": "supplyChanged",
      "type": "event"
    },
    {
      "inputs": [
        {
          "internalType": "address",
          "name": "_userAddrs",
          "type": "address"
        },
        {
          "internalType": "uint256",
          "name": "_tier",
          "type": "uint256"
        }
      ],
      "name": "addToWhitelist",
      "outputs": [],
      "stateMutability": "payable",
      "type": "function"
    },
    {
      "inputs": [
        {
          "internalType": "uint256",
          "name": "",
          "type": "uint256"
        }
      ],
      "name": "administrators",
      "outputs": [
        {
          "internalType": "address",
          "name": "",
          "type": "address"
        }
      ],
      "stateMutability": "view",
      "type": "function"
    },
    {
      "inputs": [
        {
          "internalType": "address",
          "name": "_user",
          "type": "address"
        }
      ],
      "name": "balanceOf",
      "outputs": [
        {
          "internalType": "uint256",
          "name": "balance_",
          "type": "uint256"
        }
      ],
      "stateMutability": "view",
      "type": "function"
    },
    {
      "inputs": [
        {
          "internalType": "address",
          "name": "",
          "type": "address"
        }
      ],
      "name": "balances",
      "outputs": [
        {
          "internalType": "uint256",
          "name": "",
          "type": "uint256"
        }
      ],
      "stateMutability": "view",
      "type": "function"
    },
    {
      "inputs": [
        {
          "internalType": "address",
          "name": "_user",
          "type": "address"
        }
      ],
      "name": "checkForAdmin",
      "outputs": [
        {
          "internalType": "bool",
          "name": "admin_",
          "type": "bool"
        }
      ],
      "stateMutability": "view",
      "type": "function"
    },
    {
      "inputs": [],
      "name": "dividendFlag",
      "outputs": [
        {
          "internalType": "uint256",
          "name": "",
          "type": "uint256"
        }
      ],
      "stateMutability": "view",
      "type": "function"
    },
    {
      "inputs": [
        {
          "internalType": "address",
          "name": "sender",
          "type": "address"
        }
      ],
      "name": "getPaymentStatus",
      "outputs": [
        {
          "internalType": "bool",
          "name": "",
          "type": "bool"
        },
        {
          "internalType": "uint256",
          "name": "",
          "type": "uint256"
        }
      ],
      "stateMutability": "view",
      "type": "function"
    },
    {
      "inputs": [],
      "name": "owner",
      "outputs": [
        {
          "internalType": "address",
          "name": "",
          "type": "address"
        }
      ],
      "stateMutability": "view",
      "type": "function"
    },
    {
      "inputs": [],
      "name": "tradeFlag",
      "outputs": [
        {
          "internalType": "uint256",
          "name": "",
          "type": "uint256"
        }
      ],
      "stateMutability": "view",
      "type": "function"
    },
    {
      "inputs": [
        {
          "internalType": "address",
          "name": "_recipient",
          "type": "address"
        },
        {
          "internalType": "uint256",
          "name": "_amount",
          "type": "uint256"
        },
        {
          "internalType": "string",
          "name": "_name",
          "type": "string"
        }
      ],
      "name": "transfer",
      "outputs": [
        {
          "internalType": "bool",
          "name": "status_",
          "type": "bool"
        }
      ],
      "stateMutability": "payable",
      "type": "function"
    },
    {
      "inputs": [
        {
          "internalType": "address",
          "name": "_recipient",
          "type": "address"
        },
        {
          "internalType": "uint256",
          "name": "_amount",
          "type": "uint256"
        }
      ],
      "name": "whiteTransfer",
      "outputs": [],
      "stateMutability": "payable",
      "type": "function"
    },
    {
      "inputs": [
        {
          "internalType": "address",
          "name": "",
          "type": "address"
        }
      ],
      "name": "whitelist",
      "outputs": [
        {
          "internalType": "uint256",
          "name": "",
          "type": "uint256"
        }
      ],
      "stateMutability": "view",
      "type": "function"
    }
  ],
  "bytecode": {
    "object": "0x60a0604052600180556001600355600c600755600160115560405162000f5438038062000f548339810160408190526200003991620002cc565b600080546001600160a01b03191633179055600480546001600160a01b03191633179055608081905260005b6005811015620002905760006001600160a01b03168382815181106200008f576200008f620003a6565b60200260200101516001600160a01b0316146200028757828181518110620000bb57620000bb620003a6565b6020026020010151600b8260058110620000d957620000d9620003a6565b0180546001600160a01b0319166001600160a01b039283161790556004548451911690849083908110620001115762000111620003a6565b60200260200101516001600160a01b0316036200014c576080516004546001600160a01b03166000908152600660205260409020556200017f565b60066000848381518110620001655762000165620003a6565b6020908102919091018101516001600160a01b0316825201525b60045483516001600160a01b0390911690849083908110620001a557620001a5620003a6565b60200260200101516001600160a01b0316036200020657608051838281518110620001d457620001d4620003a6565b60200260200101516001600160a01b031660008051602062000f3483398151915260405160405180910390a362000287565b60045483516001600160a01b03909116908490839081106200022c576200022c620003a6565b60200260200101516001600160a01b031614620002875760008382815181106200025a576200025a620003a6565b60200260200101516001600160a01b031660008051602062000f3483398151915260405160405180910390a35b60010162000065565b505050620003bc565b634e487b7160e01b600052604160045260246000fd5b80516001600160a01b0381168114620002c757600080fd5b919050565b60008060408385031215620002e057600080fd5b82516001600160401b0380821115620002f857600080fd5b818501915085601f8301126200030d57600080fd5b815160208282111562000324576200032462000299565b8160051b604051601f19603f830116810181811086821117156200034c576200034c62000299565b6040529283528183019350848101820192898411156200036b57600080fd5b948201945b8386101562000394576200038486620002af565b8552948201949382019362000370565b97909101519698969750505050505050565b634e487b7160e01b600052603260045260246000fd5b608051610b5f620003d560003960005050610b5f6000f3fe6080604052600436106100a75760003560e01c80638da5cb5b116100645780638da5cb5b146101cd5780639b19251a146101ff578063b52d15e21461022c578063c43982cc1461024c578063d89d151014610262578063ea28d3201461028257600080fd5b8063214405fc146100ac57806327e235e3146100c157806356b8c7241461010157806370a0823114610124578063745b07c81461015a578063888b228414610170575b600080fd5b6100bf6100ba3660046108b3565b610295565b005b3480156100cd57600080fd5b506100ee6100dc3660046108dd565b60066020526000908152604090205481565b6040519081526020015b60405180910390f35b61011461010f3660046108ff565b6103fb565b60405190151581526020016100f8565b34801561013057600080fd5b506100ee61013f3660046108dd565b6001600160a01b031660009081526006602052604090205490565b34801561016657600080fd5b506100ee60035481565b34801561017c57600080fd5b506101b661018b3660046108dd565b6001600160a01b03166000908152601360205260409020600281015490546201000090910460ff1691565b6040805192151583526020830191909152016100f8565b3480156101d957600080fd5b506000546001600160a01b03165b6040516001600160a01b0390911681526020016100f8565b34801561020b57600080fd5b506100ee61021a3660046108dd565b600a6020526000908152604090205481565b34801561023857600080fd5b506101146102473660046108dd565b6106a0565b34801561025857600080fd5b506100ee60015481565b34801561026e57600080fd5b506101e761027d366004610986565b6106f0565b6100bf6102903660046108b3565b610710565b3361029f816106a0565b156103d3576102ad816106a0565b6102b657600080fd5b60ff82106102c357600080fd5b6001600160a01b0383166000908152600a602052604090208290556003821115610308576001600160a01b0383166000908152600a6020526040902060039055610363565b81600103610331576001600160a01b0383166000908152600a6020526040902060019055610363565b6000821180156103415750600382105b15610363576001600160a01b0383166000908152600a60205260409020600290555b601154600181900361038b576001600160a01b03841660009081526012602052604090208190555b604080516001600160a01b0386168152602081018590527f62c1e066774519db9fe35767c15fc33df2f016675b7cc0c330ed185f286a2d52910160405180910390a150505050565b6004546001600160a01b03908116908216036100a75760ff82106102c357600080fd5b505050565b3360008181526006602052604081205490919085111561041a57600080fd5b6009831061042757600080fd5b6001600160a01b03818116600090815260066020908152604080832080548a9003905592891680835291839020805489019055825191825281018790527f69ca02dd4edd7bf0a4abb9ed3b7af3f14778db5d61921c7dc7cd545266326de2910160405180910390a16040805160e0810182526000602080830182905282840182905260608084015260a0830191909152600182526001600160a01b038916608083015260c082018890528251601f87018290048202810182019093528583529091908690869081908401838280828437600092018290525060608601949094525050600580546001908101918290556020808601929092526001600160a01b038616845260098252604084208054808301825590855291909320845160079092020180548594919350839160ff199091169083600481111561056b5761056b61099f565b021790555060208201516001820155604082015160028201805460ff1916911515919091179055606082015160038201906105a69082610a53565b5060808201516004820180546001600160a01b039283166001600160a01b03199182161790915560a084015160058401805491909316911617905560c09091015160069091015560075460009067ffffffffffffffff81111561060b5761060b6109b5565b604051908082528060200260200182016040528015610634578160200160208202803683370190505b50905060005b60075481101561067057600182828151811061065857610658610b13565b9115156020928302919091019091015260010161063a565b508060008151811061068457610684610b13565b6020026020010151151560011515149350505050949350505050565b60008060005b60058110156106e957836001600160a01b0316600b82600581106106cc576106cc610b13565b01546001600160a01b0316036106e157600191505b6001016106a6565b5092915050565b600b816005811061070057600080fd5b01546001600160a01b0316905081565b336000818152600a602052604090205481908061072c57600080fd5b6004811061073957600080fd5b6040805160c08101825285815260006020808301828152838501838152606085018481526001608087018181523360a08901818152818952601388528a892099518a559551928901929092559251600290970180549251935194516001600160a01b03166301000000026301000000600160b81b031995151562010000029590951662010000600160b81b031960ff9586166101000261ffff1990951699909516989098179290921792909216959095179190911790935560069052919091205485111561080657600080fd5b6003851161081357600080fd5b6001600160a01b03808216600081815260066020818152604080842080548c90038155958c1680855281852080548d018155958552600a8352818520805488540190975595548685529290915283549190910390925590517f98eaee7299e9cbfa56cf530fd3a0c6dfa0ccddf4f837b8f025651ad9594647b39190a2505050505050565b80356001600160a01b03811681146108ae57600080fd5b919050565b600080604083850312156108c657600080fd5b6108cf83610897565b946020939093013593505050565b6000602082840312156108ef57600080fd5b6108f882610897565b9392505050565b6000806000806060858703121561091557600080fd5b61091e85610897565b935060208501359250604085013567ffffffffffffffff8082111561094257600080fd5b818701915087601f83011261095657600080fd5b81358181111561096557600080fd5b88602082850101111561097757600080fd5b95989497505060200194505050565b60006020828403121561099857600080fd5b5035919050565b634e487b7160e01b600052602160045260246000fd5b634e487b7160e01b600052604160045260246000fd5b600181811c908216806109df57607f821691505b6020821081036109ff57634e487b7160e01b600052602260045260246000fd5b50919050565b601f8211156103f657600081815260208120601f850160051c81016020861015610a2c5750805b601f850160051c820191505b81811015610a4b57828155600101610a38565b505050505050565b815167ffffffffffffffff811115610a6d57610a6d6109b5565b610a8181610a7b84546109cb565b84610a05565b602080601f831160018114610ab65760008415610a9e5750858301515b600019600386901b1c1916600185901b178555610a4b565b600085815260208120601f198616915b82811015610ae557888601518255948401946001909101908401610ac6565b5085821015610b035787850151600019600388901b60f8161c191681555b5050505050600190811b01905550565b634e487b7160e01b600052603260045260246000fdfea264697066735822122036ec04566733a1c1660bb54bd945f686a3c21d15959ae6bd30dbaeaf31a4d44564736f6c63430008130033fbd610cf0373947747ba15effd5e459c81db984f8723671458c0e8624428ab04",
    "linkReferences": {}
  },
  "methodIdentifiers": {
    "addToWhitelist(address,uint256)": "214405fc",
    "administrators(uint256)": "d89d1510",
    "balanceOf(address)": "70a08231",
    "balances(address)": "27e235e3",
    "checkForAdmin(address)": "b52d15e2",
    "dividendFlag()": "745b07c8",
    "getPaymentStatus(address)": "888b2284",
    "owner()": "8da5cb5b",
    "tradeFlag()": "c43982cc",
    "transfer(address,uint256,string)": "56b8c724",
    "whiteTransfer(address,uint256)": "ea28d320",
    "whitelist(address)": "9b19251a"
  },
  "id": 17
}